:0400000075EF04F0A4
:1000080000C016F001C015F00E01CAAB1DD0EC0EF1
:10001800D46E780ED36ECA9B010E1B24006E000EA0
:100028001C20016E00C01BF001C01CF02E70800E59
:100038001C18006E800E010A005C02E1F40E1B5CC5
:1000480003E383781B6A1C6ACEA11CD03C0ECE6EDB
:10005800B00ECD6ECE91010E1724006E000E182042
:10006800016E00C017F001C018F01D78800E181836
:10007800006E800E005C02E1320E175C03E3837AA7
:10008800176A186ACEA51CD00B0EC86EDC0EC76E98
:10009800CE95010E1924006E000E1A20016E00C0C4
:1000A80019F001C01AF0800E1A18006E800E005C5C
:1000B80002E10A0E195C04E387701D7C196A1A6A4A
:1000C800CDAB01D0CD9B0F011AA106D00E01C2A95C
:1000D80003D00F011A911D8A0F011AA306D00E0131
:1000E800C2A903D00F011A931D8616C000F015C0CF
:0400F80001F0110002
:0E00FC00550E0E01A06FAA0EA06FA08112007B
:0E010A00550E0E01A06FAA0EA06FA09112005C
:1001180033C02AF034C02BF035C02CF036C02DF097
:1001280037C01EF038C01FF039C020F03AC021F0A7
:100138003BC026F03CC027F03DC028F03EC029F067
:100148003FC022F040C023F041C024F042C025F057
:02015800120093
:10015A0033501F0802E2006ACDD23450000AD8A4F4
:10016A00C7D0365201E0CCDF60D035C0E7FEBDD043
:10017A0035C0E8FEBAD035C0E9FEB7D035C0EAFED0
:10018A00B4D035C0EBFEB1D035C0ECFEAED035C030
:10019A00EDFEABD035C0EEFEA8D035C0EFFEA5D03F
:1001AA0035C0F0FEA2D035C0F1FE9FD035C0F2FEB8
:1001BA009CD035C0F3FE99D035C0F4FE96D035C038
:1001CA00F5FE93D035C0F6FE90D035C0F7FE8DD03F
:1001DA0035C0F8FE8AD035C0F9FE87D035C0FAFEA0
:1001EA0084D035C0FBFE81D035C0FCFE7ED035C040
:1001FA00FDFE7BD035C0FEFE78D035C0FFFE75D03F
:10020A0035C000FF72D035C001FF6FD035C002FF84
:10021A006CD035C003FF69D035C004FF66D035C045
:10022A0005FF63D035C006FF60D03350000A9DE059
:10023A003350010A9DE03350020A9DE03350030A0D
:10024A009DE03350040A9DE03350050A9DE0335087
:10025A00060A9DE03350070A9DE03350080A9DE0E4
:10026A003350090A9DE033500A0A9DE033500B0AC5
:10027A009DE033500C0A9DE033500D0A9DE0335047
:10028A000E0A9DE033500F0A9DE03350100A9DE09C
:10029A003350110A9DE03350120A9DE03350130A7D
:1002AA009DE03350140A9DE03350150A9DE0335007
:1002BA00160A9DE03350170A9DE03350180A9DE054
:1002CA003350190A9DE033501A0A9DE033501B0A35
:1002DA009DE033501C0A9DE033501D0A9DE03350C7
:1002EA001E0A9DE033501F0A9DE0365201E001DFED
:1002FA003450010AD8A4BBD0365201E001DF5AD0EB
:10030A0033C0A1FEB1D033C0A2FEAED033C0A3FE2B
:10031A00ABD033C0A4FEA8D033C0A5FEA5D033C04D
:10032A00A6FEA2D033C0A7FE9FD033C0A8FE9CD0A1
:10033A0033C0A9FE99D033C0AAFE96D033C0ABFE13
:10034A0093D033C0ACFE90D033C0ADFE8DD033C055
:10035A00AFFE8AD033C0B0FE87D033C0B1FE84D09E
:10036A0033C0B2FE81D033C0B3FE7ED033C0B4FEF8
:10037A007BD033C0AEFE78D033C0B7FE75D033C061
:10038A00B8FE72D033C0B9FE6FD033C08FFE6CD0C6
:10039A0033C090FE69D033C091FE66D033C0B5FE3B
:1003AA0063D033C0B6FE60D033C08DFE5DD033C09B
:1003BA008EFE5AD03550000AA3E03550010AA3E058
:1003CA003550020AA3E03550030AA3E03550040A67
:1003DA00A3E03550050AA3E03550060AA3E03550DC
:1003EA00070AA3E03550080AA3E03550090AA3E03A
:1003FA0035500A0AA3E035500B0AA3E035500C0A1F
:10040A00A3E035500D0AA3E035500E0AA3E035509B
:10041A000F0AA3E03550100AA3E03550110AA3E0F1
:10042A003550120AA3E03550130AA3E03550140AD6
:10043A00A3E03550150AA3E03550160AA3E035505B
:10044A00170AA3E03550180AA3E03550190AA3E0A9
:10045A0035501A0AA3E035501B0AA3E035501C0A8E
:10046A00A3E035501D0AA3E0365201E042DEC0D0B7
:10047A0034B002D0889001D088803AD134B002D00A
:10048A00889201D0888234D134B002D0889401D0C5
:10049A0088842ED134B002D0889601D0888628D19B
:1004AA0034B002D0889801D0888822D134B002D0E2
:1004BA00889A01D0888A1CD134B002D0889C01D095
:1004CA00888C16D134B002D0889E01D0888E10D183
:1004DA0034B002D0899001D089800AD134B002D0D8
:1004EA00899201D0898204D134B002D0899401D092
:1004FA008984FED034B002D0899601D08986F8D09A
:10050A0034B002D0899801D08988F2D034B002D0B0
:10051A00899A01D0898AECD034B002D0899C01D062
:10052A00898CE6D034B002D0899E01D0898EE0D081
:10053A0034B002D08A9001D08A80DAD034B002D0A6
:10054A008A9201D08A82D4D034B002D08A9401D05F
:10055A008A84CED034B002D08A9601D08A86C8D096
:10056A0034B002D08A9801D08A88C2D034B002D07E
:10057A008A9A01D08A8ABCD034B002D08A9C01D02F
:10058A008A8CB6D034B002D08A9E01D08A8EB0D07E
:10059A0034B002D08B9001D08B80AAD034B002D074
:1005AA008B9201D08B82A4D034B002D08B9401D02C
:1005BA008B849ED034B002D08B9601D08B8698D093
:1005CA0034B002D08B9801D08B8892D034B002D04C
:1005DA008B9A01D08B8A8CD034B002D08B9C01D0FC
:1005EA008B8C86D034B002D08B9E01D08B8E80D07B
:1005FA003350000AD8B43CD73350010AD8B43ED796
:10060A003350020AD8B440D73350030AD8B442D779
:10061A003350040AD8B444D73350050AD8B446D75D
:10062A003350060AD8B448D73350070AD8B44AD741
:10063A003350080AD8B44CD73350090AD8B44ED725
:10064A0033500A0AD8B450D733500B0AD8B452D709
:10065A0033500C0AD8B454D733500D0AD8B456D7ED
:10066A0033500E0AD8B458D733500F0AD8B45AD7D1
:10067A003350100AD8B45CD73350110AD8B45ED7B5
:10068A003350120AD8B460D73350130AD8B462D799
:10069A003350140AD8B464D73350150AD8B466D77D
:1006AA003350160AD8B468D73350170AD8B46AD761
:1006BA003350180AD8B46CD73350190AD8B46ED745
:1006CA0033501A0AD8B470D733501B0AD8B472D729
:1006DA0033501C0AD8B474D733501D0AD8B476D70D
:1006EA0033501E0AD8B478D733501F0AD8B47AD7F1
:0606FA00FF0E006E12006D
:100700009E8A900E9D6E0E01CDAB03D099CF00F066
:04071000FAD7120002
:0E0714009EB202D00000FCD730C09AFF120047
:10072200FF0E336EFF0E346E000E356E000E366E07
:10073200E20E376E080E386E2F0E396E000E3A6ECC
:10074200FF0E3B6EFF0E3C6E000E3D6E000E3E6EC7
:10075200FF0E3F6EFF0E406E000E416E000E426EA7
:06076200DADCCDDF12001D
:1007680030C033F031C034F032C035F0366AF1DCD5
:0207780012006D
:10077A00330E0E01C26FCA6B200EC56F050EC66F0F
:10078A00CE6B900ED56E400ED66EEC0ED46E780EF1
:10079A00D36E030ECF6ED06A010ED26E3C0ECE6EB1
:1007AA00B00ECD6E330EC96ECA6A010ECC6E0B0E38
:1007BA00C86EDC0EC76E030E0F011B6F030E1C6F93
:0C07CA001A6B0E01CA9BC30EF26E1200E7
:1007D600818E0900F5CFE6FF0006FBE10106F9E18F
:0207E6001200FF
:1007E800700E0E01D86F800EDC6F606A0F01216BEE
:1007F8002E6B116B196B030E8A6E8C6A800E886ED5
:10080800898689988F6A916A100E8D6E856A876AC3
:10081800100E836E846A030E206F030E1D6F396BF2
:10082800356B6FDC240E306E010E316E1A0E326E8F
:1008380097DF250E306E316A1B0E326E91DF5ADC5F
:100848009F86080E9B6E020E9C6E9E8466DF030ECA
:100858000B6E8A0E0C6E550E0D6E0D2EFED70C2EDD
:0C086800FCD70B2EFAD700000000120095
:1008740015D01D9A18D009D01D8E1D920BD01D9E27
:100884001D8208D01D9E1D8205D08FA0F5D78FB084
:10089400F6D7F8D71D9A07D01D9A05D01DAAE9D717
:1008A4001DBAE9D7F9D715D01D9618D009D01D80E7
:1008B4001D940BD01D901D8408D01D901D8405D05F
:1008C4008FA2F5D78FB2F6D7F8D71D9607D01D960D
:0E08D40005D01DA6E9D71DB6E9D7F9D7120049
:0808E2002FC030F016DF1200F8
:1008EA00176A186A196A1A6A1B6A1C6A41DF77DF73
:1008FA008774650E2F6EF0DF060E0B6E130E0C6EEC
:10090A00AD0E0D6E0D2EFED70C2EFCD70B2EFAD780
:10091A0000000000AADF06D0879209D0878207D09C
:10092A00879205D01DAEF8D71DBEF8D7F9D7E0D704
:02093A00FFD7E5
:020000040030CA
:0C0000007229E3B77F3FFF170300FF02E7
:00000001FF
