:1000000023EF01F0FFFFFFFF0F011AA106D00E0141
:10001000C2A903D00F011A9115880F011AA306D0A7
:100020000E01C2A903D00F011A93158E11000F0EF5
:100030000F01596F216B2E6B116B030E8A6E8C6A48
:10004000800E886E8F6A916A100E8D6E856A876A3F
:10005000100E836E030E206F030E1D6F396B356B10
:10006000120015A809D08FA003D01596158A02D0CA
:100070001586159A15980DD015AE09D08FA203D00C
:10008000159C158202D0158C1592159E02D01598DC
:10009000159E120015809DD0839A879087921594A3
:1000A00015A605D015A003D0060E176E00D0AAD055
:1000B000838A8790879218801892189415AA04D082
:1000C00015A002D0176A07D015AC05D015A003D033
:1000D000040E176E00D096D0839A8780879218906E
:1000E0001882189415AA04D015A002D0176A07D058
:1000F00015AC05D015A003D0040E176E00D082D029
:10010000839A8790878218901892188415AA04D031
:1001100015A002D0176A07D015AC05D015A003D0E2
:10012000040E176E00D06ED0838A8780878215AA4E
:1001300004D015A002D0176A08D015A206D015A0C9
:1001400004D0050E176E158400D05CD015A407D01E
:1001500018A005D015A003D0020E176E12D015A45A
:1001600007D018A205D015A003D0030E176E09D032
:1001700015A407D018A405D015A003D0010E176E42
:1001800000D040D015A61BD018A007D015A005D0D0
:10019000020E176E1892189412D018A207D015A04C
:1001A00005D0030E176E1890189409D018A407D024
:1001B00015A005D0010E176E1890189200D022D00D
:1001C000189018921884839A87908792166A176AF3
:1001D00019D01650000AD8B45FD71650010AD8B407
:1001E00067D71650020AD8B477D71650030A88E0AA
:1001F0001650040A99E01650050AA8E01650060A9F
:10020000C1E0DED71200818E0900F5CFE6FF0006BF
:10021000FBE10106F9E11200300E0E01C26FCA6B5C
:10022000900ED56E400ED66EEC0ED46E780ED36E58
:10023000030E0F011B6F030E1C6F1A6B0E01CA9B7E
:10024000C00EF26E1200E8DFF2DE0BDF0F011AB112
:10025000FCD71AB3FAD717C016F01CDFFCD7FFD7AC
:020000040030CA
:0C0000007229C3AF7F3FFF170300FF020F
:00000001FF
