:0400000097EF1EF068
:1000080000C016F001C015F00E01CAAB0ED0060EE6
:10001800D46ED36ACA9B010E1E24006E000E1F20E8
:10002800016E00C01EF001C01FF00F011AA106D01A
:100038000E01C2A903D00F011A9120880F011AA33B
:1000480006D00E01C2A903D00F011A93208016C052
:0800580000F015C001F01100D9
:100060000B820BAE3AEF00F003680268016800688B
:080070000A360232FF0E1200F5
:0E007800026A016A006A086A036A000E12003A
:100086000B840BAE4EEF00F0010E036E026A016A9E
:0A009600006A0A360232FF0E120063
:0800A0000AAE029E000E1200E0
:1000A8000CB096EF00F00CA23CEF01F00E6A000EC7
:1000B8000264ADEF00F0F00E0214D8A478EF00F05F
:1000C800023A01380F0B02260138F00B016E003896
:1000D8000F0B01260038F00B006E08380F0B0026B6
:1000E8000838F00B086E0E84D89002BE91EF00F02D
:1000F80008360036013602360E2A02BE91EF00F0AD
:1001080008360036013602360E2A02BE91EF00F09C
:1001180008360036013602360E2A0E50036432EFD6
:1001280001F0035E0BBC08AE37EF01F0D880800EFB
:1001380008640030000E002201220222D8A037EF06
:1001480001F0023201320032034A3CEF01F037EF8E
:1001580001F001C002F000C001F008C000F0086A18
:10016800000E0E860264E4EF00F0F00E0214D8A42C
:10017800CCEF00F0023A01380F0B02260138F00BE1
:10018800016E00380F0B01260038F00B006E0E844C
:10019800D89002BE91EF00F00036013602360E2AE2
:1001A80002BE91EF00F00036013602360E2A02BE7A
:1001B80091EF00F00036013602360E2A91EF00F07A
:1001C80001C002F000C001F0006A000E0E960E8811
:1001D800026411EF01F0F00E0214D8A4FCEF00F055
:1001E800023A01380F0B02260138F00B016E0E841B
:1001F800D89002BE91EF00F0013602360E2A02BEF8
:1002080091EF00F0013602360E2A02BE91EF00F09F
:10021800013602360E2A91EF00F001C002F0016AA1
:10022800000E0E86026441EF01F0F00E0214D8A40D
:1002380020EF01F0023A0E84D89002BE91EF00F050
:1002480002360E2A02BE91EF00F002360E2A02BED6
:1002580091EF00F002360E2A91EF00F0010E0C6EBD
:100268000EDF44EF01F0020E0C6E16DF44EF01F0D2
:10027800040E0C6EF1DE44EF01F0080E0C6EF8DE91
:02028800120062
:10028A000134083609360450085E0550D8A0053CEA
:10029A00095E003601360F0E0C6E01340836093637
:1002AA00045000A006D0085E0550D8A0053C095E9F
:1002BA0005D008260550D8B0053C09260036013677
:1002CA000C2EEBD700B006D0045008260550D8B043
:0802DA00053C0926000012009A
:1002E2000B800BAE7DEF01F0026A0AAEFF0E026ECA
:0C02F200016E006E0A360232FF0E120090
:0802FE000B6A0B86FF0E1200D3
:10030600086A096A000E0762036408EF02F00250E9
:1003160006180A6E075003267E0ED8A099EF01F044
:10032600035ED8B00CEF02F09DEF01F0035ED8A09B
:1003360010EF02F0028E068E02C00EF001C00BF026
:1003460000C00DF000500402F4CF0CF0015005027D
:10035600F4CF00F0F3CF08F00402F3500C26F4506B
:100366000822000E00220D500502F3500C26F45010
:100376000822000E002202500402F3500826F45010
:10038600002202500502016A000E0122F3500026E7
:10039600F45001220D500602F3500826F4500022B4
:1003A600026A000E012202220B500602F3500026BA
:1003B600F4500122000E02220E500602F3500126CE
:1003C600F450022202BEF0EF01F008360036013684
:1003D60002360306D8B410EF02F003EF02F0D8801D
:1003E600800E08640030000E002201220222D8A0EE
:1003F60003EF02F0023201320032034A0CEF02F040
:100406000AAE029E000E12EF02F0010E32DE12EF6D
:1004160002F0020E22DE12EF02F0040E31DE1200AE
:100426000D6A086A0050D8B4000C04180A6E0ABE99
:100436000D1E0B6A04AE02D0041E042A00AE02D0C2
:10044600001E002A005004100A6E0ABE1FD0045077
:10045600085E003600340836045008260036060EBC
:100466000C6E00340836045000B0085E00A0082662
:1004760000360C2EF6D700A008260BB015D00DAE10
:10048600000C001E002A081E082A000C04AE09D023
:1004960000BE04D00050086E006AF1D7006A002A38
:1004A600000C001E0B2AD3D7082A0450085CD8A4D7
:0E04B600E6D7086A002A00AEE2D7FF0C12005B
:1004C400025006180E6E086A096A0B6A0350076424
:1004D40055EF03F006500A6E068E028E03500B6E23
:1004E4000750036E000E0B64A5EF02F00B50075E7D
:1004F400D8B446EF03F0070E076414EF03F0075E69
:1005040000C008F001C000F002C001F0026A074E0A
:1005140046EF03F00764E9EF02F0075E00C008F05D
:1005240001C000F0016A074E46EF03F00764C7EF0D
:1005340002F0075E00C008F0006A074E46EF03F0C1
:100544000764AEEF02F00AC002F005C001F004C077
:1005540000F0086A72EF04F0030E0764B9EF02F0CA
:10056400075E08380F0B086E074E46EF03F0D8906D
:100574000832074E46EF03F0D8900832074E46EF94
:1005840003F0D890083246EF03F0030E0764D8EF67
:1005940002F0075E08380F0B086E0038F00B0826CF
:1005A40000380F0B006E074E46EF03F0D890003270
:1005B4000832074E46EF03F0D89000320832074E57
:1005C40046EF03F0D8900032083246EF03F0030EF2
:1005D400076400EF03F0075E08380F0B086E00385D
:1005E400F00B082600380F0B006E0138F00B0026C4
:1005F40001380F0B016E074E46EF03F0D89001321D
:1006040000320832074E46EF03F0D8900132003230
:100614000832074E46EF03F0D89001320032083218
:1006240046EF03F0030E076431EF03F0075E08386A
:100634000F0B086E0038F00B082600380F0B006E05
:100644000138F00B002601380F0B016E0238F00B55
:10065400012602380F0B026E074E46EF03F0D890C6
:100664000232013200320832074E46EF03F0D890CE
:100674000232013200320832074E46EF03F0D890BE
:100684000232013200320832096A000E0EAE3AEF2D
:1006940004F0081E001E011E021E082A0022012268
:1006A40002223AEF04F00750D8A45BEF03F072EF94
:1006B40004F0096A02C00AF0028E068E0750035C39
:1006C400076ED8B42DEF04F0070E0764FBEF03F0B8
:1006D400075E0450096E0550046E0650056E066AE6
:1006E400074E2DEF04F0070E0764D0EF03F0075E0A
:1006F4000450096E0550046E056A074E2DEF04F090
:10070400070E0764AEEF03F0075E0450096E046A37
:10071400074E2DEF04F0070E076495EF03F00AC0AF
:1007240002F072EF04F0030E0764A0EF03F0075E1B
:1007340009380F0B096E074E2DEF04F0D8900932DB
:10074400074E2DEF04F0D8900932074E2DEF04F038
:10075400D89009322DEF04F0030E0764BFEF03F0C5
:10076400075E09380F0B096E0438F00B09260438AC
:100774000F0B046E074E2DEF04F0D89004320932AB
:10078400074E2DEF04F0D89004320932074E2DEFB6
:1007940004F0D890043209322DEF04F0030E0764FC
:1007A400E7EF03F0075E09380F0B096E0438F00B0E
:1007B400092604380F0B046E0538F00B042605389F
:1007C4000F0B056E074E2DEF04F0D890053204325E
:1007D4000932074E2DEF04F0D89005320432093265
:1007E400074E2DEF04F0D8900532043209322DEF74
:1007F40004F0030E076418EF04F0075E09380F0BCA
:10080400096E0438F00B092604380F0B046E053802
:10081400F00B042605380F0B056E0638F00B052681
:1008240006380F0B066E074E2DEF04F0D8900632F3
:10083400053204320932074E2DEF04F0D890063207
:10084400053204320932074E2DEF04F0D8900632F7
:10085400053204320932086A000E0EAE3AEF04F093
:10086400091E041E051E061E092A0422052206224C
:100874000950082604500022055001220650022285
:100884000EBE51EF04F0D8A060EF04F00232013242
:1008940000320832033E60EF04F06CEF04F0D8B08D
:1008A40066EF04F0000E081E001E011E021E082A38
:1008B4000022012202220A7E66EF04F0010E0C6E71
:1008C40054EC00F074EF04F0020E0C6E54EC00F0E3
:1008D40074EF04F0040E0C6E30EC00F074EF04F0CE
:0608E400000E0C6E120074
:1008EA00086A080E0C6E003408360450085ED8B048
:0E08FA0002D00826D89000360C2EF5D712003A
:100908000B6A0C6A0A6A086A0350D8B40CEF05F03F
:10091800028E9E0E035E03BE97EF04F0D8B497EFE5
:1009280004F0FCEF04F0036C080E035CD8A0C9EFD8
:1009380004F0036E083600C008F001C000F002C0E1
:1009480001F0026A080E035CD8A0C9EF04F0036E38
:10095800083600C008F001C000F0016A080E035C08
:10096800D8A0C9EF04F0036E083600C008F0006A8A
:10097800080E035CD8A0C9EF04F0036E0836086AB5
:100988000350D8A4D890D5EF04F00350D8B4D5EFCD
:1009980004F0D8900232013200320832032ECDEF33
:1009A80004F00BBC08A0E6EF04F0D8A0E6EF04F0D2
:1009B800082AD8B4002AD8B4012AD8B4022A02BE18
:1009C80010EF05F00AAE0CEF05F0021E011E001E26
:1009D800081E082AD8B4002AD8B4012AD8B4022A92
:1009E8000CEF05F0026A016A006A086A0CEF05F06C
:1009F8000B800BAE15EF05F0026A0AAE15EF05F095
:100A0800026E016E006E086E0A36023215EF05F0AE
:100A1800000E0C6A16EF05F0010E0C6E5EDC16EF88
:100A280005F0FF0E0250036E0150026E0050016E79
:060A38000850006E1200E0
:100A3E000B6A0A6A096A086A0E6A03340836045099
:100A4E00085E0550D8A0053C095E0650D8A0063CAD
:100A5E000A5E0750D8A0073C0B5EE86AD8A0010ECC
:100A6E000E5E0336070E0C6E0334083609360A3650
:100A7E000B360E36045003A012D0085E0550D8A0D7
:100A8E00053C095E0650D8A0063C0A5E0750D8A069
:100A9E00073C0B5EE86AD8A0010E0E5E11D0082648
:100AAE000550D8B0053C09260650D8B0063C0A269B
:100ABE000750D8B0073C0B26E86AD8B0010E0E26B8
:100ACE0003360C2ED1D70234083609360A360B36C9
:100ADE000E36045003A012D0085E0550D8A0053C77
:100AEE00095E0650D8A0063C0A5E0750D8A0073C07
:100AFE000B5EE86AD8A0010E0E5E11D008260550D6
:100B0E00D8B0053C09260650D8B0063C0A26075038
:100B1E00D8B0073C0B26E86AD8B0010E0E26023676
:100B2E00070E0C6E0234083609360A360B360E36B0
:100B3E00045002A012D0085E0550D8A0053C095EF4
:100B4E000650D8A0063C0A5E0750D8A0073C0B5EA4
:100B5E00E86AD8A0010E0E5E11D008260550D8B056
:100B6E00053C09260650D8B0063C0A260750D8B0D8
:100B7E00073C0B26E86AD8B0010E0E2602360C2E64
:100B8E00D1D70134083609360A360B360E360450E4
:100B9E0002A012D0085E0550D8A0053C095E065092
:100BAE00D8A0063C0A5E0750D8A0073C0B5EE86A48
:100BBE00D8A0010E0E5E11D008260550D8B0053C07
:100BCE0009260650D8B0063C0A260750D8B0073C76
:100BDE000B26E86AD8B0010E0E260136070E0C6EF3
:100BEE000134083609360A360B360E36045001A08B
:100BFE0012D0085E0550D8A0053C095E0650D8A05C
:100C0E00063C0A5E0750D8A0073C0B5EE86AD8A0E7
:100C1E00010E0E5E11D008260550D8B0053C0926EF
:100C2E000650D8B0063C0A260750D8B0073C0B2613
:100C3E00E86AD8B0010E0E2601360C2ED1D700343C
:100C4E00083609360A360B360E36045001A012D07D
:100C5E00085E0550D8A0053C095E0650D8A0063C9B
:100C6E000A5E0750D8A0073C0B5EE86AD8A0010EBA
:100C7E000E5E11D008260550D8B0053C0926065048
:100C8E00D8B0063C0A260750D8B0073C0B26E86AB7
:100C9E00D8B0010E0E260036070E0C6E0034083644
:100CAE0009360A360B360E36045000A012D0085EF6
:100CBE000550D8A0053C095E0650D8A0063C0A5E39
:100CCE000750D8A0073C0B5EE86AD8A0010E0E5E56
:100CDE0011D008260550D8B0053C09260650D8B0CC
:100CEE00063C0A260750D8B0073C0B26E86AD8B057
:100CFE00010E0E2600360C2ED1D700B00ED00450A9
:100D0E0008260550D8B0053C09260650D8B0063C3A
:0C0D1E000A260750D8B0073C0B26120034
:080D2A00067E62EC02F01200EB
:100D32000050086E0150006E0250016E0350026EA8
:100D4200036A0B6A0C6A9E0E036E0A6A020E0C6E2E
:060D520054EC00F0120059
:100D58000450000A12E10550000A0FE10650000A8B
:100D68000CE10750000A09E1FF0E006EFF0E016E4C
:100D78007F0E026EFF0E036EA8D0086A096A07503C
:100D8800D8B457EF07F00350D8B45CEF07F002501F
:100D980006180A6E028E068E0E6A02C008F001C09E
:100DA8000CF000C00DF004500D5E0550D8A0053CB5
:100DB8000C5E0650D8A0063C085E086A0C6A0D6AEC
:100DC800D8A0EEEF06F0D890023201320032083295
:100DD800010E0E6E0750035ED8A0FBEF06F07E0EE4
:100DE8000E240326D8B061EF07F001EF07F07E0E5E
:100DF8000E240326D8A066EF07F0180E0B6E0D36EA
:100E08000C3608360036013602360E360450005EBF
:100E18000550D8A0053C015E0650D8A0063C025EED
:100E280006340E120EA01CEF07F00D8027EF07F016
:100E3800045000260550D8B0053C01260650D8B00D
:100E4800062802260D900B2E03EF07F04DEF07F052
:100E5800D8900036013602360E360450005E055032
:100E6800D8A0053C015E0650D8A0063C025E0634B8
:100E78000E10010B0D26D8B00C2AD8B4082AD8A415
:100E88004DEF07F008320C320D32032AD8B461EF67
:100E980007F00AAE089E0850026E0C50016E0D5005
:100EA800006E69EF07F0010E7FEC01F069EF07F0C3
:100EB800020E3CEC00F069EF07F0040E30EC00F095
:0C0EC80069EF07F0080E43EC00F0120088
:100ED4000A6A0350D8A40A800750D8A40A820A5088
:100EE400D8B4CDEF07F0030AD8B486EF07F00AB000
:100EF40081EF07F006AECBEF07F0C9EF07F002AEC3
:100F0400C9EF07F0CBEF07F00250800B0A6E029E88
:100F14000650800B069E0A18D8B497EF07F00A50C3
:100F2400D8B4C9EF07F0CBEF07F00750035CD8B48F
:100F3400A1EF07F0D8A0BDEF07F0C3EF07F006500C
:100F4400025CD8B4ABEF07F0D8A0BDEF07F0C3EF55
:100F540007F00550015CD8B4B5EF07F0D8A0BDEF99
:100F640007F0C3EF07F00450005CD8B4CDEF07F0EE
:100F7400D8B0C3EF07F00A52D8B4CBEF07F0C9EFEB
:100F840007F00A52D8B4C9EF07F0CBEF07F0D880C6
:0E0F94001200D8901200D880D88412001200EB
:100FA2000450000A08E10550000A05E1FF0E006E38
:100FB2007F0E016E58D00D6A096A086A015000104E
:100FC200D8B4000C015005180A6E0ABE0D1E0B6A39
:100FD20005AE05D0041E051E042AD8B4052A01AEAA
:100FE20005D0001E011E002AD8B4012A01500510A6
:100FF2000A6E0ABE10D045EC01F00BB020D00DAE47
:10100200000C001E011E002AD8B4012A081E091E67
:10101200082AD8B4092A000C05AE0DD001BE07D0AB
:101022000150096E0050086E016A006AE8D7016A31
:10103200006A002A000C011E001E0B2ADDD7082AB6
:10104200D8B4092A0450085CD8A4D9D70550095C41
:10105200D8A4D5D7096A086A002AD8B4012A01AEF1
:08106200CED70000FF0C1200C4
:10106A0000016051390806E3300E605D03E3010EAA
:08107A00006E01D0006A1200B3
:101082000B6A0A6A096A00500402F4CF09F0F3CF2E
:1010920008F001500502F4CF0BF0F3CF0AF0005034
:1010A2000502F3500926F4500A22E86A0B22015085
:1010B2000402F3500926F4500A22E86A0B2208C0FF
:1010C20000F009C001F00AC002F00BC003F01200E8
:1010D200800E00016019006E800E000A005CD8B01C
:1010E2006DD160510008016E01C060F0800E0118E0
:1010F200006E800E6E0A005CD8A0C0D0640E046E32
:1011020060C000F013EC02F0120E0024056E000E17
:1011120000BEFF0E066E000E062205C000F006C0DD
:1011220001F0000E06BEFF0E026E036E0036009046
:101132000136023603360036009001360236033697
:10114200900E0024F66E3E0E0120F76E000E022075
:10115200F86E0900F5CF69F00900F5CF6AF00900D1
:10116200F5CF6BF00900F5CF6CF0640E046E60C031
:1011720000F013EC02F008C000F00A0E046E13EC4B
:1011820002F0090E0024056E000E00BEFF0E066E70
:10119200000E062205C000F006C001F0000E06BED9
:1011A200FF0E026E036E00360090013602360336E1
:1011B20000360090013602360336900E0024F66E99
:1011C2003E0E0120F76E000E0220F86E0900F5CFE8
:1011D20000F00900F5CF01F00900F5CF02F0090097
:1011E200F5CF03F069C004F06AC005F06BC006F0E9
:1011F2006CC007F083EC01F000C069F001C06AF036
:1012020002C06BF003C06CF00A0E046E60C000F006
:1012120013EC02F008C000F000C001F0000E00BEA6
:10122200FF0E026E036E046E013601900236033623
:10123200043601360190023603360436900E01243C
:10124200F66E3E0E0220F76E000E0320F86E0900C5
:10125200F5CF00F00900F5CF01F00900F5CF02F05B
:101262000900F5CF03F069C004F06AC005F06BC055
:1012720006F06CC007F083EC01F007D2800E0A0A78
:10128200006E800E6019005C71E20A0E046E60C08E
:1012920000F013EC02F0090E0024056E000E00BEF1
:1012A200FF0E066E000E062205C000F006C001F019
:1012B200000E06BEFF0E026E036E0036009001366F
:1012C2000236033600360090013602360336900E9F
:1012D2000024F66E3E0E0120F76E000E0220F86E1C
:1012E2000900F5CF69F00900F5CF6AF00900F5CFE2
:1012F2006BF00900F5CF6CF00A0E046E60C000F0CE
:1013020013EC02F008C000F000C001F0000E00BEB5
:10131200FF0E026E036E046E013601900236033632
:10132200043601360190023603360436900E01244B
:10133200F66E3E0E0220F76E000E0320F86E0900D4
:10134200F5CF00F00900F5CF01F00900F5CF02F06A
:101352000900F5CF03F069C004F06AC005F06BC064
:1013620006F06CC007F083EC01F08FD160C000F092
:10137200000E60BFFF0E016E026E036E003600901B
:101382000136023603360036009001360236033645
:10139200900E0024F66E3E0E0120F76E000E022023
:1013A200F86E0900F5CF00F00900F5CF01F0090051
:1013B200F5CF02F00900F5CF03F067D1800E601976
:1013C200006E800E6E0A005CD8A0C0D0640E046E5F
:1013D20060C000F013EC02F0120E0024056E000E45
:1013E20000BEFF0E066E000E062205C000F006C00B
:1013F20001F0000E06BEFF0E026E036E0036009074
:1014020001360236033600360090013602360336C4
:101412005C0E0024F66E3E0E0120F76E000E0220D6
:10142200F86E0900F5CF69F00900F5CF6AF00900FE
:10143200F5CF6BF00900F5CF6CF0640E046E60C05E
:1014420000F013EC02F008C000F00A0E046E13EC78
:1014520002F0090E0024056E000E00BEFF0E066E9D
:10146200000E062205C000F006C001F0000E06BE06
:10147200FF0E026E036E003600900136023603360E
:10148200003600900136023603365C0E0024F66EFA
:101492003E0E0120F76E000E0220F86E0900F5CF15
:1014A20000F00900F5CF01F00900F5CF02F00900C4
:1014B200F5CF03F069C004F06AC005F06BC006F016
:1014C2006CC007F083EC01F000C069F001C06AF063
:1014D20002C06BF003C06CF00A0E046E60C000F034
:1014E20013EC02F008C000F000C001F0000E00BED4
:1014F200FF0E026E036E046E013601900236033651
:101502000436013601900236033604365C0E01249D
:10151200F66E3E0E0220F76E000E0320F86E0900F2
:10152200F5CF00F00900F5CF01F00900F5CF02F088
:101532000900F5CF03F069C004F06AC005F06BC082
:1015420006F06CC007F083EC01F09FD0800E0A0A0F
:10155200006E800E6019005C71E20A0E046E60C0BB
:1015620000F013EC02F0090E0024056E000E00BE1E
:10157200FF0E066E000E062205C000F006C001F046
:10158200000E06BEFF0E026E036E0036009001369C
:1015920002360336003600900136023603365C0E00
:1015A2000024F66E3E0E0120F76E000E0220F86E49
:1015B2000900F5CF69F00900F5CF6AF00900F5CF0F
:1015C2006BF00900F5CF6CF00A0E046E60C000F0FB
:1015D20013EC02F008C000F000C001F0000E00BEE3
:1015E200FF0E026E036E046E013601900236033660
:1015F2000436013601900236033604365C0E0124AD
:10160200F66E3E0E0220F76E000E0320F86E090001
:10161200F5CF00F00900F5CF01F00900F5CF02F097
:101622000900F5CF03F069C004F06AC005F06BC091
:1016320006F06CC007F083EC01F027D060C000F028
:10164200000E60BFFF0E016E026E036E0036009048
:101652000136023603360036009001360236033672
:101662005C0E0024F66E3E0E0120F76E000E022084
:10167200F86E0900F5CF00F00900F5CF01F009007E
:0C168200F5CF02F00900F5CF03F01200D4
:10168E006E0E0001605DD8A0CAD0640E046E60C0FC
:10169E0000F075EC04F0120E0024056E066A000EC2
:1016AE00062205C000F006C001F0000E06BEFF0EB9
:1016BE00026E036E00360090013602360336003697
:1016CE000090013602360336900E0024F66E3E0E62
:1016DE000120F76E000E0220F86E0900F5CF00F023
:1016EE000900F5CF01F00900F5CF02F00900F5CFA2
:1016FE0003F0000E046E000E056E000E066E7E0EDA
:10170E00076E83EC01F000C069F001C06AF002C000
:10171E006BF003C06CF0640E046E60C000F075ECEC
:10172E0004F008C000F00A0E046E75EC04F0090E09
:10173E000024056E066A000E062205C000F006C0E3
:10174E0001F0000E06BEFF0E026E036E0036009014
:10175E000136023603360036009001360236033665
:10176E00900E0024F66E3E0E0120F76E000E022043
:10177E00F86E0900F5CF00F00900F5CF01F0090071
:10178E00F5CF02F00900F5CF03F069C004F06AC08E
:10179E0005F06BC006F06CC007F083EC01F000C0E2
:1017AE0069F001C06AF002C06BF003C06CF00A0E63
:1017BE00046E60C000F075EC04F008C000F000C0CC
:1017CE0001F0000E026E036E046E013601900236B9
:1017DE000336043601360190023603360436900E77
:1017EE000124F66E3E0E0220F76E000E0320F86EF8
:1017FE000900F5CF00F00900F5CF01F00900F5CF93
:10180E0002F00900F5CF03F069C004F06AC005F0DC
:10181E006BC006F06CC007F083EC01F0B1D06051E4
:10182E000A08D8B07ED00A0E046E60C000F075ECC7
:10183E0004F0090E0024056E066A000E062205C08D
:10184E0000F006C001F0000E06BEFF0E026E036E23
:10185E00003600900136023603360036009001360F
:10186E0002360336900E0024F66E3E0E0120F76E01
:10187E00000E0220F86E0900F5CF00F00900F5CF3A
:10188E0001F00900F5CF02F00900F5CF03F0000ECC
:10189E00046E000E056E000E066E7E0E076E83EC55
:1018AE0001F000C069F001C06AF002C06BF003C025
:1018BE006CF00A0E046E60C000F075EC04F008C007
:1018CE0000F000C001F0000E026E036E046E0136D1
:1018DE000190023603360436013601900236033685
:1018EE000436900E0124F66E3E0E0220F76E000EA8
:1018FE000320F86E0900F5CF00F00900F5CF01F0D6
:10190E000900F5CF02F00900F5CF03F069C004F02D
:10191E006AC005F06BC006F06CC007F083EC01F0F6
:10192E002FD060C000F0000E016E026E036E003606
:10193E00009001360236033600360090013602362C
:10194E000336900E0024F66E3E0E0120F76E000E4A
:10195E000220F86E0900F5CF00F00900F5CF01F076
:10196E000900F5CF02F00900F5CF03F0000E046E6A
:10197E00000E056E000E066E7E0E076E83EC01F0F5
:02198E00120045
:101990000B6A0C6A086A0350D8B44CEF0DF002C011
:1019A0000AF0028E9E0E035E03AE3CEF0DF0036C58
:1019B000080E035CD8A009EF0DF0036E083600C0D6
:1019C00008F001C000F002C001F0026A080E035CDA
:1019D000D8A009EF0DF0036E083600C008F001C072
:1019E00000F0016A080E035CD8A009EF0DF0036E49
:1019F000083600C008F0006A080E035CD8A009EFA2
:101A00000DF0036E0836086A0350D8A4D89015EF7D
:101A10000DF00350D8B415EF0DF0D890023201321A
:101A200000320832032E0DEF0DF00BBC08A026EF9C
:101A30000DF0D8A026EF0DF0082AD8B4002AD8B4AB
:101A4000012AD8B4022A02BE50EF0DF00AAE4CEFC4
:101A50000DF0021E011E001E081E082AD8B4002A1E
:101A6000D8B4012AD8B4022A4CEF0DF0026A016AF8
:101A7000006A086A4CEF0DF00B800BAE57EF0DF0CB
:101A8000026A0AAE57EF0DF0026E016E006E086E2C
:101A90000A36023257EF0DF00C6A000E58EF0DF0C7
:101AA000010E0C6E000E71EC01F058EF0DF0FF0E00
:101AB0000250036E0150026E0050016E0850006E1D
:021AC000120012
:101AC20003500718D8A475EF0DF002500618D8A4D9
:101AD20075EF0DF001500518D8A475EF0DF0005008
:0E1AE2000418D8B4D8841200D8941200120050
:101AF0000001616B626B546A556A42C000F043C0DA
:101B000001F044C002F0010E4226000E432244229E
:101B100000C0F6FF01C0F7FF02C0F8FF0900F5CFD3
:101B200000F000C051F00052D8B49FEF1DF05150AA
:101B3000250A0CE0000140C0E1FF41C0E2FF51C0B6
:101B4000E6FF404A412A614B622BD7D7526A536A5B
:101B5000546A556A23D05486010E4226000E432251
:101B6000442259D05480010E4226000E43224422C2
:101B700052D05482010E4226000E432244224BD002
:101B80005586010E4226000E4322442244D054843E
:101B9000010E4226000E432244223DD042C0F6FFF1
:101BA00043C0F7FF44C0F8FF0900F5CF01F0015032
:101BB0002D0AD1E042C0F6FF43C0F7FF44C0F8FF52
:101BC0000900F5CF01F00150200ACCE042C0F6FF39
:101BD00043C0F7FF44C0F8FF0900F5CF01F0015002
:101BE0002B0AC7E042C0F6FF43C0F7FF44C0F8FF2E
:101BF0000900F5CF01F00150230AC2E042C0F6FF10
:101C000043C0F7FF44C0F8FF0900F5CF01F00150D1
:101C1000300ABDE001D09ED754B2549054B65494CB
:101C200042C0F6FF43C0F7FF44C0F8FF0900F5CFFC
:101C300000F0000E016E00C060F035EC08F00052BC
:101C400036E0526A536A52C000F053C001F00A0EE7
:101C5000046E000E056E41EC08F042C0F6FF43C072
:101C6000F7FF44C0F8FF0900F5CF02F0025000244E
:101C7000526E000E0120536E300E525E000E535A0B
:101C8000010E4226000E4322442242C0F6FF43C00A
:101C9000F7FF44C0F8FF0900F5CF00F0000E016E19
:101CA00000C060F035EC08F00052CDE133D042C006
:101CB000F6FF43C0F7FF44C0F8FF0900F5CF01F07D
:101CC00001502A0A27E145C0E9FF46C0EAFFEECFEE
:101CD00000F0EECF01F000C0E9FF01C0EAFFEECF57
:101CE00052F0EECF53F045C0E9FF46C0EAFF020EC6
:101CF000EE24006E000EEE20016E45C0E1FF46C0EE
:101D0000E2FF00C0E6FF01C0E6FF010E4226000E22
:101D10004322442242C0F6FF43C0F7FF44C0F8FF0D
:101D20000900F5CF01F001502E0A70E1010E4226A4
:101D3000000E4322442242C0F6FF43C0F7FF44C0D6
:101D4000F8FF0900F5CF01F001502A0A28E145C04B
:101D5000E9FF46C0EAFFEECF00F0EECF01F000C091
:101D6000E9FF01C0EAFFEECF4FF0EECF50F045C0E3
:101D7000E9FF46C0EAFF020EEE24006E000EEE20E0
:101D8000016E45C0E1FF46C0E2FF00C0E6FF01C0B2
:101D9000E6FF010E4226000E4322442236D04F6A4F
:101DA000506A42C0F6FF43C0F7FF44C0F8FF090085
:101DB000F5CF00F0000E016E00C060F035EC08F0C9
:101DC000005223E04FC000F050C001F00A0E046E34
:101DD000000E056E41EC08F042C0F6FF43C0F7FF6D
:101DE00044C0F8FF0900F5CF02F0025000244F6E06
:101DF000000E0120506E300E4F5E000E505A010E44
:101E00004226000E43224422CCD703D04F6A506AA8
:101E1000558842C000F043C001F044C002F0010EFA
:101E20004226000E4322442200C0F6FF01C0F7FF05
:101E300002C0F8FF0900F5CF51F0FCD061C000F0FE
:101E400062C001F0A3EF1DF05488E3D7558431D16F
:101E5000548A55802ED155822CD1548C2AD129D127
:101E6000548A548E26D145C0E9FF46C0EAFFEECF22
:101E700000F0EECF01F000C0E9FF01C0EAFFEECFB5
:101E80005CF0EECF5DF045C0E9FF46C0EAFF020E10
:101E9000EE24006E000EEE20016E45C0E1FF46C04C
:101EA000E2FF00C0E6FF01C0E6FF000E5D1802E1A0
:101EB000000E5C1804E1170E5C6E000E5D6E5E6A2B
:101EC0005F6A5E505C24E96E5F505D20EA6EEE5200
:101ED0000BE0010E5E24006E000E5F20016E00C05C
:101EE0005EF001C05FF0EDD74F5050100AE05F5038
:101EF000505C02E15E504F5C04E24FC05EF050C0A7
:101F00005FF053505F5C02E152505E5C05E25E5050
:101F1000525E5F50535A02D0526A536A54B617D079
:101F200052C000F053C001F0010E525E000E535A31
:101F3000005001100CE0000140C0E1FF41C0E2FF91
:101F4000200EE66E404A412A614B622BE9D75EC003
:101F500002F05FC003F0010E5E5C006E000E5F5881
:101F6000016E00C05EF001C05FF0025003101AE085
:101F700000015CC0E9FF5DC0EAFF40C0E1FF41C075
:101F8000E2FFEECFE6FF404A412A010E5C24006EDC
:101F9000000E5D20016E00C05CF001C05DF0614B81
:101FA000622BD5D754A617D052C000F053C001F011
:101FB000010E525E000E535A005001100CE0000159
:101FC00040C0E1FF41C0E2FF200EE66E404A412AD8
:101FD000614B622BE9D791D545C0E9FF46C0EAFFC6
:101FE000EECF00F0EECF01F000C0E9FF01C0EAFF44
:101FF000EECF51F045C0E9FF46C0EAFF020EEE24E5
:10200000006E000EEE20016E45C0E1FF46C0E2FF0B
:1020100000C0E6FF01C0E6FF510E5C6E000E5D6E73
:10202000010E5E6E000E5F6E5FD7C00E5412000E82
:1020300055123FD05150000AD8B400D751506C0A05
:10204000D8B402D751504C0AD8B4FED65150660AC3
:10205000D8B4FCD65150450AD8B4FAD65150650AC6
:10206000D8B4F7D65150670AD8B4F5D651506F0A94
:10207000D8B4F3D65150640AD8B4F1D65150690A95
:10208000D8B4EDD65150700AD8B4EAD65150580A97
:10209000D8B4E6D65150780AD8B4E3D65150730A72
:1020A000D8B4E1D65150630A97E05150750ABDE0AB
:1020B000B3D7000E5414006E5550070B016E00503C
:1020C0000110D8B439EF19F055A804D0060E4F6EA0
:1020D000000E506E45C0E9FF46C0EAFFEECF00F0AB
:1020E000EECF01F000C0E9FF01C0EAFFEECF56F0ED
:1020F000EECF57F0EECF58F0EECF59F045C0E9FFE4
:1021000046C0EAFF040EEE24006E000EEE20016EC3
:1021100045C0E1FF46C0E2FF00C0E6FF01C0E6FFA8
:10212000046A056A066A076A56C000F057C001F0E3
:1021300058C002F059C003F06AEC07F0010ED8B0A5
:10214000000E006E005205E0587E030E5412000E81
:1021500055125A6A5B6A56C000F057C001F058C069
:1021600002F059C003F0046A056A066A076AA9DC2E
:10217000000ED8A4010E006E0052D8B489D059C008
:1021800000F0016A026A036AFF0E0016000E0116D3
:102190007E0E005E000E015A00C05AF001C05BF0D6
:1021A000010E005E000E015A00C05AF001C05BF043
:1021B000030E046E000E056E41EC08F000C05AF0EC
:1021C00001C05BF00A0E046E000E056ED1EC07F044
:1021D00000C05AF001C05BF0800E0118026E800E44
:1021E000025C02E1000E005C04E2010E5A5E000E89
:1021F0005B5A5A5000080001606F69EC08F056C045
:1022000004F057C005F058C006F059C007F083EC41
:1022100001F000C05CF001C05DF002C05EF003C0E0
:102220005FF0000E046E000E056E000E066E7F0E4F
:10223000076E5CC000F05DC001F05EC002F05FC0E0
:1022400003F06AEC07F0010ED8B0000E006E0052E9
:1022500005E0010E5A5E000E5B5A1AD0000E046EA5
:10226000000E056E200E066E820E076E5CC000F03A
:102270005DC001F05EC002F05FC003F06AEC07F0E1
:10228000000ED8B0010E006E005202E05A4A5B2ADE
:10229000800E006E800E5B18005C02E15A50000850
:1022A00003E3010E516E02D05AC051F055B018D060
:1022B00055A215D0800E5B18006E7F0E005C02E107
:1022C000FC0E5A5C0BE3800E5B18006E800E5018FB
:1022D000005C02E14F505A5C01E201D001D0F4D31E
:1022E0004F50501006E055A204D0010E4F5E000E74
:1022F000505A000E006E5050005C02E14F5008082A
:1023000003E2080E516E02D04FC051F056C000F0EB
:1023100057C001F058C002F059C003F0046A056AC2
:10232000066A076A61EC0DF0000ED8A4010E006E7B
:102330000052D8B448D15AC060F069EC08F000C02F
:1023400004F001C005F002C006F003C007F056C05B
:1023500000F057C001F058C002F059C003F0ACECD7
:1023600006F000C056F001C057F002C058F003C09C
:1023700059F0515000080001606F69EC08F000C08E
:1023800004F001C005F002C006F003C007F056C01B
:1023900000F057C001F058C002F059C003F0ACEC97
:1023A00006F000C063F001C064F002C065F003C035
:1023B00066F063C056F064C057F065C058F066C060
:1023C00059F063C000F064C001F065C002F066C05F
:1023D00003F084EC04F099EC06F000C004F001C0B6
:1023E00005F002C006F003C007F063C000F064C04F
:1023F00001F065C002F066C003F095EC06F0000E37
:10240000046E000E056E000E066E7E0E076E6AEC00
:1024100007F0000ED8B0010E006E00521AE056C050
:1024200000F057C001F058C002F059C003F0000E90
:10243000046E000E056E000E066E7E0E076E62ECD8
:1024400002F000C056F001C057F002C058F003C0BF
:1024500059F056C000F057C001F058C002F059C002
:1024600003F084EC04F05150010F096E0A6A000E6B
:102470000A2209C004F00AC005F0000E0ABEFF0ED1
:10248000066E076E043604900536063607360436A7
:102490000490053606360736F40E0424F66E3E0E1A
:1024A0000520F76E000E0620F86E0900F5CF05F046
:1024B0000900F5CF06F00900F5CF07F00900F5CFC8
:1024C00008F00850035C08E10750025C05E1065083
:1024D000015C02E10550005C1DE356C000F057C0EE
:1024E00001F058C002F059C003F0CD0E046ECC0EBE
:1024F000056E4C0E066E7B0E076E83EC01F000C07D
:1025000056F001C057F002C058F003C059F05A4AC3
:102510005B2A59D056C000F057C001F058C002F0F5
:1025200059C003F084EC04F051C004F0000E056EB5
:10253000066E076E043604900536063607360436F6
:102540000490053606360736F40E0424F66E3E0E69
:102550000520F76E000E0620F86E0900F5CF05F095
:102560000900F5CF06F00900F5CF07F00900F5CF17
:1025700008F00850035C08E10750025C05E10650D2
:10258000015C02E10550005C1EE256C000F057C03D
:1025900001F058C002F059C003F0000E046E000EA6
:1025A000056E200E066E820E076E83EC01F000C0F1
:1025B00056F001C057F002C058F003C059F0010EA8
:1025C0005A5E000E5B5A55A294D055B692D0800E3A
:1025D000000A006E800E5018005C02E14F500A089D
:1025E00004E20A0E4F6E000E506E56C000F057C047
:1025F00001F058C002F059C003F084EC04F000C0B0
:102600005CF001C05DF002C05EF003C05FF05C50A2
:102610005D105E105F1042E00A0E046E000E056E43
:10262000066E076E5CC000F05DC001F05EC002F097
:102630005FC003F01FEC05F008C000F009C001F016
:102640000AC002F00BC003F0000E046E031808E18C
:102650000450021805E10450011802E10050000A7C
:102660001DE1010E4F5E000E505A0A0E046E000E60
:10267000056E066E076E5CC000F05DC001F05EC0C6
:1026800002F05FC003F01FEC05F000C05CF001C079
:102690005DF002C05EF003C05FF0B9D7800E501845
:1026A000006E800E005C02E151504F5C22E24F5000
:1026B000515C0001606F69EC08F000C004F001C0DB
:1026C00005F002C006F003C007F056C000F057C086
:1026D00001F058C002F059C003F0ACEC06F000C0A5
:1026E00056F001C057F002C058F003C059F04FC077
:1026F00051F0050E4F24006E000E5020016E005068
:10270000525E0150535A4F50501003E155B601D05C
:1027100004D0010E525E000E535A030E5414006E84
:1027200055C001F0000E01160050011004E0010E2A
:10273000525E000E535A54A43CD054A213D054A05D
:1027400003D02D0E476E02D02B0E476E40C0E1FF26
:1027500041C0E2FF47C0E6FF404A412A0001614B09
:10276000622B0DD054A00BD0000140C0E1FF41C04E
:10277000E2FF200EE66E404A412A614B622B800E3A
:10278000006E800E5318005C02E15250000810E207
:10279000000140C0E1FF41C0E2FF300EE66E404A5A
:1027A000412A614B622B010E525E000E535AE7D74D
:1027B0003DD054B619D0800E006E800E5318005CC8
:1027C00002E15250000810E2000140C0E1FF41C0A8
:1027D000E2FF200EE66E404A412A614B622B010E59
:1027E000525E000E535AE7D754A213D054A003D020
:1027F0002D0E486E02D02B0E486E000140C0E1FF46
:1028000041C0E2FF48C0E6FF404A412A614B622BCB
:102810000DD054A00BD0000140C0E1FF41C0E2FF49
:10282000200EE66E404A412A614B622B000156C0E1
:1028300000F057C001F058C002F059C003F084EC1A
:1028400004F000C05CF001C05DF002C05EF003C0A7
:102850005FF051C000F0000E016E026E036E003694
:1028600000900136023603360036009001360236FB
:102870000336F40E0024F66E3E0E0120F76E000EB5
:102880000220F86E0900F5CF04F00900F5CF05F03D
:102890000900F5CF06F00900F5CF07F05CC000F0A5
:1028A0005DC001F05EC002F05FC003F01FEC05F0F8
:1028B000300E002640C0E1FF41C0E2FF00C0E6FF4D
:1028C000404A412A614B622B4F50501003E155B6EC
:1028D00001D06FD040C0E1FF41C0E2FF2E0EE66E96
:1028E000404A412A614B622B51504F5E000E505AB4
:1028F00051524DE0510651C000F0000E016E026EC3
:10290000036E003600900136023603360036009022
:10291000013602360336F40E0024F66E3E0E012018
:10292000F76E000E0220F86E0900F5CF04F00900E2
:10293000F5CF05F00900F5CF06F00900F5CF07F057
:102940005CC000F05DC001F05EC002F05FC003F04B
:102950001FEC05F00A0E046E000E056E066E076E83
:102960001FEC05F008C000F009C001F00AC002F039
:102970000BC003F0300E002640C0E1FF41C0E2FF73
:1029800000C0E6FF404A412A614B622BB1D74F504D
:1029900050100FE040C0E1FF41C0E2FF300EE66E94
:1029A000404A412A614B622B010E4F5E000E505A85
:1029B000EED754AA0BD040C0E1FF41C0E2FF450E64
:1029C000E66E404A412A614B622B0AD040C0E1FFCB
:1029D00041C0E2FF650EE66E404A412A614B622B20
:1029E000800E5B18006E800E005C02E1000E5A5CE7
:1029F00011E25A5000085A6E5B50000E5B5640C000
:102A0000E1FF41C0E2FF2D0EE66E404A412A614BD4
:102A1000622B0AD040C0E1FF41C0E2FF2B0EE66E00
:102A2000404A412A614B622B0A0E046E000E056E6D
:102A30005AC000F05BC001F0D1EC07F0300E002668
:102A400040C0E1FF41C0E2FF00C0E6FF404A412A2A
:102A50000001614B622B0A0E046E000E056E5AC017
:102A600000F05BC001F0D1EC07F008C000F009C035
:102A700001F0300E002640C0E1FF41C0E2FF00C07F
:102A8000E6FF404A412A0001614B622B54A61AD04E
:102A9000800E006E800E5318005C02E15250000858
:102AA00011E240C0E1FF41C0E2FF200EE66E404A65
:102AB000412A614B622B010E525E000E535A525056
:102AC0005310EFE17DEF0DF055A2F4D0800E5B18AE
:102AD000006E800E005C02E1000E5A5C0AE2010EFC
:102AE0005A5C006E000E5B58016E00504F5E015044
:102AF000505A56C000F057C001F058C002F059C0FB
:102B000003F084EC04F000C05CF001C05DF002C092
:102B10005EF003C05FF0010E516E51500A0A34E0BE
:102B200051C000F0000E016E026E036E0036009080
:102B3000013602360336003600900136023603367F
:102B4000F40E0024F66E3E0E0120F76E000E0220F9
:102B5000F86E0900F5CF01F00900F5CF02F0090089
:102B6000F5CF03F00900F5CF04F004505F5C08E1F5
:102B700003505E5C05E102505D5C02E101505C5C6B
:102B800001E202D0512AC9D7000151504F5C676F52
:102B9000000E5058686F67C04FF068C050F05CC0BE
:102BA00000F05DC001F05EC002F05FC003F099EC80
:102BB00006F000C004F001C005F002C006F003C03A
:102BC00007F056C000F057C001F058C002F059C0DD
:102BD00003F095EC06F000C063F001C064F002C0A1
:102BE00065F003C066F067C060F069EC08F063C090
:102BF00004F064C005F065C006F066C007F083EC21
:102C000001F0000E046E000E056E000E066E7E0EC4
:102C1000076E62EC02F084EC04F000C05CF001C0CE
:102C20005DF002C05EF003C05FF04F50501042E014
:102C30000A0E046E000E056E066E076E5CC000F094
:102C40005DC001F05EC002F05FC003F01FEC05F054
:102C500008C000F009C001F00AC002F00BC003F088
:102C6000000E046E031808E10450021805E1045038
:102C7000011802E10050000A1DE10A0E046E000E68
:102C8000056E066E076E5CC000F05DC001F05EC0B0
:102C900002F05FC003F01FEC05F000C05CF001C063
:102CA0005DF002C05EF003C05FF0010E4F5E000EEB
:102CB000505ABBD7800E006E800E5018005C02E1A7
:102CC0004F500C0816E34FC060F047EC0BF056C0B5
:102CD00004F057C005F058C006F059C007F062EC88
:102CE00002F000C056F001C057F002C058F003C017
:102CF00059F056C000F057C001F058C002F059C05A
:102D000003F0046A056A066A076A61EC0DF0000EBA
:102D1000D8A4010E006E0052D8B474D056C000F092
:102D200057C001F058C002F059C003F084EC04F021
:102D3000000E046E031808E10450021805E1045067
:102D4000011802E10050000A5DE1800E006E800E65
:102D50005B18005C02E15A50010854E25AC060F06E
:102D600069EC08F000C004F001C005F002C006F0F4
:102D700003C007F056C000F057C001F058C002F081
:102D800059C003F0ACEC06F05F0E046E700E056ED9
:102D9000090E066E810E076E6AEC07F0010ED8B0C0
:102DA000000E006E005205E0090E5A5E000E5B5ADE
:102DB00004D0080E5A5E000E5B5A5AC060F069ECEF
:102DC00008F000C004F001C005F002C006F003C026
:102DD00007F056C000F057C001F058C002F059C0CB
:102DE00003F0ACEC06F084EC04F000C05CF001C031
:102DF0005DF002C05EF003C05FF0566A576A586A21
:102E0000596A38D056C000F057C001F058C002F0DF
:102E100059C003F084EC04F000C05CF001C05DF028
:102E200002C05EF003C05FF05CC000F05DC001F066
:102E30005EC002F05FC003F099EC06F000C004F041
:102E400001C005F002C006F003C007F056C000F054
:102E500057C001F058C002F059C003F095EC06F0DD
:102E600000C056F001C057F002C058F003C059F03E
:102E70005A6A5B6A010E516E51500A0A34E051C021
:102E800000F0000E016E026E036E003600900136F7
:102E90000236033600360090013602360336F40E51
:102EA0000024F66E3E0E0120F76E000E0220F86E32
:102EB0000900F5CF01F00900F5CF02F00900F5CFC8
:102EC00003F00900F5CF04F004505F5C08E1035003
:102ED0005E5C05E102505D5C02E101505C5C01E278
:102EE00002D0512AC9D751504F24006E000E5020F5
:102EF000016E5A5000265B5001220050525E015074
:102F0000535A55B604D04F50501001E104D0010E71
:102F1000525E000E535A030E5414006E55C001F059
:102F2000000E01160050011004E0010E525E000E6A
:102F3000535A54A43CD054A213D054A003D02D0E05
:102F4000496E02D02B0E496E40C0E1FF41C0E2FF46
:102F500049C0E6FF404A412A0001614B622B0DD077
:102F600054A00BD0000140C0E1FF41C0E2FF200EA1
:102F7000E66E404A412A614B622B800E006E800E45
:102F80005318005C02E15250000810E2000140C0FA
:102F9000E1FF41C0E2FF300EE66E404A412A614B3C
:102FA000622B010E525E000E535AE7D73DD054B645
:102FB00019D0800E006E800E5318005C02E1525052
:102FC000000810E2000140C0E1FF41C0E2FF200E16
:102FD000E66E404A412A614B622B010E525E000EA2
:102FE000535AE7D754A213D054A003D02D0E4A6EE3
:102FF00002D02B0E4A6E000140C0E1FF41C0E2FF4B
:103000004AC0E6FF404A412A614B622B0DD054A0D2
:103010000BD0000140C0E1FF41C0E2FF200EE66E90
:10302000404A412A614B622B51C000F051060052C8
:103030004DE0000151C000F0000E016E026E036E03
:103040000036009001360236033600360090013615
:1030500002360336F40E0024F66E3E0E0120F76EA3
:10306000000E0220F86E0900F5CF04F00900F5CF3C
:1030700005F00900F5CF06F00900F5CF07F05CC0B8
:1030800000F05DC001F05EC002F05FC003F01FEC15
:1030900005F00A0E046E000E056E066E076E1FEC3C
:1030A00005F008C000F009C001F00AC002F00BC032
:1030B00003F0300E002640C0E1FF41C0E2FF00C037
:1030C000E6FF404A412A614B622BAED7800E006E6C
:1030D000800E5B18005C02E15A50000810E200010B
:1030E00040C0E1FF41C0E2FF300EE66E404A412A97
:1030F000614B622B010E5A5E000E5B5AE7D7800EC1
:10310000000A006E800E5018005C02E14F50080863
:1031100003E2080E516E02D04FC051F051504F5E85
:10312000000E505A515203E155B601D00BD00001A8
:1031300040C0E1FF41C0E2FF2E0EE66E404A412A48
:10314000614B622B51C060F069EC08F056C004F08E
:1031500057C005F058C006F059C007F083EC01F0E5
:10316000C8EC0CF000C05CF001C05DF002C05EF085
:1031700003C05FF051524DE0510651C000F0000E07
:10318000016E026E036E0036009001360236033681
:1031900000360090013602360336F40E0024F66E37
:1031A0003E0E0120F76E000E0220F86E0900F5CFEA
:1031B00004F00900F5CF05F00900F5CF06F009008D
:1031C000F5CF07F05CC000F05DC001F05EC002F01A
:1031D0005FC003F01FEC05F00A0E046E000E056ED2
:1031E000066E076E1FEC05F008C000F009C001F084
:1031F0000AC002F00BC003F0300E002640C0E1FF11
:1032000041C0E2FF00C0E6FF404A412A614B622B09
:10321000B1D74F5050100FE040C0E1FF41C0E2FF76
:10322000300EE66E404A412A614B622B010E4F5E22
:10323000000E505AEED754A61AD0800E006E800EA3
:103240005318005C02E15250000811E240C0E1FF57
:1032500041C0E2FF200EE66E404A412A614B622BDC
:10326000010E525E000E535A52505310EFE17DEFA3
:103270000DF0C00E5414016E55C002F0000E02167F
:10328000000E021802E1000E0118D8A480D054A844
:1032900027D045C0E9FF46C0EAFFEECF00F0EECFF1
:1032A00001F000C0E9FF01C0EAFFEECF5CF0EECF15
:1032B0005DF0EECF5EF0EECF5FF045C0E9FF46C0B7
:1032C000EAFF040EEE24006E000EEE20016E45C0F3
:1032D000E1FF46C0E2FF00C0E6FF01C0E6FF2FD0DD
:1032E00045C0E9FF46C0EAFFEECF00F0EECF01F0A7
:1032F00000C0E9FF01C0EAFFEECF00F0EECF01F021
:10330000000E01BEFF0E026E036E00C05CF001C035
:103310005DF002C05EF003C05FF045C0E9FF46C04B
:10332000EAFF020EEE24006E000EEE20016E45C094
:10333000E1FF46C0E2FF00C0E6FF01C0E6FF800EED
:103340005F18006E800E005C08E1000E5E5C05E117
:10335000000E5D5C02E1000E5C5C18E2030E54128C
:10336000000E5512006A016A026A036A5C50005E30
:103370005D50015A5E50025A5F50035A00C05CF023
:1033800001C05DF002C05EF003C05FF04ED054A8F3
:1033900027D045C0E9FF46C0EAFFEECF00F0EECFF0
:1033A00001F000C0E9FF01C0EAFFEECF5CF0EECF14
:1033B0005DF0EECF5EF0EECF5FF045C0E9FF46C0B6
:1033C000EAFF040EEE24006E000EEE20016E45C0F2
:1033D000E1FF46C0E2FF00C0E6FF01C0E6FF25D0E6
:1033E00045C0E9FF46C0EAFFEECF00F0EECF01F0A6
:1033F00000C0E9FF01C0EAFFEECF5CF0EECF5DF068
:10340000000E5E6E5F6E45C0E9FF46C0EAFF020E29
:10341000EE24006E000EEE20016E45C0E1FF46C0B6
:10342000E2FF00C0E6FF01C0E6FF000E501802E117
:10343000000E4F180FE1000E006E5F1808E10050FB
:103440005E1805E100505D1802E15C50000A02E1DF
:103450004F4A502AC00E5414006E00C005F0AED082
:10346000010E516E51500A0A34E051C000F0000EB6
:10347000016E026E036E003600900136023603368E
:1034800000360090013602360336F40E0024F66E44
:103490003E0E0120F76E000E0220F86E0900F5CFF7
:1034A00001F00900F5CF02F00900F5CF03F00900A3
:1034B000F5CF04F004505F5C08E103505E5C05E169
:1034C00002505D5C02E101505C5C01E202D0512AD5
:1034D000C9D782D0010E516E5150080A34E051C054
:1034E00000F0000E016E026E036E00360090013691
:1034F00002360336003600900136023603361C0EC3
:103500000024F66E3F0E0120F76E000E0220F86ECA
:103510000900F5CF01F00900F5CF02F00900F5CF61
:1035200003F00900F5CF04F004505F5C08E103509C
:103530005E5C05E102505D5C02E101505C5C01E211
:1035400002D0512AC9D748D0010E516E51500C0AF1
:1035500034E051C000F0000E016E026E036E0036C2
:1035600000900136023603360036009001360236EE
:103570000336C40E0024F66E3E0E0120F76E000ED8
:103580000220F86E0900F5CF01F00900F5CF02F036
:103590000900F5CF03F00900F5CF04F004505F5C9B
:1035A00008E103505E5C05E102505D5C02E1015000
:1035B0005C5C01E202D0512AC9D70ED00550000A46
:1035C000D8B44ED70550C00AD8B44AD70550800A9F
:1035D00081E00550400AB8E0800E006E800E501861
:1035E000005C02E14F50515C03E24FC051F00DD03E
:1035F000800E5018006E800E005C02E151504F5C4E
:1036000004E251C04FF0000E506E525053100EE0C5
:10361000030E5414006E55C001F0000E0116005048
:10362000011004E0010E525E000E535A800E501835
:10363000006E800E5318005C02E152504F5C05E2B0
:103640004F50525E5050535A02D0526A536AC40EC1
:103650005414016E5550080B026E0250080A02E124
:10366000400E011808E15250531004E0010E525E62
:10367000000E535A1CD0C00E5414016E5550080B46
:10368000026E0250080A02E1800E011810E1800E5D
:10369000006E800E5318005C02E15250020805E2F1
:1036A000020E525E000E535A02D0526A536A54A45C
:1036B00061D054A213D054A003D02D0E4B6E02D073
:1036C0002B0E4B6E000140C0E1FF41C0E2FF4BC03A
:1036D000E6FF404A412A614B622B36D054A00CD001
:1036E000000140C0E1FF41C0E2FF200EE66E404A0B
:1036F000412A614B622B28D0C00E5414016E5550E4
:10370000080B026E0250080A02E1800E01181CE14B
:10371000000140C0E1FF41C0E2FF300EE66E404ACA
:10372000412A614B622B54AA03D0580E4C6E02D032
:10373000780E4C6E40C0E1FF41C0E2FF4CC0E6FF96
:10374000404A412A614B622B5250531012E0000153
:1037500040C0E1FF41C0E2FF300EE66E404A412A20
:10376000614B622B010E525E000E535A52505310A1
:10377000EEE179D05250531014E054B612D000014B
:1037800040C0E1FF41C0E2FF200EE66E404A412A00
:10379000614B622B010E525E000E535A5250531071
:1037A000EEE154A213D054A003D02D0E4D6E02D0E2
:1037B0002B0E4D6E000140C0E1FF41C0E2FF4DC045
:1037C000E6FF404A412A614B622B0DD054A00BD03A
:1037D000000140C0E1FF41C0E2FF200EE66E404A1A
:1037E000412A614B622BC00E5414016E5550080BD8
:1037F000026E0250080A02E1400E01180CE10001BD
:1038000040C0E1FF41C0E2FF300EE66E404A412A6F
:10381000614B622B28D0C00E5414016E5550080B1A
:10382000026E0250080A02E1800E01181CE100013C
:1038300040C0E1FF41C0E2FF300EE66E404A412A3F
:10384000614B622B54AA03D0580E4E6E02D0780EF4
:103850004E6E40C0E1FF41C0E2FF4EC0E6FF404A6D
:10386000412A614B622B800E006E800E5018005C66
:1038700002E14F50515C0CE2000140C0E1FF41C049
:10388000E2FF300EE66E404A412A614B622BEBD7D5
:103890004FC000F050C001F0010E4F5E000E505AB4
:1038A00000500110D8B42CD1C00E5414006E00C0CA
:1038B00063F00AD14FC000F050C001F0000E50BEBE
:1038C000FF0E026E036E003600900136023603369C
:1038D00000360090013602360336F40E0024F66EF0
:1038E0003E0E0120F76E000E0220F86E0900F5CFA3
:1038F00004F00900F5CF05F00900F5CF06F0090046
:10390000F5CF07F05CC000F05DC001F05EC002F0D2
:103910005FC003F01FEC05F00A0E046E000E056E8A
:10392000066E076E1FEC05F008C000F009C001F03C
:103930000AC002F00BC003F0300E0024516ED4D048
:1039400054AA45D04FC000F050C001F0000E50BE48
:10395000FF0E026E036E003600900136023603360B
:10396000003600900136023603361C0E0024F66E37
:103970003F0E0120F76E000E0220F86E0900F5CF11
:1039800004F00900F5CF05F00900F5CF06F00900B5
:10399000F5CF07F05CC000F05DC001F05EC002F042
:1039A0005FC003F01FEC05F00F0E0016000E0116AD
:1039B000021603164D0E0024F66E3F0E0120F76E20
:1039C000000E0220F86E0900F5CF51F044D04FC030
:1039D00000F050C001F0000E50BEFF0E026E036EEC
:1039E000003600900136023603360036009001366C
:1039F000023603361C0E0024F66E3F0E0120F76ED1
:103A0000000E0220F86E0900F5CF04F00900F5CF92
:103A100005F00900F5CF06F00900F5CF07F05CC00E
:103A200000F05DC001F05EC002F05FC003F01FEC6B
:103A300005F00F0E0016000E0116021603163C0EBE
:103A40000024F66E3F0E0120F76E000E0220F86E85
:103A50000900F5CF51F048D04FC000F050C001F040
:103A6000000E50BEFF0E026E036E0036009001364F
:103A70000236033600360090013602360336C40E95
:103A80000024F66E3E0E0120F76E000E0220F86E46
:103A90000900F5CF04F00900F5CF05F00900F5CFD6
:103AA00006F00900F5CF07F05CC000F05DC001F042
:103AB0005EC002F05FC003F01FEC05F0070E0014BB
:103AC000516E300E512610D000016351000AD8B457
:103AD000F1D66351C00AD8B4EDD66351800AD8B488
:103AE0002FD76351400AB8E0000140C0E1FF41C058
:103AF000E2FF51C0E6FF404A412A614B622BC8D623
:103B000054A61BD0800E006E800E5318005C02E19C
:103B10005250000812E2000140C0E1FF41C0E2FF44
:103B2000200EE66E404A412A614B622B010E525E26
:103B3000000E535A52505310EEE17DEF0DF061C06C
:083B400000F062C001F0120068
:103B4800340E3E6E000E3F6E2FC040F030C041F084
:103B580031C042F032C043F033C044F03E0E456EEF
:103B6800000E466E78EC0DF000C03CF001C03DF050
:103B780000502F24E16E01503020E26EE66A3CC00E
:083B880000F03DC001F0120045
:103B9000300E0E01C26FCA6B900ED56E400ED66EFF
:103BA000060ED46ED36A030E0F011B6F030E1C6F3B
:0C3BB0001A6B0E01CA9BC00EF26E1200D0
:103BBC00818E0900F5CFE6FF0006FBE10106F9E175
:023BCC001200E5
:103BCE000F0E0F01596F216B2E6B116B030E8A6E48
:103BDE008C6A800E886E8F6A916A100E8D6E856A61
:103BEE00876A100E836E030E206F030E1D6F396BE6
:043BFE00356B120011
:103C020022C000F00032009E00502218286E296A5D
:103C1200000E291A000E296E2A0E2F6E000E306E2B
:103C2200670E316E3F0E326E000E336E030E006E63
:103C320028C034F029C035F0005007E03532343264
:103C4200359E35BC358EFF0FF8D7010E3416000EA7
:103C5200351628C036F029C037F037323632379E53
:103C620037BC378E37323632379E37BC378E010E2D
:103C72003616000E371628C038F029C039F039320E
:103C82003832399E39BC398E010E3816000E39167B
:103C920028C03AF029C03BF0010E3A16000E3B163E
:103CA20052DF25D008D023A203D0010E006E26D009
:103CB200630E006E23D02B50310AF5E01ED010D0D7
:103CC20023A203D0020E006E19D0630E006E16D02E
:103CD20023A203D0030E006E11D0630E006E0ED02D
:103CE2002B50310AEDE02B50300AF2E006D02A5078
:0E3CF200300AD8E02A50310AE2E0006A1200DF
:103D000020A808D08FA003D0209A208602D0208A35
:103D100020960CD020A008D08FA203D02390208E14
:0E3D200002D02380209E02D020982090120016
:103D2E00B8EC1FF02EDF4CDFE4DF25C024F085D089
:103D3E0020AA2BD020D020942082209C020E226E0E
:103D4E00010E256E22D020942092208C030E226E1E
:103D5E00010E256E1AD020842092209C010E226E18
:103D6E00010E256E12D020842092209C010E226E10
:103D7E00010E256E0AD02150010ADDE02150020A03
:103D8E00E2E02150030AE7E0EED75FD0238242D073
:103D9E0020A413D022C026F0000E276E2BDF005079
:103DAE00010A03E1838A87808792010E216E20A685
:103DBE0003D0256A209401D0208435D020A213D0C0
:103DCE0022C026F0000E276E15DF0050020A03E116
:103DDE00839A87808782020E216E20A603D0256AE1
:103DEE00209201D020821FD020AC13D022C026F00A
:103DFE00000E276EFFDE0050030A03E1838A8790D0
:103E0E008782030E216E20A603D0256A209C01D046
:103E1E00208C09D02250010ABBE02250020ACEE0CB
:103E2E002250030AE1E011D0256A246A20942092E0
:103E3E00209C226A020E216E08D02450000AD8B4AB
:0E3E4E0077D72450010AA2E0EFD76ED7FFD736
:103F700010EE17F0090E006E010E016E5E0EF66E69
:0E3F80003F0EF76E000EF86EDEEC1DF0120024
:103E5C000000007F000020820000488500007A8866
:103E6C0000401C8C0050438F00247492809618964E
:103E7C0020BC3E99286B6E9CF90215A0EC782DC1E4
:043E8C00CAF249E24B
:103E90000000007FCDCC4C7B0AD723786F120375CE
:103EA00017B75171ACC5276EBD37066B95BF566706
:103EB00077CC2B645F700961FFE65B5D08E53C3CF5
:043EC0006042221B1F
:103EC40001000000080000004000000000020000A3
:103ED400001000000080000000000400000020002A
:103EE4000000000100000008000000400000000085
:103EF400010000000A00000064000000E803000064
:103F040010270000A086010040420F008096980010
:083F140000E1F50500CA9A3B2B
:103F1C000100000010000000000100000010000073
:103F2C000000010000001000000000010000001063
:103F3C003031323334353637383961626364656613
:013F4C000074
:103F4D0030313233343536373839414243444546C2
:013F5D000063
:073F5E00286E756C6C290050
:023F650000005A
:093F6700257525752575257500E9
:020000040030CA
:0C0000007229E3BF7F3FFF170300FF02DF
:00000001FF
