:10000000AFEF00F0FFFFFFFF00C015F00E01CAAB1D
:1000100005D0CA9B0B0ED46EDC0ED36ECDAB02D0D6
:10002000837A6CD815C000F01100100E836E846ABC
:10003000856A866A876ACF0E886EC80E896EFF0E43
:100040008A6EFF0E8B6E8C6ACF0E0F01116FC00E81
:10005000196F216B266B2E6B106B186B206B256B49
:100060002D6BFF0E0E6FFF0E166FFF0E1E6FFF0E35
:10007000236F070E2B6FFF0E0D6FFF0E156FFF0E18
:100080001D6FFF0E226F070E2A6F090E0E01F36F10
:100090000B0EB56F1200C00EF26E900ED56E430EB1
:1000A000D66E0B0ED46EDC0ED36E010EBF6EBE6A22
:1000B000C06A4D0EBC6EBB6AE00EBD6E0E01CA6B0F
:1000C000200EC56FCD6BCE6B1200700E0E01D86F77
:1000D000800EDC6F1200580E9F6E900E9D6E260EE5
:1000E0009E6E030E9B6E010E9C6E12000900F5CFF2
:1000F000E6FF0006FBE10106F9E11200160EE16ED3
:10010000000EE26E2F50E126D8B0E22A99CFE6FF2A
:100110002F50010F006E00C02FF0010E316E180E2F
:100120002F5C06E32F6A010E306E316A326A336A41
:10013000120034C0E9FF35C0EAFFEE5209E034C0D6
:10014000E9FF35C0EAFFEECF9AFF344A352AF1D7EE
:100150001200A1DF6ADFB9DFBEDF83781200F9DFAA
:10016000030E0B6E8A0E0C6E550E0D6E0D2EFED705
:100170000C2EFCD70B2EFAD700000000480E346E70
:10018000000E356ED6DF2F6A0E01CEA319D0BB6AE2
:10019000315216E0010E3224006E000E3320016E43
:1001A00000C032F001C033F0800E3318006E800EB4
:1001B000005C02E1640E325C03E3326A336A2F6A48
:1001C000305202E0306A8378DFD7FFD7FFFFFFFFAE
:020000040030CA
:0C0000007229E3BF7F3FFF170300FF02DF
:00000001FF
