:0400000025EF01F0F7
:1000080000C015F08FCF17F0000E186E060E006EA8
:10001800005005E0173617901836FF0FFAD70F0172
:100028001AA106D00E01C2A903D00F011A91198690
:100038000F011AA306D00E01C2A903D00F011A930B
:08004800198815C000F0110039
:10005000300E0E01C26FCA6B900ED56E460ED66E74
:10006000E80ED46E490ED36E030E0F011B6F030E04
:0E0070001C6F1A6B0E01CA9BC00EF26E1200BE
:10007E0019A609D08FA003D01994198A02D0198419
:10008E00199A19960AD019A808D08FA203D01992DE
:0C009E00198002D01982199019981200E4
:1000AA001AC016F091D0839A879087928784839892
:1000BA001B9419A405D01BA203D0060E1A6E00D0F9
:1000CA009AD0838A878087921B881B96199E19AAC1
:1000DA0004D01BA202D01A6A07D019A205D01BA20B
:1000EA0003D0040E1A6E00D086D0839A8780878246
:1000FA001B981B86199E19AA04D01BA202D01A6A41
:10010A0007D019A205D01BA203D0040E1A6E00D084
:10011A0072D0838A879087821B981B96198E19AA98
:10012A0004D01BA202D01A6A07D019A205D01BA2BA
:10013A0003D0040E1A6E00D05ED0838A878087822D
:10014A0019A006D01BA204D0050E1A6E1B8400D07B
:10015A0052D01BA407D01BA805D01BA203D0020EA5
:10016A001A6E12D01BA407D01BA605D01BA203D05F
:10017A00030E1A6E09D01BA407D019AE05D01BA214
:10018A0003D0010E1A6E00D036D0879419A41BD062
:10019A001BA807D01BA205D0020E1A6E1B96199E29
:1001AA0012D01BA607D01BA205D0030E1A6E1B98ED
:1001BA00199E09D019AE07D01BA205D0010E1A6EDE
:1001CA001B981B9600D017D01650000AD8B46BD7CC
:1001DA001650010AD8B475D71650020A86E016508E
:1001EA00030A97E01650040AA8E01650050AB1E07F
:0801FA001650060ACAE01200CB
:10020200818E0900F5CFE6FF0006FBE10106F9E168
:020212001200D8
:100214000F0E0F01596F216B2E6B116B030E8A6E3B
:100224008C6A800E886E8F6A916A100E8D6E856A54
:10023400876A100E836E030E206F030E1D6F396BD9
:06024400356B1B80120067
:10024A00166A176A186AE1DFFEDE19AC04D01B8849
:0E025A001B96198E199C0EDF23DFFDD7FFD7F0
:020000040030CA
:0C0000002229E3BF7F3FFF170300FF022F
:00000001FF
