:0400000022EF01F0FA
:100008000F011AA106D00E01C2A903D00F011A913F
:1000180016880F011AA306D00E01C2A903D00F013A
:060028001A93168E110070
:10002E000F0E0F01596F216B2E6B116B030E8A6E23
:10003E008C6A800E886E8F6A916A100E8D6E856A3C
:10004E00876A100E836E030E206F030E1D6F396BC1
:04005E00356B1200EC
:1000620016A809D08FA003D01696168A02D016863B
:10007200169A16980DD016AE09D08FA203D0169CF0
:10008200168002D0168C1690169E02D01698169ED6
:0200920012005A
:100094009DD0839A87908792169216A605D016A4AF
:1000A40003D0060E176E00D0AAD0838A8780879269
:1000B40018801892189416AA04D016A402D0176AAD
:1000C40007D016AC05D016A403D0040E176E00D0CA
:1000D40096D0839A8780878218901882189416AADB
:1000E40004D016A402D0176A07D016AC05D016A403
:1000F40003D0040E176E00D082D0838A8790878243
:1001040018901892188416AA04D016A402D0176A5C
:1001140007D016AC05D016A403D0040E176E00D079
:100124006ED0838A8780878216AA04D016A402D050
:10013400176A08D016A006D016A404D0050E176EB0
:10014400168200D05CD016A207D018A005D016A441
:1001540003D0020E176E12D016A207D018A205D033
:1001640016A403D0030E176E09D016A207D018A444
:1001740005D016A403D0010E176E00D040D016A6E9
:100184001BD018A007D016A405D0020E176E189223
:10019400189412D018A207D016A405D0030E176E17
:1001A4001890189409D018A407D016A405D0010EED
:1001B400176E1890189200D022D0189018921884B4
:1001C400839A87908792156A176A19D01550000A86
:1001D400D8B45FD71550010AD8B467D71550020AAE
:1001E400D8B477D71550030A88E01550040A99E06B
:1001F4001550050AA8E01550060AC1E0DED7120022
:10020400818E0900F5CFE6FF0006FBE10106F9E166
:020214001200D6
:10021600300E0E01C26FCA6B900ED56E400ED66EB2
:100226003C0ED46EB00ED36E030E0F011B6F030E81
:0E0236001C6F1A6B0E01CA9BC00EF26E1200F6
:10024400E8DFF3DE0CDF16B8FDD716BEFBD717C008
:0802540015F01EDFFCD7FFD7F7
:020000040030CA
:0C0000007229C3AF7F3FFF170300FF020F
:00000001FF
