:0400000060EF00F0BD
:100008000F011AA106D00E01C2A903D00F011A913F
:1000180017860F011AA306D00E01C2A903D00F013B
:060028001A93178011007D
:10002E000F0E0F01596F216B2E6B116B030E8A6E23
:10003E008C6A800E886E8F6A916A100E8D6E856A3C
:10004E00876A100E836E030E206F030E1D6F396BC1
:04005E00356B1200EC
:1000620017A609D08FA003D01798178A02D0178835
:10007200179A17960DD017A009D08FA203D0179206
:10008200178402D017821794179002D017961790F0
:0200920012005A
:10009400300E0E01C26FCA6B030E0F011B6F030EED
:0A00A4001C6F1A6BC00EF26E120002
:1000AE00818E0900F5CFE6FF0006FBE10106F9E1BE
:0200BE0012002E
:1000C000156A030E166EE6DFB2DFCBDF0F011AB141
:1000D000FCD71AB3FAD739D0839A8790879217A89A
:1000E00011D0010E161803E1020E156E0BD0020E90
:1000F000161803E1030E156E05D0030E161802E163
:10010000010E156E2FD0838A87808792010E166E9E
:1001100017AA02D0156A00D025D0839A87808782DB
:10012000020E166E17AA02D0156A00D01BD0838A61
:1001300087908782030E166E17AA02D0156A00D028
:1001400011D0839A879087920DD01550000AC4E091
:100150001550010AD8E01550020ADFE01550030AD5
:08016000E6E0EFD7B8D7FFD7A6
:020000040030CA
:0C0000007229C3AF7F3FFF170300FF020F
:00000001FF
