:1000000083EF02F0FFFFFFFF00C019F001C018F0FE
:100010000BC017F00CC016F00DC015F00E01CAABE6
:100020001ED03C0ED46EB00ED36ECA9B010E22249D
:10003000006E000E2320016E00C022F001C023F0EC
:10004000800E2318006E800E005C02E1C80E225C58
:1000500006E38378F6D80E01C29B226A236A0F0159
:100060001AA138D01A91010E206E000E216E020ED8
:100070000B6E450E0C6EA90E0D6E0D2EFED70C2EBE
:10008000FCD70B2EFAD7000000008FA009D02A9CC5
:100090002A8A206A216A8FB402D0050E296E1AD0EE
:1000A000010E1C6E000E1D6E2A8C2A9A206A216A8F
:1000B0008FB20AD0040E296E8FB403D0050E296EBC
:1000C00002D0040E296E06D0070E296E8FB402D01E
:1000D000050E296E0F011AA32DD01A93010E246E5E
:1000E000000E256E030E0B6E8A0E0C6E550E0D6EF5
:1000F0000D2EFED70C2EFCD70B2EFAD700000000D9
:100100008FA20BD02A922D80246A256A8FB004D04A
:10011000010E1C6E000E1D6E0DD02A822D90040E55
:10012000296E246A256A8FB403D0050E296E02D089
:10013000040E296E0F011AA534D01A95010E266EF1
:10014000000E276E030E0B6E8A0E0C6E550E0D6E92
:100150000D2EFED70C2EFCD70B2EFAD70000000078
:100160008FA415D02A902A8E266A276A8FB008D0CD
:10017000010E1C6E000E1D6E010E1E6E000E1F6E17
:100180008FB204D0010E1A6E000E1B6E0AD02A80A8
:100190002A9E050E296E266A276A8FB002D0050EA8
:1001A000296E19C000F018C001F017C00BF016C07E
:1001B0000CF015C00DF01100080E606E0F01216BE0
:1001C0002E6B116B266B0F0E8A6E070E8B6E8C6A70
:1001D000800E886E8F6A906A916A100E8D6E856AA5
:1001E000866A876A100E836E070E256F070E226FD0
:1001F000396B356B2A882A962A941200300E0E012C
:10020000C26FCA6B900ED56E400ED66E3C0ED46E89
:10021000B00ED36E070E0F011B6F070E1C6F1A6B0B
:100220000E01CA9B020EC66FCE6B030ECF6ED06A54
:10023000010ED26E780ECD6EEC0ECE6EC00EF26E4A
:1002400012002A9A2D902A9E2A9C2A922A9041D006
:10025000010E296E1AD0040E296E06D0050E296EE5
:1002600007D0040E296E04D08FA4F8D78FB4F9D725
:1002700010D006D0050E296E07D0010E296E04D0CD
:100280008FA4F8D78FB4F9D704D08FA2E4D78FB258
:10029000F0D723D019D0040E296E06D0050E296E92
:1002A00007D0040E296E04D08FA4F8D78FB4F9D7E5
:1002B0000FD005D0050E296E06D0296A04D08FA470
:1002C000F9D78FB4FAD704D08FA2E5D78FB2F1D780
:1002D00004D08FA0BDD78FB0DDD71200CED0839AC7
:1002E000879087922AAC03D0070E296E00D0E3D006
:1002F000838A879087922A842A962A982AAA02D0EB
:10030000296A05D02AA203D0040E296E00D0D3D0CA
:10031000839A878087922A942A862A982AAA02D0CA
:10032000296A05D02AA203D0040E296E00D0C3D0BA
:10033000839A879087822A942A962A882AAA02D0AA
:10034000296A05D02AA203D0040E296E00D0B3D0AA
:10035000010E1A6E000E1B6E2AA40AD02AB608D00F
:100360002AB806D0838A878087922A962A9817D03F
:100370002AA60AD02AB408D02AB806D0839A878041
:1003800087822A942A980BD02AA809D02AB407D0A9
:100390002AB605D0838A879087822A942A962DA030
:1003A00003D0070E296E05D02AA003D0050E296EB2
:1003B00000D081D0838A878087822AAE03D0060E40
:1003C000296E00D078D01A501B1025E02AA40AD03C
:1003D0002AB608D02AB806D02A862A982A94040E6B
:1003E000296E18D02AA60AD02AB408D02AB806D076
:1003F0002A962A942A88040E296E0CD02AA80AD09C
:100400002AB408D02AB606D02A842A962A98040E3E
:10041000296E00D007D01E501F1003E0070E296E72
:1004200001D0296A48D02B6A2C6A8FB403D0050EFC
:10043000296E1FD01C501D101BE02AA407D02AB61D
:1004400005D02AB803D0020E296E11D02AA607D0F3
:100450002AB405D02AB803D0030E296E08D02AA8E2
:1004600006D02AB404D02AB602D0010E296E01D0DB
:10047000296A21D0286A296A1ED02850000AD8B4D7
:100480002ED72850010AD8B433D72850020AD8B43E
:100490003FD72850030AD8B44BD72850040AD8B401
:1004A00057D72850050A86E02850060A8CE02850C5
:1004B000070AB9E0DFD71200818E0900F5CFE6FF09
:1004C0000006FBE10106F9E112001A0E0B6E5E0E4A
:1004D0000C6E6E0E0D6E0D2EFED70C2EFCD70B2E55
:1004E000FAD700008BDE68DE1A0E0B6E5E0E0C6E05
:1004F0006E0E0D6E0D2EFED70C2EFCD70B2EFAD7DE
:1005000000009FDE12001A6A1B6A1C6A1D6A1E6ABE
:100510001F6A206A216A226A236A246A256A266A77
:10052000276AD3DF29C028F0D9DEFCD7FFD7FFFF29
:020000040030CA
:0C0000007229C3AF1F3FFF170300FF026F
:00000001FF
