:100000000EEF00F00000000000EF00F00000000024
:0A0010000000000000000000F3D71C
:10001C000F0E0F01596F216B2E6B116B030E8A6E35
:10002C008C6A886A8F6A916A100E8D6E856A876AEF
:10003C00100E836E030E206F030E1D6F1794179016
:10004C0017828FA007D0179418C015F019C016F09E
:10005C00178211D0178417A20ED0184A192A17929A
:10006C00800E006E800E1918005C02E11850030817
:10007C0002E2186A196A8FA202D0179001D0178079
:10008C0017A004D0838A8780878233D017A431D0FD
:10009C0012D0839A87908792838A8780879229D0FF
:1000AC00839A8780878225D0838A8790878221D004
:1000BC00156A166A1ED0000E161802E1000E1518ED
:1000CC00E8E0000E161802E1010E1518E5E0000E2E
:1000DC00161802E1020E1518E3E0000E161802E1E4
:1000EC00030E1518E1E0000E161802E1040E1518A7
:0600FC00DFE0A7D7FFD7EB
:020000040030CA
:0C0000007729E3BF7F3FFF170300FF02DA
:00000001FF
