:040000002DEF1EF0D2
:100008000F011AA106D00E01C2A903D00F011A913F
:1000180022860F011AA306D00E01C2A903D00F0130
:060028001A93228C110066
:10002E000B820BAE21EF00F00368026801680068D6
:08003E000A360232FF0E120027
:0E004600026A016A006A086A036A000E12006C
:100054000B840BAE35EF00F0010E036E026A016AE9
:0A006400006A0A360232FF0E120095
:08006E000AAE029E000E120012
:100076000CB07DEF00F00CA223EF01F00E6A000E2B
:10008600026494EF00F0F00E0214D8A45FEF00F0C3
:10009600023A01380F0B02260138F00B016E0038C8
:1000A6000F0B01260038F00B006E08380F0B0026E8
:1000B6000838F00B086E0E84D89002BE78EF00F078
:1000C60008360036013602360E2A02BE78EF00F0F8
:1000D60008360036013602360E2A02BE78EF00F0E8
:1000E60008360036013602360E2A0E50036419EF22
:1000F60001F0035E0BBC08AE1EEF01F0D880800E47
:1001060008640030000E002201220222D8A01EEF51
:1001160001F0023201320032034A23EF01F01EEFF2
:1001260001F001C002F000C001F008C000F0086A4A
:10013600000E0E860264CBEF00F0F00E0214D8A477
:10014600B3EF00F0023A01380F0B02260138F00B2C
:10015600016E00380F0B01260038F00B006E0E847E
:10016600D89002BE78EF00F00036013602360E2A2D
:1001760002BE78EF00F00036013602360E2A02BEC5
:1001860078EF00F00036013602360E2A78EF00F0DE
:1001960001C002F000C001F0006A000E0E960E8843
:1001A6000264F8EF00F0F00E0214D8A4E3EF00F0BA
:1001B600023A01380F0B02260138F00B016E0E844D
:1001C600D89002BE78EF00F0013602360E2A02BE43
:1001D60078EF00F0013602360E2A02BE78EF00F004
:1001E600013602360E2A78EF00F001C002F0016AED
:1001F600000E0E86026428EF01F0F00E0214D8A459
:1002060007EF01F0023A0E84D89002BE78EF00F0B4
:1002160002360E2A02BE78EF00F002360E2A02BE21
:1002260078EF00F002360E2A78EF00F0010E0C6E21
:100236000EDF2BEF01F0020E0C6E16DF2BEF01F036
:10024600040E0C6EF1DE2BEF01F0080E0C6EF8DEDC
:02025600120094
:100258000134083609360450085E0550D8A0053C1C
:10026800095E003601360F0E0C6E01340836093669
:10027800045000A006D0085E0550D8A0053C095ED1
:1002880005D008260550D8B0053C092600360136A9
:100298000C2EEBD700B006D0045008260550D8B075
:0802A800053C092600001200CC
:1002B0000B800BAE64EF01F0026A0AAEFF0E026E15
:0C02C000016E006E0A360232FF0E1200C2
:0802CC000B6A0B86FF0E120005
:1002D400086A096A000E07620364EFEF01F0025036
:1002E40006180A6E075003267E0ED8A080EF01F090
:1002F400035ED8B0F3EF01F084EF01F0035ED8A001
:10030400F7EF01F0028E068E02C00EF001C00BF072
:1003140000C00DF000500402F4CF0CF001500502AF
:10032400F4CF00F0F3CF08F00402F3500C26F4509D
:100334000822000E00220D500502F3500C26F45042
:100344000822000E002202500402F3500826F45042
:10035400002202500502016A000E0122F350002619
:10036400F45001220D500602F3500826F4500022E6
:10037400026A000E012202220B500602F3500026EC
:10038400F4500122000E02220E500602F350012600
:10039400F450022202BED7EF01F0083600360136CF
:1003A40002360306D8B4F7EF01F0EAEF01F0D88083
:1003B400800E08640030000E002201220222D8A020
:1003C400EAEF01F0023201320032034AF3EF01F0A6
:1003D4000AAE029E000EF9EF01F0010E32DEF9EFD3
:1003E40001F0020E22DEF9EF01F0040E31DE1200FC
:1003F4000D6A086A0050D8B4000C04180A6E0ABECC
:100404000D1E0B6A04AE02D0041E042A00AE02D0F4
:10041400001E002A005004100A6E0ABE1FD00450A9
:10042400085E003600340836045008260036060EEE
:100434000C6E00340836045000B0085E00A0082694
:1004440000360C2EF6D700A008260BB015D00DAE42
:10045400000C001E002A081E082A000C04AE09D055
:1004640000BE04D00050086E006AF1D7006A002A6A
:10047400000C001E0B2AD3D7082A0450085CD8A409
:0E048400E6D7086A002A00AEE2D7FF0C12008D
:10049200025006180E6E086A096A0B6A0350076456
:1004A2003CEF03F006500A6E068E028E03500B6E6E
:1004B2000750036E000E0B648CEF02F00B50075EC8
:1004C200D8B42DEF03F0070E0764FBEF02F0075ECE
:1004D20000C008F001C000F002C001F0026A074E3D
:1004E2002DEF03F00764D0EF02F0075E00C008F0C2
:1004F20001C000F0016A074E2DEF03F00764AEEF72
:1005020002F0075E00C008F0006A074E2DEF03F00C
:10051200076495EF02F00AC002F005C001F004C0C2
:1005220000F0086A59EF04F0030E0764A0EF02F02E
:10053200075E08380F0B086E074E2DEF03F0D890B8
:100542000832074E2DEF03F0D8900832074E2DEFF8
:1005520003F0D89008322DEF03F0030E0764BFEFCB
:1005620002F0075E08380F0B086E0038F00B082601
:1005720000380F0B006E074E2DEF03F0D8900032BB
:100582000832074E2DEF03F0D89000320832074EA2
:100592002DEF03F0D890003208322DEF03F0030E56
:1005A2000764E7EF02F0075E08380F0B086E0038A9
:1005B200F00B082600380F0B006E0138F00B0026F6
:1005C20001380F0B016E074E2DEF03F0D890013268
:1005D20000320832074E2DEF03F0D890013200327C
:1005E2000832074E2DEF03F0D89001320032083264
:1005F2002DEF03F0030E076418EF03F0075E0838CF
:100602000F0B086E0038F00B082600380F0B006E37
:100612000138F00B002601380F0B016E0238F00B87
:10062200012602380F0B026E074E2DEF03F0D89011
:100632000232013200320832074E2DEF03F0D89019
:100642000232013200320832074E2DEF03F0D89009
:100652000232013200320832096A000E0EAE21EF78
:1006620004F0081E001E011E021E082A002201229A
:10067200022221EF04F00750D8A442EF03F059EF11
:1006820004F0096A02C00AF0028E068E0750035C6B
:10069200076ED8B414EF04F0070E0764E2EF03F01C
:1006A200075E0450096E0550046E0650056E066A18
:1006B200074E14EF04F0070E0764B7EF03F0075E6E
:1006C2000450096E0550046E056A074E14EF04F0DB
:1006D200070E076495EF03F0075E0450096E046A83
:1006E200074E14EF04F0070E07647CEF03F00AC014
:1006F20002F059EF04F0030E076487EF03F0075E80
:1007020009380F0B096E074E14EF04F0D890093226
:10071200074E14EF04F0D8900932074E14EF04F09C
:10072200D890093214EF04F0030E0764A6EF03F029
:10073200075E09380F0B096E0438F00B09260438DE
:100742000F0B046E074E14EF04F0D89004320932F6
:10075200074E14EF04F0D89004320932074E14EF1A
:1007620004F0D8900432093214EF04F0030E076447
:10077200CEEF03F0075E09380F0B096E0438F00B59
:10078200092604380F0B046E0538F00B04260538D1
:100792000F0B056E074E14EF04F0D89005320432A9
:1007A2000932074E14EF04F0D890053204320932B0
:1007B200074E14EF04F0D89005320432093214EFD8
:1007C20004F0030E0764FFEF03F0075E09380F0B16
:1007D200096E0438F00B092604380F0B046E053835
:1007E200F00B042605380F0B056E0638F00B0526B4
:1007F20006380F0B066E074E14EF04F0D89006323F
:10080200053204320932074E14EF04F0D890063252
:10081200053204320932074E14EF04F0D890063242
:10082200053204320932086A000E0EAE21EF04F0DE
:10083200091E041E051E061E092A0422052206227E
:1008420009500826045000220550012206500222B7
:100852000EBE38EF04F0D8A047EF04F002320132A6
:1008620000320832033E47EF04F053EF04F0D8B0F1
:100872004DEF04F0000E081E001E011E021E082A83
:100882000022012202220A7E4DEF04F0010E0C6EBC
:100892003BEC00F05BEF04F0020E0C6E3BEC00F060
:1008A2005BEF04F0040E0C6E17EC00F05BEF04F04B
:0608B200000E0C6E1200A6
:1008B800086A080E0C6E003408360450085ED8B07A
:0E08C80002D00826D89000360C2EF5D712006C
:1008D6000B6A0C6A0A6A086A0350D8B4F3EF04F08C
:1008E600028E9E0E035E03BE7EEF04F0D8B47EEF4A
:1008F60004F0E3EF04F0036C080E035CD8A0B0EF3D
:1009060004F0036E083600C008F001C000F002C013
:1009160001F0026A080E035CD8A0B0EF04F0036E83
:10092600083600C008F001C000F0016A080E035C3A
:10093600D8A0B0EF04F0036E083600C008F0006AD5
:10094600080E035CD8A0B0EF04F0036E0836086A00
:100956000350D8A4D890BCEF04F00350D8B4BCEF31
:1009660004F0D8900232013200320832032EB4EF7E
:1009760004F00BBC08A0CDEF04F0D8A0CDEF04F036
:10098600082AD8B4002AD8B4012AD8B4022A02BE4A
:10099600F7EF04F00AAEF3EF04F0021E011E001E8C
:1009A600081E082AD8B4002AD8B4012AD8B4022AC4
:1009B600F3EF04F0026A016A006A086AF3EF04F0D2
:1009C6000B800BAEFCEF04F0026A0AAEFCEF04F0FB
:1009D600026E016E006E086E0A360232FCEF04F0FB
:1009E600000E0C6AFDEF04F0010E0C6E5EDCFDEFEE
:1009F60004F0FF0E0250036E0150026E0050016EAD
:060A06000850006E120012
:100A0C000B6A0A6A096A086A0E6A033408360450CB
:100A1C00085E0550D8A0053C095E0650D8A0063CDF
:100A2C000A5E0750D8A0073C0B5EE86AD8A0010EFE
:100A3C000E5E0336070E0C6E0334083609360A3682
:100A4C000B360E36045003A012D0085E0550D8A009
:100A5C00053C095E0650D8A0063C0A5E0750D8A09B
:100A6C00073C0B5EE86AD8A0010E0E5E11D008267A
:100A7C000550D8B0053C09260650D8B0063C0A26CD
:100A8C000750D8B0073C0B26E86AD8B0010E0E26EA
:100A9C0003360C2ED1D70234083609360A360B36FB
:100AAC000E36045003A012D0085E0550D8A0053CA9
:100ABC00095E0650D8A0063C0A5E0750D8A0073C39
:100ACC000B5EE86AD8A0010E0E5E11D00826055008
:100ADC00D8B0053C09260650D8B0063C0A2607506B
:100AEC00D8B0073C0B26E86AD8B0010E0E260236A9
:100AFC00070E0C6E0234083609360A360B360E36E3
:100B0C00045002A012D0085E0550D8A0053C095E26
:100B1C000650D8A0063C0A5E0750D8A0073C0B5ED6
:100B2C00E86AD8A0010E0E5E11D008260550D8B088
:100B3C00053C09260650D8B0063C0A260750D8B00A
:100B4C00073C0B26E86AD8B0010E0E2602360C2E96
:100B5C00D1D70134083609360A360B360E36045016
:100B6C0002A012D0085E0550D8A0053C095E0650C4
:100B7C00D8A0063C0A5E0750D8A0073C0B5EE86A7A
:100B8C00D8A0010E0E5E11D008260550D8B0053C39
:100B9C0009260650D8B0063C0A260750D8B0073CA8
:100BAC000B26E86AD8B0010E0E260136070E0C6E25
:100BBC000134083609360A360B360E36045001A0BD
:100BCC0012D0085E0550D8A0053C095E0650D8A08E
:100BDC00063C0A5E0750D8A0073C0B5EE86AD8A01A
:100BEC00010E0E5E11D008260550D8B0053C092622
:100BFC000650D8B0063C0A260750D8B0073C0B2646
:100C0C00E86AD8B0010E0E2601360C2ED1D700346E
:100C1C00083609360A360B360E36045001A012D0AF
:100C2C00085E0550D8A0053C095E0650D8A0063CCD
:100C3C000A5E0750D8A0073C0B5EE86AD8A0010EEC
:100C4C000E5E11D008260550D8B0053C092606507A
:100C5C00D8B0063C0A260750D8B0073C0B26E86AE9
:100C6C00D8B0010E0E260036070E0C6E0034083676
:100C7C0009360A360B360E36045000A012D0085E28
:100C8C000550D8A0053C095E0650D8A0063C0A5E6B
:100C9C000750D8A0073C0B5EE86AD8A0010E0E5E88
:100CAC0011D008260550D8B0053C09260650D8B0FE
:100CBC00063C0A260750D8B0073C0B26E86AD8B089
:100CCC00010E0E2600360C2ED1D700B00ED00450DB
:100CDC0008260550D8B0053C09260650D8B0063C6D
:0C0CEC000A260750D8B0073C0B26120067
:080CF800067E49EC02F0120037
:100D00000050086E0150006E0250016E0350026EDA
:100D1000036A0B6A0C6A9E0E036E0A6A020E0C6E60
:060D20003BEC00F01200A4
:100D26000450000A12E10550000A0FE10650000ABD
:100D36000CE10750000A09E1FF0E006EFF0E016E7E
:100D46007F0E026EFF0E036EA8D0086A096A07506E
:100D5600D8B43EEF07F00350D8B443EF07F0025083
:100D660006180A6E028E068E0E6A02C008F001C0D0
:100D76000CF000C00DF004500D5E0550D8A0053CE7
:100D86000C5E0650D8A0063C085E086A0C6A0D6A1E
:100D9600D8A0D5EF06F0D8900232013200320832E0
:100DA600010E0E6E0750035ED8A0E2EF06F07E0E2F
:100DB6000E240326D8B048EF07F0E8EF06F07E0EC3
:100DC6000E240326D8A04DEF07F0180E0B6E0D3635
:100DD6000C3608360036013602360E360450005EF2
:100DE6000550D8A0053C015E0650D8A0063C025E20
:100DF60006340E120EA003EF07F00D800EEF07F07B
:100E0600045000260550D8B0053C01260650D8B03F
:100E1600062802260D900B2EEAEF06F034EF07F0B7
:100E2600D8900036013602360E360450005E055064
:100E3600D8A0053C015E0650D8A0063C025E0634EA
:100E46000E10010B0D26D8B00C2AD8B4082AD8A447
:100E560034EF07F008320C320D32032AD8B448EFCB
:100E660007F00AAE089E0850026E0C50016E0D5037
:100E7600006E50EF07F0010E66EC01F050EF07F040
:100E8600020E23EC00F050EF07F0040E17EC00F012
:0C0E960050EF07F0080E2AEC00F01200EC
:100EA2000A6A0350D8A40A800750D8A40A820A50BA
:100EB200D8B4B4EF07F0030AD8B46DEF07F00AB064
:100EC20068EF07F006AEB2EF07F0B0EF07F002AE40
:100ED200B0EF07F0B2EF07F00250800B0A6E029EED
:100EE2000650800B069E0A18D8B47EEF07F00A500F
:100EF200D8B4B0EF07F0B2EF07F00750035CD8B4F4
:100F020088EF07F0D8A0A4EF07F0AAEF07F0065089
:100F1200025CD8B492EF07F0D8A0A4EF07F0AAEFD2
:100F220007F00550015CD8B49CEF07F0D8A0A4EFFD
:100F320007F0AAEF07F00450005CD8B4B4EF07F052
:100F4200D8B0AAEF07F00A52D8B4B2EF07F0B0EF68
:100F520007F00A52D8B4B0EF07F0B2EF07F0D8802A
:0E0F62001200D8901200D880D884120012001D
:100F70000450000A08E10550000A05E1FF0E006E6A
:100F80007F0E016E58D00D6A096A086A0150001080
:100F9000D8B4000C015005180A6E0ABE0D1E0B6A6B
:100FA00005AE05D0041E051E042AD8B4052A01AEDC
:100FB00005D0001E011E002AD8B4012A01500510D8
:100FC0000A6E0ABE10D02CEC01F00BB020D00DAE92
:100FD000000C001E011E002AD8B4012A081E091E9A
:100FE000082AD8B4092A000C05AE0DD001BE07D0DE
:100FF0000150096E0050086E016A006AE8D7016A64
:10100000006A002A000C011E001E0B2ADDD7082AE8
:10101000D8B4092A0450085CD8A4D9D70550095C73
:10102000D8A4D5D7096A086A002AD8B4012A01AE23
:08103000CED70000FF0C1200F6
:1010380000016351390806E3300E635D03E3010ED6
:08104800006E01D0006A1200E5
:101050000B6A0A6A096A00500402F4CF09F0F3CF60
:1010600008F001500502F4CF0BF0F3CF0AF0005066
:101070000502F3500926F4500A22E86A0B220150B7
:101080000402F3500926F4500A22E86A0B2208C031
:1010900000F009C001F00AC002F00BC003F012001A
:1010A000800E00016319006E800E000A005CD8B04B
:1010B0006DD163510008016E01C063F0800E01180C
:1010C000006E800E6E0A005CD8A0C0D0640E046E64
:1010D00063C000F0FAEC01F0120E0024056E000E61
:1010E00000BEFF0E066E000E062205C000F006C010
:1010F00001F0000E06BEFF0E026E036E0036009079
:1011000001360236033600360090013602360336C9
:10111000380E0024F66E3E0E0120F76E000E0220FF
:10112000F86E0900F5CF64F00900F5CF65F009000D
:10113000F5CF66F00900F5CF67F0640E046E63C06A
:1011400000F0FAEC01F008C000F00A0E046EFAECB0
:1011500001F0090E0024056E000E00BEFF0E066EA3
:10116000000E062205C000F006C001F0000E06BE0B
:10117000FF0E026E036E0036009001360236033613
:1011800000360090013602360336380E0024F66E23
:101190003E0E0120F76E000E0220F86E0900F5CF1A
:1011A00000F00900F5CF01F00900F5CF02F00900C9
:1011B000F5CF03F064C004F065C005F066C006F02A
:1011C00067C007F06AEC01F000C064F001C065F090
:1011D00002C066F003C067F00A0E046E63C000F040
:1011E000FAEC01F008C000F000C001F0000E00BEF3
:1011F000FF0E026E036E046E013601900236033656
:10120000043601360190023603360436380E0124C6
:10121000F66E3E0E0220F76E000E0320F86E0900F7
:10122000F5CF00F00900F5CF01F00900F5CF02F08D
:101230000900F5CF03F064C004F065C005F066C096
:1012400006F067C007F06AEC01F007D2800E0A0AC8
:10125000006E800E6319005C71E20A0E046E63C0BA
:1012600000F0FAEC01F0090E0024056E000E00BE3D
:10127000FF0E066E000E062205C000F006C001F04B
:10128000000E06BEFF0E026E036E003600900136A1
:101290000236033600360090013602360336380E29
:1012A0000024F66E3E0E0120F76E000E0220F86E4E
:1012B0000900F5CF64F00900F5CF65F00900F5CF1E
:1012C00066F00900F5CF67F00A0E046E63C000F007
:1012D000FAEC01F008C000F000C001F0000E00BE02
:1012E000FF0E026E036E046E013601900236033665
:1012F000043601360190023603360436380E0124D6
:10130000F66E3E0E0220F76E000E0320F86E090006
:10131000F5CF00F00900F5CF01F00900F5CF02F09C
:101320000900F5CF03F064C004F065C005F066C0A5
:1013300006F067C007F06AEC01F08FD163C000F0DF
:10134000000E63BFFF0E016E026E036E003600904A
:101350000136023603360036009001360236033677
:10136000380E0024F66E3E0E0120F76E000E0220AD
:10137000F86E0900F5CF00F00900F5CF01F0090083
:10138000F5CF02F00900F5CF03F067D1800E6319A5
:10139000006E800E6E0A005CD8A0C0D0640E046E91
:1013A00063C000F0FAEC01F0120E0024056E000E8E
:1013B00000BEFF0E066E000E062205C000F006C03D
:1013C00001F0000E06BEFF0E026E036E00360090A6
:1013D00001360236033600360090013602360336F7
:1013E000040E0024F66E3E0E0120F76E000E022061
:1013F000F86E0900F5CF64F00900F5CF65F009003B
:10140000F5CF66F00900F5CF67F0640E046E63C097
:1014100000F0FAEC01F008C000F00A0E046EFAECDD
:1014200001F0090E0024056E000E00BEFF0E066ED0
:10143000000E062205C000F006C001F0000E06BE38
:10144000FF0E026E036E0036009001360236033640
:1014500000360090013602360336040E0024F66E84
:101460003E0E0120F76E000E0220F86E0900F5CF47
:1014700000F00900F5CF01F00900F5CF02F00900F6
:10148000F5CF03F064C004F065C005F066C006F057
:1014900067C007F06AEC01F000C064F001C065F0BD
:1014A00002C066F003C067F00A0E046E63C000F06D
:1014B000FAEC01F008C000F000C001F0000E00BE20
:1014C000FF0E026E036E046E013601900236033683
:1014D000043601360190023603360436040E012428
:1014E000F66E3E0E0220F76E000E0320F86E090025
:1014F000F5CF00F00900F5CF01F00900F5CF02F0BB
:101500000900F5CF03F064C004F065C005F066C0C3
:1015100006F067C007F06AEC01F09FD0800E0A0A5F
:10152000006E800E6319005C71E20A0E046E63C0E7
:1015300000F0FAEC01F0090E0024056E000E00BE6A
:10154000FF0E066E000E062205C000F006C001F078
:10155000000E06BEFF0E026E036E003600900136CE
:101560000236033600360090013602360336040E8A
:101570000024F66E3E0E0120F76E000E0220F86E7B
:101580000900F5CF64F00900F5CF65F00900F5CF4B
:1015900066F00900F5CF67F00A0E046E63C000F034
:1015A000FAEC01F008C000F000C001F0000E00BE2F
:1015B000FF0E026E036E046E013601900236033692
:1015C000043601360190023603360436040E012437
:1015D000F66E3E0E0220F76E000E0320F86E090034
:1015E000F5CF00F00900F5CF01F00900F5CF02F0CA
:1015F0000900F5CF03F064C004F065C005F066C0D3
:1016000006F067C007F06AEC01F027D063C000F075
:10161000000E63BFFF0E016E026E036E0036009077
:1016200001360236033600360090013602360336A4
:10163000040E0024F66E3E0E0120F76E000E02200E
:10164000F86E0900F5CF00F00900F5CF01F00900B0
:0C165000F5CF02F00900F5CF03F0120006
:10165C006E0E0001635DD8A0CAD0640E046E63C028
:10166C0000F05CEC04F0120E0024056E066A000E0D
:10167C00062205C000F006C001F0000E06BEFF0EEB
:10168C00026E036E003600900136023603360036C9
:10169C000090013602360336380E0024F66E3E0EEC
:1016AC000120F76E000E0220F86E0900F5CF00F055
:1016BC000900F5CF01F00900F5CF02F00900F5CFD4
:1016CC0003F0000E046E000E056E000E066E7E0E0C
:1016DC00076E6AEC01F000C064F001C065F002C056
:1016EC0066F003C067F0640E046E63C000F05CEC3F
:1016FC0004F008C000F00A0E046E5CEC04F0090E55
:10170C000024056E066A000E062205C000F006C015
:10171C0001F0000E06BEFF0E026E036E0036009046
:10172C000136023603360036009001360236033697
:10173C00380E0024F66E3E0E0120F76E000E0220CD
:10174C00F86E0900F5CF00F00900F5CF01F00900A3
:10175C00F5CF02F00900F5CF03F064C004F065C0CA
:10176C0005F066C006F067C007F06AEC01F000C037
:10177C0064F001C065F002C066F003C067F00A0EA9
:10178C00046E63C000F05CEC04F008C000F000C014
:10179C0001F0000E026E036E046E013601900236EB
:1017AC000336043601360190023603360436380E01
:1017BC000124F66E3E0E0220F76E000E0320F86E2A
:1017CC000900F5CF00F00900F5CF01F00900F5CFC5
:1017DC0002F00900F5CF03F064C004F065C005F019
:1017EC0066C006F067C007F06AEC01F0B1D0635137
:1017FC000A08D8B07ED00A0E046E63C000F05CEC10
:10180C0004F0090E0024056E066A000E062205C0BF
:10181C0000F006C001F0000E06BEFF0E026E036E55
:10182C000036009001360236033600360090013641
:10183C0002360336380E0024F66E3E0E0120F76E8B
:10184C00000E0220F86E0900F5CF00F00900F5CF6C
:10185C0001F00900F5CF02F00900F5CF03F0000EFE
:10186C00046E000E056E000E066E7E0E076E6AECA0
:10187C0001F000C064F001C065F002C066F003C066
:10188C0067F00A0E046E63C000F05CEC04F008C054
:10189C0000F000C001F0000E026E036E046E013603
:1018AC0001900236033604360136019002360336B7
:1018BC000436380E0124F66E3E0E0220F76E000E32
:1018CC000320F86E0900F5CF00F00900F5CF01F008
:1018DC000900F5CF02F00900F5CF03F064C004F065
:1018EC0065C005F066C006F067C007F06AEC01F051
:1018FC002FD063C000F0000E016E026E036E003636
:10190C00009001360236033600360090013602365E
:10191C000336380E0024F66E3E0E0120F76E000ED4
:10192C000220F86E0900F5CF00F00900F5CF01F0A8
:10193C000900F5CF02F00900F5CF03F0000E046E9C
:10194C00000E056E000E066E7E0E076E6AEC01F040
:02195C00120077
:10195E000B6A0C6A086A0350D8B433EF0DF002C05C
:10196E000AF0028E9E0E035E03AE23EF0DF0036CA3
:10197E00080E035CD8A0F0EF0CF0036E083600C022
:10198E0008F001C000F002C001F0026A080E035C0C
:10199E00D8A0F0EF0CF0036E083600C008F001C0BE
:1019AE0000F0016A080E035CD8A0F0EF0CF0036E95
:1019BE00083600C008F0006A080E035CD8A0F0EFED
:1019CE000CF0036E0836086A0350D8A4D890FCEFCA
:1019DE000CF00350D8B4FCEF0CF0D8900232013268
:1019EE0000320832032EF4EF0CF00BBC08A00DEF02
:1019FE000DF0D8A00DEF0DF0082AD8B4002AD8B4F7
:101A0E00012AD8B4022A02BE37EF0DF00AAE33EF28
:101A1E000DF0021E011E001E081E082AD8B4002A50
:101A2E00D8B4012AD8B4022A33EF0DF0026A016A43
:101A3E00006A086A33EF0DF00B800BAE3EEF0DF02F
:101A4E00026A0AAE3EEF0DF0026E016E006E086E77
:101A5E000A3602323EEF0DF00C6A000E3FEF0DF02B
:101A6E00010E0C6E000E58EC01F03FEF0DF0FF0E64
:101A7E000250036E0150026E0050016E0850006E4F
:021A8E00120044
:101A900003500718D8A45CEF0DF002500618D8A424
:101AA0005CEF0DF001500518D8A45CEF0DF000506C
:0E1AB0000418D8B4D8841200D8941200120082
:101ABE005B6A5C6A4F6A506A3DC000F03EC001F03E
:101ACE003FC002F0010E3D26000E3E223F2200C016
:101ADE00F6FF01C0F7FF02C0F8FF0900F5CF00F0D6
:101AEE0000C04CF00052D8B462EF1DF04C50250AE5
:101AFE000BE03BC0E1FF3CC0E2FF4CC0E6FF3B4ABF
:101B0E003C2A5B4A5C2AD8D74D6A4E6A4F6A506AA5
:101B1E0023D04F86010E3D26000E3E223F2259D085
:101B2E004F80010E3D26000E3E223F2252D04F82A4
:101B3E00010E3D26000E3E223F224BD05086010E56
:101B4E003D26000E3E223F2244D04F84010E3D26FC
:101B5E00000E3E223F223DD03DC0F6FF3EC0F7FFB5
:101B6E003FC0F8FF0900F5CF01F001502D0AD1E07A
:101B7E003DC0F6FF3EC0F7FF3FC0F8FF0900F5CFAE
:101B8E0001F00150200ACCE03DC0F6FF3EC0F7FF49
:101B9E003FC0F8FF0900F5CF01F001502B0AC7E056
:101BAE003DC0F6FF3EC0F7FF3FC0F8FF0900F5CF7E
:101BBE0001F00150230AC2E03DC0F6FF3EC0F7FF20
:101BCE003FC0F8FF0900F5CF01F00150300ABDE02B
:101BDE0001D09ED74FB24F904FB64F943DC0F6FFF7
:101BEE003EC0F7FF3FC0F8FF0900F5CF00F0000E32
:101BFE00016E00C063F01CEC08F0005236E04D6A36
:101C0E004E6A4DC000F04EC001F00A0E046E000E7A
:101C1E00056E28EC08F03DC0F6FF3EC0F7FF3FC052
:101C2E00F8FF0900F5CF02F0025000244D6E000EB1
:101C3E0001204E6E300E4D5E000E4E5A010E3D26A8
:101C4E00000E3E223F223DC0F6FF3EC0F7FF3FC0D2
:101C5E00F8FF0900F5CF00F0000E016E00C063F032
:101C6E001CEC08F00052CDE133D03DC0F6FF3EC073
:101C7E00F7FF3FC0F8FF0900F5CF01F001502A0A27
:101C8E0027E140C0E9FF41C0EAFFEECF00F0EECF02
:101C9E0001F000C0E9FF01C0EAFFEECF4DF0EECF3C
:101CAE004EF040C0E9FF41C0EAFF020EEE24006E86
:101CBE00000EEE20016E40C0E1FF41C0E2FF00C009
:101CCE00E6FF01C0E6FF010E3D26000E3E223F223A
:101CDE003DC0F6FF3EC0F7FF3FC0F8FF0900F5CF4D
:101CEE0001F001502E0A70E1010E3D26000E3E223B
:101CFE003F223DC0F6FF3EC0F7FF3FC0F8FF090090
:101D0E00F5CF01F001502A0A28E140C0E9FF41C099
:101D1E00EAFFEECF00F0EECF01F000C0E9FF01C008
:101D2E00EAFFEECF4AF0EECF4BF040C0E9FF41C0E4
:101D3E00EAFF020EEE24006E000EEE20016E40C091
:101D4E00E1FF41C0E2FF00C0E6FF01C0E6FF010E69
:101D5E003D26000E3E223F2236D04A6A4B6A3DC0D7
:101D6E00F6FF3EC0F7FF3FC0F8FF0900F5CF00F0C9
:101D7E00000E016E00C063F01CEC08F0005223E070
:101D8E004AC000F04BC001F00A0E046E000E056E44
:101D9E0028EC08F03DC0F6FF3EC0F7FF3FC0F8FF4D
:101DAE000900F5CF02F0025000244A6E000E012009
:101DBE004B6E300E4A5E000E4B5A010E3D26000E43
:101DCE003E223F22CCD703D04A6A4B6A50883DC090
:101DDE0000F03EC001F03FC002F0010E3D26000EA5
:101DEE003E223F2200C0F6FF01C0F7FF02C0F8FFFF
:101DFE000900F5CF4CF0F9D05BC000F05CC001F0EB
:101E0E0066EF1DF04F88E3D750842ED14F8A508055
:101E1E002BD1508229D14F8C27D126D14F8A4F8E6C
:101E2E0023D140C0E9FF41C0EAFFEECF00F0EECF74
:101E3E0001F000C0E9FF01C0EAFFEECF57F0EECF90
:101E4E0058F040C0E9FF41C0EAFF020EEE24006EDA
:101E5E00000EEE20016E40C0E1FF41C0E2FF00C067
:101E6E00E6FF01C0E6FF000E581802E1000E5718FB
:101E7E0004E1150E576E000E586E596A5A6A595083
:101E8E005724E96E5A505820EA6EEE520BE0010EBE
:101E9E005924006E000E5A20016E00C059F001C088
:101EAE005AF0EDD74A504B100AE05A504B5C02E103
:101EBE0059504A5C04E24AC059F04BC05AF04E5099
:101ECE005A5C02E14D50595C05E259504D5E5A5034
:101EDE004E5A02D04D6A4E6A4FB616D04DC000F023
:101EEE004EC001F0010E4D5E000E4E5A0050011014
:101EFE000BE03BC0E1FF3CC0E2FF200EE66E3B4A2A
:101F0E003C2A5B4A5C2AEAD759C002F05AC003F059
:101F1E00010E595C006E000E5A58016E00C059F049
:101F2E0001C05AF00250031019E057C0E9FF58C023
:101F3E00EAFF3BC0E1FF3CC0E2FFEECFE6FF3B4ACB
:101F4E003C2A010E5724006E000E5820016E00C070
:101F5E0057F001C058F05B4A5C2AD6D74FA616D070
:101F6E004DC000F04EC001F0010E4D5E000E4E5AF7
:101F7E00005001100BE03BC0E1FF3CC0E2FF200E21
:101F8E00E66E3B4A3C2A5B4A5C2AEAD795D540C0AE
:101F9E00E9FF41C0EAFFEECF00F0EECF01F000C046
:101FAE00E9FF01C0EAFFEECF4CF040C0E9FF41C0AF
:101FBE00EAFF020EEE24006E000EEE20016E40C00F
:101FCE00E1FF41C0E2FF00C0E6FF01C0E6FF4C0E9C
:101FDE00576E000E586E010E596E000E5A6E62D775
:101FEE00C00E4F12000E50123FD04C50000AD8B403
:101FFE0003D74C506C0AD8B405D74C504C0AD8B401
:10200E0001D74C50660AD8B4FFD64C50450AD8B406
:10201E00FDD64C50650AD8B4FAD64C50670AD8B4DF
:10202E00F8D64C506F0AD8B4F6D64C50640AD8B4D1
:10203E00F4D64C50690AD8B4F0D64C50700AD8B4C5
:10204E00EDD64C50580AD8B4E9D64C50780AD8B4CC
:10205E00E6D64C50730AD8B4E4D64C50630A97E0D7
:10206E004C50750ABDE0B3D7000E4F14006E5050A1
:10207E00070B016E00500110D8B409EF19F050A8EB
:10208E0004D0060E4A6E000E4B6E40C0E9FF41C0F2
:10209E00EAFFEECF00F0EECF01F000C0E9FF01C085
:1020AE00EAFFEECF51F0EECF52F0EECF53F0EECF7F
:1020BE0054F040C0E9FF41C0EAFF040EEE24006E6A
:1020CE00000EEE20016E40C0E1FF41C0E2FF00C0F5
:1020DE00E6FF01C0E6FF046A056A066A076A51C098
:1020EE0000F052C001F053C002F054C003F051ECA6
:1020FE0007F0010ED8B0000E006E005205E0537EC0
:10210E00030E4F12000E5012556A566A51C000F05F
:10211E0052C001F053C002F054C003F0046A056AC5
:10212E00066A076AAEDC000ED8A4010E006E0052DD
:10213E00D8B489D054C000F0016A026A036AFF0E57
:10214E000016000E01167E0E005E000E015A00C033
:10215E0055F001C056F0010E005E000E015A00C08F
:10216E0055F001C056F0030E046E000E056E28ECFD
:10217E0008F000C055F001C056F00A0E046E000EB5
:10218E00056EB8EC07F000C055F001C056F0800E99
:10219E000118026E800E025C02E1000E005C04E289
:1021AE00010E555E000E565A555000080001636F21
:1021BE0050EC08F051C004F052C005F053C006F0C8
:1021CE0054C007F06AEC01F000C057F001C058F09F
:1021DE0002C059F003C05AF0000E046E000E056ED8
:1021EE00000E066E7F0E076E57C000F058C001F04D
:1021FE0059C002F05AC003F051EC07F0010ED8B0EE
:10220E00000E006E005205E0010E555E000E565A8D
:10221E001AD0000E046E000E056E200E066E820E93
:10222E00076E57C000F058C001F059C002F05AC0F6
:10223E0003F051EC07F0000ED8B0010E006E005204
:10224E0002E0554A562A800E006E800E5618005C2B
:10225E0002E15550000803E3010E4C6E02D055C04A
:10226E004CF050B018D050A215D0800E5618006EFB
:10227E007F0E005C02E1FC0E555C0BE3800E5618DF
:10228E00006E800E4B18005C02E14A50555C01E274
:10229E0001D001D0EBD34A504B1006E050A204D02F
:1022AE00010E4A5E000E4B5A000E006E4B50005C43
:1022BE0002E14A50080803E2080E4C6E02D04AC0F2
:1022CE004CF051C000F052C001F053C002F054C0A7
:1022DE0003F0046A056A066A076A48EC0DF0000E00
:1022EE00D8A4010E006E0052D8B448D155C063F088
:1022FE0050EC08F000C004F001C005F002C006F07A
:10230E0003C007F051C000F052C001F053C002F0FC
:10231E0054C003F093EC06F000C051F001C052F02F
:10232E0002C053F003C054F04C5000080001636F1C
:10233E0050EC08F000C004F001C005F002C006F039
:10234E0003C007F051C000F052C001F053C002F0BC
:10235E0054C003F093EC06F000C05DF001C05EF0D7
:10236E0002C05FF003C060F05DC051F05EC052F07D
:10237E005FC053F060C054F05DC000F05EC001F06D
:10238E005FC002F060C003F06BEC04F080EC06F06E
:10239E0000C004F001C005F002C006F003C007F053
:1023AE005DC000F05EC001F05FC002F060C003F0DF
:1023BE007CEC06F0000E046E000E056E000E066E2E
:1023CE007E0E076E51EC07F0000ED8B0010E006EB7
:1023DE0000521AE051C000F052C001F053C002F09A
:1023EE0054C003F0000E046E000E056E000E066E55
:1023FE007E0E076E49EC02F000C051F001C052F0A3
:10240E0002C053F003C054F051C000F052C001F0AE
:10241E0053C002F054C003F06BEC04F04C50010FAB
:10242E00096E0A6A000E0A2209C004F00AC005F0FD
:10243E00000E0ABEFF0E066E076E043604900536B9
:10244E0006360736043604900536063607369C0ED9
:10245E000424F66E3E0E0520F76E000E0620F86E72
:10246E000900F5CF05F00900F5CF06F00900F5CF0C
:10247E0007F00900F5CF08F00850035C08E107509B
:10248E00025C05E10650015C02E10550005C1DE3B3
:10249E0051C000F052C001F053C002F054C003F01E
:1024AE00CD0E046ECC0E056E4C0E066E7B0E076EB8
:1024BE006AEC01F000C051F001C052F002C053F0BE
:1024CE0003C054F0554A562A59D051C000F052C09C
:1024DE0001F053C002F054C003F06BEC04F04CC09A
:1024EE0004F0000E056E066E076E04360490053677
:1024FE0006360736043604900536063607369C0E29
:10250E000424F66E3E0E0520F76E000E0620F86EC1
:10251E000900F5CF05F00900F5CF06F00900F5CF5B
:10252E0007F00900F5CF08F00850035C08E10750EA
:10253E00025C05E10650015C02E10550005C1EE202
:10254E0051C000F052C001F053C002F054C003F06D
:10255E00000E046E000E056E200E066E820E076EC5
:10256E006AEC01F000C051F001C052F002C053F00D
:10257E0003C054F0010E555E000E565A50A294D070
:10258E0050B692D0800E000A006E800E4B18005C82
:10259E0002E14A500A0804E20A0E4A6E000E4B6E21
:1025AE0051C000F052C001F053C002F054C003F00D
:1025BE006BEC04F000C057F001C058F002C059F0A7
:1025CE0003C05AF05750581059105A1042E00A0ED4
:1025DE00046E000E056E066E076E57C000F058C0F2
:1025EE0001F059C002F05AC003F006EC05F008C025
:1025FE0000F009C001F00AC002F00BC003F0000E9B
:10260E00046E031808E10450021805E10450011885
:10261E0002E10050000A1DE1010E4A5E000E4B5A07
:10262E000A0E046E000E056E066E076E57C000F0A1
:10263E0058C001F059C002F05AC003F006EC05F084
:10264E0000C057F001C058F002C059F003C05AF054
:10265E00B9D7800E4B18006E800E005C02E14C5014
:10266E004A5C22E24A504C5C0001636F50EC08F069
:10267E0000C004F001C005F002C006F003C007F070
:10268E0051C000F052C001F053C002F054C003F02C
:10269E0093EC06F000C051F001C052F002C053F0AE
:1026AE0003C054F04AC04CF0050E4A24006E000ED2
:1026BE004B20016E00504D5E01504E5A4A504B1049
:1026CE0003E150B601D004D0010E4D5E000E4E5AFD
:1026DE00030E4F14006E50C001F0000E0116005094
:1026EE00011004E0010E4D5E000E4E5A4FA439D07B
:1026FE004FA212D04FA003D02D0E426E02D02B0E41
:10270E00426E3BC0E1FF3CC0E2FF42C0E6FF3B4AE7
:10271E003C2A5B4A5C2A0CD04FA00AD03BC0E1FF9A
:10272E003CC0E2FF200EE66E3B4A3C2A5B4A5C2A26
:10273E00800E006E800E4E18005C02E14D500008B7
:10274E000FE23BC0E1FF3CC0E2FF300EE66E3B4ABB
:10275E003C2A5B4A5C2A010E4D5E000E4E5AE8D7AB
:10276E003AD04FB618D0800E006E800E4E18005C18
:10277E0002E14D5000080FE23BC0E1FF3CC0E2FF1A
:10278E00200EE66E3B4A3C2A5B4A5C2A010E4D5EE9
:10279E00000E4E5AE8D74FA212D04FA003D02D0EE6
:1027AE00436E02D02B0E436E3BC0E1FF3CC0E2FFF6
:1027BE0043C0E6FF3B4A3C2A5B4A5C2A0CD04FA042
:1027CE000AD03BC0E1FF3CC0E2FF200EE66E3B4A62
:1027DE003C2A5B4A5C2A51C000F052C001F053C043
:1027EE0002F054C003F06BEC04F000C057F001C0CF
:1027FE0058F002C059F003C05AF04CC000F0000E61
:10280E00016E026E036E00360090013602360336FC
:10281E00003600900136023603369C0E0024F66E0A
:10282E003E0E0120F76E000E0220F86E0900F5CF65
:10283E0004F00900F5CF05F00900F5CF06F0090008
:10284E00F5CF07F057C000F058C001F059C002F0A4
:10285E005AC003F006EC05F0300E00263BC0E1FF37
:10286E003CC0E2FF00C0E6FF3B4A3C2A5B4A5C2AC2
:10287E004A504B1003E150B601D06FD03BC0E1FF80
:10288E003CC0E2FF2E0EE66E3B4A3C2A5B4A5C2AB7
:10289E004C504A5E000E4B5A4C524DE04C064CC00A
:1028AE0000F0000E016E026E036E003600900136CF
:1028BE0002360336003600900136023603369C0E81
:1028CE000024F66E3E0E0120F76E000E0220F86E0A
:1028DE000900F5CF04F00900F5CF05F00900F5CF9A
:1028EE0006F00900F5CF07F057C000F058C001F010
:1028FE0059C002F05AC003F006EC05F00A0E046E41
:10290E00000E056E066E076E06EC05F008C000F0B0
:10291E0009C001F00AC002F00BC003F0300E002611
:10292E003BC0E1FF3CC0E2FF00C0E6FF3B4A3C2A51
:10293E005B4A5C2AB1D74A504B100FE03BC0E1FF17
:10294E003CC0E2FF300EE66E3B4A3C2A5B4A5C2AF4
:10295E00010E4A5E000E4B5AEED74FAA0BD03BC06B
:10296E00E1FF3CC0E2FF450EE66E3B4A3C2A5B4A65
:10297E005C2A0AD03BC0E1FF3CC0E2FF650EE66E6A
:10298E003B4A3C2A5B4A5C2A800E5618006E800E2B
:10299E00005C02E1000E555C11E255500008556EC8
:1029AE005650000E56563BC0E1FF3CC0E2FF2D0EC6
:1029BE00E66E3B4A3C2A5B4A5C2A0AD03BC0E1FFEA
:1029CE003CC0E2FF2B0EE66E3B4A3C2A5B4A5C2A79
:1029DE000A0E046E000E056E55C000F056C001F0D2
:1029EE00B8EC07F0300E00263BC0E1FF3CC0E2FF22
:1029FE0000C0E6FF3B4A3C2A5B4A5C2A0A0E046E84
:102A0E00000E056E55C000F056C001F0B8EC07F090
:102A1E0008C000F009C001F0300E00263BC0E1FFF7
:102A2E003CC0E2FF00C0E6FF3B4A3C2A5B4A5C2A00
:102A3E004FA61AD0800E006E800E4E18005C02E17A
:102A4E004D50000811E23BC0E1FF3CC0E2FF200EFA
:102A5E00E66E3B4A3C2A5B4A5C2A010E4D5E000E36
:102A6E004E5A4D504E10EFE163EF0DF050A2F4D0E0
:102A7E00800E5618006E800E005C02E1000E555C52
:102A8E000AE2010E555C006E000E5658016E0050A3
:102A9E004A5E01504B5A51C000F052C001F053C073
:102AAE0002F054C003F06BEC04F000C057F001C00C
:102ABE0058F002C059F003C05AF0010E4C6E4C5043
:102ACE000A0A34E04CC000F0000E016E026E036E76
:102ADE00003600900136023603360036009001367D
:102AEE00023603369C0E0024F66E3E0E0120F76E63
:102AFE00000E0220F86E0900F5CF01F00900F5CFA7
:102B0E0002F00900F5CF03F00900F5CF04F00450F0
:102B1E005A5C08E10350595C05E10250585C02E131
:102B2E000150575C01E202D04C2AC9D74C504A5C86
:102B3E000001616F000E4B58626F61C04AF062C0B7
:102B4E004BF057C000F058C001F059C002F05AC007
:102B5E0003F080EC06F000C004F001C005F002C0E6
:102B6E0006F003C007F051C000F052C001F053C090
:102B7E0002F054C003F07CEC06F000C05DF001C022
:102B8E005EF002C05FF003C060F061C063F050EC15
:102B9E0008F05DC004F05EC005F05FC006F060C0D6
:102BAE0007F06AEC01F0000E046E000E056E000ECA
:102BBE00066E7E0E076E49EC02F06BEC04F000C060
:102BCE0057F001C058F002C059F003C05AF04A50F5
:102BDE004B1042E00A0E046E000E056E066E076E76
:102BEE0057C000F058C001F059C002F05AC003F0AF
:102BFE0006EC05F008C000F009C001F00AC002F0B2
:102C0E000BC003F0000E046E031808E10450021806
:102C1E0005E10450011802E10050000A1DE10A0E00
:102C2E00046E000E056E066E076E57C000F058C09B
:102C3E0001F059C002F05AC003F006EC05F000C0D6
:102C4E0057F001C058F002C059F003C05AF0010EFF
:102C5E004A5E000E4B5ABBD7800E006E800E4B188C
:102C6E00005C02E14A500C0816E34AC063F02EECF9
:102C7E000BF051C004F052C005F053C006F054C022
:102C8E0007F049EC02F000C051F001C052F002C052
:102C9E0053F003C054F051C000F052C001F053C0C5
:102CAE0002F054C003F0046A056A066A076A48EC2B
:102CBE000DF0000ED8A4010E006E0052D8B474D0E0
:102CCE0051C000F052C001F053C002F054C003F0E6
:102CDE006BEC04F0000E046E031808E104500218A9
:102CEE0005E10450011802E10050000A5DE1800E7A
:102CFE00006E800E5618005C02E15550010854E239
:102D0E0055C063F050EC08F000C004F001C005F0AF
:102D1E0002C006F003C007F051C000F052C001F02F
:102D2E0053C002F054C003F093EC06F05F0E046E35
:102D3E00700E056E090E066E810E076E51EC07F0D1
:102D4E00010ED8B0000E006E005205E0090E555E61
:102D5E00000E565A04D0080E555E000E565A55C037
:102D6E0063F050EC08F000C004F001C005F002C0A2
:102D7E0006F003C007F051C000F052C001F053C07E
:102D8E0002F054C003F093EC06F06BEC04F000C0BC
:102D9E0057F001C058F002C059F003C05AF0516A02
:102DAE00526A536A546A38D051C000F052C001F0D2
:102DBE0053C002F054C003F06BEC04F000C057F0A7
:102DCE0001C058F002C059F003C05AF057C000F0CD
:102DDE0058C001F059C002F05AC003F080EC06F062
:102DEE0000C004F001C005F002C006F003C007F0F9
:102DFE0051C000F052C001F053C002F054C003F0B5
:102E0E007CEC06F000C051F001C052F002C053F04D
:102E1E0003C054F0556A566A010E4C6E4C500A0AA5
:102E2E0034E04CC000F0000E016E026E036E0036F0
:102E3E000090013602360336003600900136023617
:102E4E0003369C0E0024F66E3E0E0120F76E000E29
:102E5E000220F86E0900F5CF01F00900F5CF02F05F
:102E6E000900F5CF03F00900F5CF04F004505A5CC9
:102E7E0008E10350595C05E10250585C02E1015033
:102E8E00575C01E202D04C2AC9D74C504A24006E3E
:102E9E00000E4B20016E5550002656500122005058
:102EAE004D5E01504E5A50B604D04A504B1001E1BF
:102EBE0004D0010E4D5E000E4E5A030E4F14006EDE
:102ECE0050C001F0000E01160050011004E0010E7A
:102EDE004D5E000E4E5A4FA439D04FA212D04FA0C5
:102EEE0003D02D0E446E02D02B0E446E3BC0E1FF7C
:102EFE003CC0E2FF44C0E6FF3B4A3C2A5B4A5C2AE8
:102F0E000CD04FA00AD03BC0E1FF3CC0E2FF200E28
:102F1E00E66E3B4A3C2A5B4A5C2A800E006E800EAF
:102F2E004E18005C02E14D5000080FE23BC0E1FF7D
:102F3E003CC0E2FF300EE66E3B4A3C2A5B4A5C2AFE
:102F4E00010E4D5E000E4E5AE8D73AD04FB618D04D
:102F5E00800E006E800E4E18005C02E14D5000088F
:102F6E000FE23BC0E1FF3CC0E2FF200EE66E3B4AA3
:102F7E003C2A5B4A5C2A010E4D5E000E4E5AE8D783
:102F8E004FA212D04FA003D02D0E456E02D02B0EA5
:102F9E00456E3BC0E1FF3CC0E2FF45C0E6FF3B4A49
:102FAE003C2A5B4A5C2A0CD04FA00AD03BC0E1FF02
:102FBE003CC0E2FF200EE66E3B4A3C2A5B4A5C2A8E
:102FCE004CC000F04C0600524CE04CC000F0000E1D
:102FDE00016E026E036E0036009001360236033625
:102FEE00003600900136023603369C0E0024F66E33
:102FFE003E0E0120F76E000E0220F86E0900F5CF8E
:10300E0004F00900F5CF05F00900F5CF06F0090030
:10301E00F5CF07F057C000F058C001F059C002F0CC
:10302E005AC003F006EC05F00A0E046E000E056E93
:10303E00066E076E06EC05F008C000F009C001F040
:10304E000AC002F00BC003F0300E00263BC0E1FFB9
:10305E003CC0E2FF00C0E6FF3B4A3C2A5B4A5C2ACA
:10306E00AFD7800E006E800E5618005C02E15550F0
:10307E0000080FE23BC0E1FF3CC0E2FF300EE66EFF
:10308E003B4A3C2A5B4A5C2A010E555E000E565A9C
:10309E00E8D7800E000A006E800E4B18005C02E12D
:1030AE004A50080803E2080E4C6E02D04AC04CF09B
:1030BE004C504A5E000E4B5A4C5203E150B601D0B2
:1030CE000AD03BC0E1FF3CC0E2FF2E0EE66E3B4A4B
:1030DE003C2A5B4A5C2A4CC063F050EC08F051C0AD
:1030EE0004F052C005F053C006F054C007F06AEC6D
:1030FE0001F0AFEC0CF000C057F001C058F002C068
:10310E0059F003C05AF04C524DE04C064CC000F042
:10311E00000E016E026E036E00360090013602360E
:10312E000336003600900136023603369C0E00241C
:10313E00F66E3E0E0120F76E000E0220F86E0900AC
:10314E00F5CF04F00900F5CF05F00900F5CF06F034
:10315E000900F5CF07F057C000F058C001F059C074
:10316E0002F05AC003F006EC05F00A0E046E000ED3
:10317E00056E066E076E06EC05F008C000F009C07D
:10318E0001F00AC002F00BC003F0300E00263BC067
:10319E00E1FF3CC0E2FF00C0E6FF3B4A3C2A5B4A2F
:1031AE005C2AB1D74A504B100FE03BC0E1FF3CC048
:1031BE00E2FF300EE66E3B4A3C2A5B4A5C2A010E69
:1031CE004A5E000E4B5AEED74FA61AD0800E006EF6
:1031DE00800E4E18005C02E14D50000811E23BC01B
:1031EE00E1FF3CC0E2FF200EE66E3B4A3C2A5B4A02
:1031FE005C2A010E4D5E000E4E5A4D504E10EFE100
:10320E0063EF0DF0C00E4F14016E50C002F0000EB1
:10321E000216000E021802E1000E0118D8A480D08A
:10322E004FA827D040C0E9FF41C0EAFFEECF00F023
:10323E00EECF01F000C0E9FF01C0EAFFEECF57F07C
:10324E00EECF58F0EECF59F0EECF5AF040C0E9FF76
:10325E0041C0EAFF040EEE24006E000EEE20016E59
:10326E0040C0E1FF41C0E2FF00C0E6FF01C0E6FF43
:10327E002FD040C0E9FF41C0EAFFEECF00F0EECF05
:10328E0001F000C0E9FF01C0EAFFEECF00F0EECF83
:10329E0001F0000E01BEFF0E026E036E00C057F06D
:1032AE0001C058F002C059F003C05AF040C0E9FF07
:1032BE0041C0EAFF020EEE24006E000EEE20016EFB
:1032CE0040C0E1FF41C0E2FF00C0E6FF01C0E6FFE3
:1032DE00800E5A18006E800E005C08E1000E595CDC
:1032EE0005E1000E585C02E1000E575C18E2030E79
:1032FE004F12000E5012006A016A026A036A57509A
:10330E00005E5850015A5950025A5A50035A00C082
:10331E0057F001C058F002C059F003C05AF04ED019
:10332E004FA827D040C0E9FF41C0EAFFEECF00F022
:10333E00EECF01F000C0E9FF01C0EAFFEECF57F07B
:10334E00EECF58F0EECF59F0EECF5AF040C0E9FF75
:10335E0041C0EAFF040EEE24006E000EEE20016E58
:10336E0040C0E1FF41C0E2FF00C0E6FF01C0E6FF42
:10337E0025D040C0E9FF41C0EAFFEECF00F0EECF0E
:10338E0001F000C0E9FF01C0EAFFEECF57F0EECF2B
:10339E0058F0000E596E5A6E40C0E9FF41C0EAFF68
:1033AE00020EEE24006E000EEE20016E40C0E1FF14
:1033BE0041C0E2FF00C0E6FF01C0E6FF000E4B1861
:1033CE0002E1000E4A180FE1000E006E5A1808E1D5
:1033DE000050591805E10050581802E15750000AE4
:1033EE0002E14A4A4B2AC00E4F14006E00C005F08F
:1033FE00AED0010E4C6E4C500A0A34E04CC000F0B8
:10340E00000E016E026E036E00360090013602361B
:10341E000336003600900136023603369C0E002429
:10342E00F66E3E0E0120F76E000E0220F86E0900B9
:10343E00F5CF01F00900F5CF02F00900F5CF03F04A
:10344E000900F5CF04F004505A5C08E10350595CB2
:10345E0005E10250585C02E10150575C01E202D0D6
:10346E004C2AC9D782D0010E4C6E4C50080A34E05B
:10347E004CC000F0000E016E026E036E003600901E
:10348E000136023603360036009001360236033618
:10349E00C40E0024F66E3E0E0120F76E000E0220C2
:1034AE00F86E0900F5CF01F00900F5CF02F0090022
:1034BE00F5CF03F00900F5CF04F004505A5C08E193
:1034CE000350595C05E10250585C02E10150575C13
:1034DE0001E202D04C2AC9D748D0010E4C6E4C5096
:1034EE000C0A34E04CC000F0000E016E026E036E4A
:1034FE000036009001360236033600360090013653
:10350E00023603366C0E0024F66E3E0E0120F76E68
:10351E00000E0220F86E0900F5CF01F00900F5CF7C
:10352E0002F00900F5CF03F00900F5CF04F00450C6
:10353E005A5C08E10350595C05E10250585C02E107
:10354E000150575C01E202D04C2AC9D70ED005506B
:10355E00000AD8B44ED70550C00AD8B44AD7055081
:10356E00800A81E00550400AB8E0800E006E800EA1
:10357E004B18005C02E14A504C5C03E24AC04CF02E
:10358E000DD0800E4B18006E800E005C02E14C5088
:10359E004A5C04E24CC04AF0000E4B6E4D504E1089
:1035AE000EE0030E4F14006E50C001F0000E011617
:1035BE000050011004E0010E4D5E000E4E5A800EBA
:1035CE004B18006E800E4E18005C02E14D504A5CA6
:1035DE0005E24A504D5E4B504E5A02D04D6A4E6A2D
:1035EE00C40E4F14016E5050080B026E0250080AA2
:1035FE0002E1400E011808E14D504E1004E0010E9C
:10360E004D5E000E4E5A1CD0C00E4F14016E50501F
:10361E00080B026E0250080A02E1800E011810E13A
:10362E00800E006E800E4E18005C02E14D500208B6
:10363E0005E2020E4D5E000E4E5A02D04D6A4E6AE3
:10364E004FA45DD04FA212D04FA003D02D0E466EC8
:10365E0002D02B0E466E3BC0E1FF3CC0E2FF46C0DF
:10366E00E6FF3B4A3C2A5B4A5C2A34D04FA00BD083
:10367E003BC0E1FF3CC0E2FF200EE66E3B4A3C2A17
:10368E005B4A5C2A27D0C00E4F14016E5050080BB7
:10369E00026E0250080A02E1800E01181BE13BC0C7
:1036AE00E1FF3CC0E2FF300EE66E3B4A3C2A5B4A2D
:1036BE005C2A4FAA03D0580E476E02D0780E476E82
:1036CE003BC0E1FF3CC0E2FF47C0E6FF3B4A3C2A5D
:1036DE005B4A5C2A4D504E1011E03BC0E1FF3CC0EE
:1036EE00E2FF300EE66E3B4A3C2A5B4A5C2A010E34
:1036FE004D5E000E4E5A4D504E10EFE174D04D50AF
:10370E004E1013E04FB611D03BC0E1FF3CC0E2FFBC
:10371E00200EE66E3B4A3C2A5B4A5C2A010E4D5E49
:10372E00000E4E5A4D504E10EFE14FA212D04FA048
:10373E0003D02D0E486E02D02B0E486E3BC0E1FF1B
:10374E003CC0E2FF48C0E6FF3B4A3C2A5B4A5C2A8B
:10375E000CD04FA00AD03BC0E1FF3CC0E2FF200ED0
:10376E00E66E3B4A3C2A5B4A5C2AC00E4F14016E41
:10377E005050080B026E0250080A02E1400E01186A
:10378E000BE13BC0E1FF3CC0E2FF300EE66E3B4A70
:10379E003C2A5B4A5C2A27D0C00E4F14016E505053
:1037AE00080B026E0250080A02E1800E01181BE19E
:1037BE003BC0E1FF3CC0E2FF300EE66E3B4A3C2AC6
:1037CE005B4A5C2A4FAA03D0580E496E02D0780E7F
:1037DE00496E3BC0E1FF3CC0E2FF49C0E6FF3B4AF9
:1037EE003C2A5B4A5C2A800E006E800E4B18005CF1
:1037FE0002E14A504C5C0BE23BC0E1FF3CC0E2FFF1
:10380E00300EE66E3B4A3C2A5B4A5C2AECD74AC035
:10381E0000F04BC001F0010E4A5E000E4B5A0050F4
:10382E000110D8B42AD1C00E4F14006E00C05DF046
:10383E000AD14AC000F04BC001F0000E4BBEFF0E85
:10384E00026E036E003600900136023603360036E5
:10385E0000900136023603369C0E0024F66E3E0EA4
:10386E000120F76E000E0220F86E0900F5CF04F06D
:10387E000900F5CF05F00900F5CF06F00900F5CFE8
:10388E0007F057C000F058C001F059C002F05AC0FE
:10389E0003F006EC05F00A0E046E000E056E066EC1
:1038AE00076E06EC05F008C000F009C001F00AC072
:1038BE0002F00BC003F0300E00244C6ED3D04FAA92
:1038CE0045D04AC000F04BC001F0000E4BBEFF0EBB
:1038DE00026E036E00360090013602360336003655
:1038EE000090013602360336C40E0024F66E3E0EEC
:1038FE000120F76E000E0220F86E0900F5CF04F0DD
:10390E000900F5CF05F00900F5CF06F00900F5CF57
:10391E0007F057C000F058C001F059C002F05AC06D
:10392E0003F006EC05F00F0E0016000E011602163F
:10393E000316F50E0024F66E3E0E0120F76E000EF5
:10394E000220F86E0900F5CF4CF044D04AC000F0CA
:10395E004BC001F0000E4BBEFF0E026E036E003622
:10396E0000900136023603360036009001360236DC
:10397E000336C40E0024F66E3E0E0120F76E000EC6
:10398E000220F86E0900F5CF04F00900F5CF05F01E
:10399E000900F5CF06F00900F5CF07F057C000F08B
:1039AE0058C001F059C002F05AC003F006EC05F001
:1039BE000F0E0016000E011602160316E40E00245A
:1039CE00F66E3E0E0120F76E000E0220F86E090014
:1039DE00F5CF4CF047D04AC000F04BC001F0000EBE
:1039EE004BBEFF0E026E036E00360090013602369D
:1039FE000336003600900136023603366C0E002474
:103A0E00F66E3E0E0120F76E000E0220F86E0900D3
:103A1E00F5CF04F00900F5CF05F00900F5CF06F05B
:103A2E000900F5CF07F057C000F058C001F059C09B
:103A3E0002F05AC003F006EC05F0070E00144C6EAF
:103A4E00300E4C260FD05D50000AD8B4F2D65D5021
:103A5E00C00AD8B4EED65D50800AD8B430D75D50C7
:103A6E00400AB9E03BC0E1FF3CC0E2FF4CC0E6FFBC
:103A7E003B4A3C2A5B4A5C2ACAD64FA61AD0800E15
:103A8E00006E800E4E18005C02E14D50000811E2EF
:103A9E003BC0E1FF3CC0E2FF200EE66E3B4A3C2AF3
:103AAE005B4A5C2A010E4D5E000E4E5A4D504E1072
:103ABE00EFE163EF0DF05BC000F05CC001F01200AF
:103ACE00330E396E000E3A6E2EC03BF02FC03CF016
:103ADE0030C03DF031C03EF032C03FF0390E406E86
:103AEE00000E416E5FEC0DF000C037F001C038F0F3
:103AFE0000502E24E16E01502F20E26EE66A37C090
:083B0E0000F038C001F01200C4
:103B1600300E0E01C26FCA6B030E0F011B6F030E30
:0E3B26001C6F1A6B0E01CA9BC00EF26E1200CD
:103B3400818E0900F5CFE6FF0006FBE10106F9E1FD
:023B440012006D
:103B46000F0E0F01596F216B2E6B116B030E8A6ED0
:103B56008C6A800E886E8F6A916A100E8D6E856AE9
:103B6600876A100E836E030E206F030E1D6F396B6E
:043B7600356B120099
:103B7A002CC000F02DC001F001320032019E00502D
:103B8A002C181E6E2D5001181F6E1EC01CF01FC06F
:103B9A001DF0010E1C16000E1D161EC020F01FC0BF
:103BAA0021F021322032219E21BC218E010E2016C5
:103BBA00000E2116230E2E6E000E2F6E0D0E306E85
:103BCA003F0E316E000E326E20C033F021C034F049
:103BDA001CC035F01DC036F075DF1CD005D022A000
:103BEA0002D026861DD01CD02450310AF8E018D005
:103BFA000AD022A002D0268413D012D022A002D04A
:103C0A0026880ED00DD02450310AF3E02450300A11
:103C1A00F5E006D02350300AE1E02350310AE8E00B
:023C2A00120086
:103C2C0022A608D08FA003D02294228802D022840E
:103C3C0022980CD022AC08D08FA203D0229A2282D8
:0E3C4C0002D0228A229202D02296229C1200DE
:103C5A0089EC1FF05BDF72DFE4DF2AC02BF0C2D0F1
:103C6A00839822A433D028D02690228E2692020E40
:103C7A00276E000E286E010E2A6E28D02690229EEC
:103C8A002682030E276E000E286E010E2A6E1ED0A3
:103C9A002680229E2692010E276E000E286E010EA5
:103CAA002A6E14D02680229E2692010E276E000EBE
:103CBA00286E010E2A6E0AD02950010AD5E0295031
:103CCA00020ADCE02950030AE3E0ECD794D0228010
:103CDA0069D026A020D027C02CF028C02DF048DFBC
:103CEA000CD0839A879087920DD0838A8780879297
:103CFA0009D0839A8790879205D026A6F2D726B64E
:103D0A00F4D7F7D7010E296E22A804D02A6A269082
:103D1A00269601D0268058D022AE20D027C02CF07B
:103D2A0028C02DF025DF0CD0839A879087920DD07A
:103D3A00839A8780878209D0839A8790879205D051
:103D4A0026A4F2D726B4F4D7F7D7020E296E22A8F2
:103D5A0004D02A6A229E269401D0228E35D026A229
:103D6A0020D027C02CF028C02DF002DF0CD0839A77
:103D7A00879087920DD0838A8790878209D0839A09
:103D8A008790879205D026A8F2D726B8F4D7F7D716
:103D9A00030E296E22A804D02A6A2692269801D0F8
:103DAA00268212D0000E281802E1010E271891E08F
:103DBA00000E281802E1020E2718AEE0000E28189D
:103DCA0002E1030E2718CBE016D02A6A2B6A269046
:103DDA00229E2692276A286A020E296E2696269421
:103DEA00269809D02B50000AD8B43AD72B50010A8A
:0A3DFA00D8B46DD7EAD730D7FFD751
:103F120010EE15F0070E006E010E016E060EF66E23
:0E3F22003F0EF76E000EF86E9AEC1DF01200C6
:103E04000000007F000020820000488500007A88BE
:103E140000401C8C0050438F0024749280961896A6
:103E240020BC3E99286B6E9CF90215A0EC782DC13C
:043E3400CAF249E2A3
:103E38000000007FCDCC4C7B0AD723786F12037526
:103E480017B75171ACC5276EBD37066B95BF56675E
:103E580077CC2B645F700961FFE65B5D08E53C3C4D
:043E68006042221B77
:103E6C0001000000080000004000000000020000FB
:103E7C000010000000800000000004000000200082
:103E8C0000000001000000080000004000000000DD
:103E9C00010000000A00000064000000E8030000BC
:103EAC0010270000A086010040420F008096980069
:083EBC0000E1F50500CA9A3B84
:103EC40001000000100000000001000000100000CC
:103ED40000000100000010000000000100000010BC
:103EE400303132333435363738396162636465666C
:013EF40000CD
:103EF500303132333435363738394142434445461B
:013F050000BB
:073F0600286E756C6C2900A8
:053F0D0025752575007B
:020000040030CA
:0C0000007229C3AF7F3FFF170300FF020F
:00000001FF
