:0400000057EF01F0C5
:1000080000C016F001C015F00E01CAAB1CD0B10E2D
:10001800D46EE00ED36ECA9B010E1724006E000E3C
:100028001820016E00C017F001C018F0800E1818D3
:10003800006E800E005C02E1320E175C04E3198248
:100048008398176A186A0F011AA106D00E01C2A96F
:1000580003D00F011A91198A0F011AA306D00E01B5
:10006800C2A903D00F011A931C8016C000F015C056
:0400780001F0110082
:10007C000F0E0F01596F216B2E6B116B030E8A6ED5
:10008C008C6A800E886E8F6A916A100E8D6E856AEE
:10009C00876A100E836E030E206F030E1D6F396B73
:0400AC00356B12009E
:1000B00019AA09D08FA003D01998198C02D01988D9
:1000C000199C199A0DD01CA009D08FA203D0199E9B
:1000D000198602D0198E19961C9002D0199A1C907C
:0200E00012000C
:1000E200AAD0839A87908792199019A805D019A24D
:1000F20003D0060E1B6E01D01B6AB7D0838A87809D
:10010200879219841C921C9419AC04D019A202D0B3
:100112001B6A09D019AE05D019A203D0040E1B6EBA
:1001220002D0010E1B6EA1D0839A87808782199418
:100132001C821C9419AC04D019A202D01B6A09D0EB
:1001420019AE05D019A203D0040E1B6E02D0020E06
:100152001B6E8BD0838A8790878219941C921C8491
:1001620019AC04D019A202D01B6A09D019AE05D06D
:1001720019A203D0040E1B6E02D0030E1B6E75D0A3
:10018200838A8780878219AC04D019A202D01B6AA5
:100192000AD019A606D019A204D0050E1B6E19802A
:1001A20002D0040E1B6E61D019A007D019A405D08D
:1001B20019A203D0020E1B6E14D019A007D01CA2E4
:1001C20005D019A203D0030E1B6E0BD019A007D0C5
:1001D2001CA405D019A203D0010E1B6E02D0040E7E
:1001E2001B6E43D019A81DD019A407D019A205D09F
:1001F200020E1B6E1C921C9414D01CA207D019A2D2
:1002020005D0030E1B6E19941C940BD01CA407D0AE
:1002120019A205D0010E1B6E19941C9202D0060E73
:100222001B6E23D019841C921C94839A8790879208
:100232001A6A1B6A1AD01A50000AD8B452D71A5036
:10024200010AD8B45BD71A50020AD8B46DD71A5033
:10025200030AD8B47FD71A50040A92E01A50050A4A
:0C026200A3E01A50060ABEE0DDD712002F
:10026E00818E0900F5CFE6FF0006FBE10106F9E1FC
:02027E0012006C
:10028000300E0E01C26FCA6B900ED56E400ED66E48
:10029000B10ED46EE00ED36E030E0F011B6F030E72
:0E02A0001C6F1A6B0E01CA9BC00EF26E12008C
:1002AE00176A186AE6DFE3DEFCDE19BAFDD71CB06A
:0C02BE00FBD71BC01AF00EDFFCD7FFD7E7
:020000040030CA
:0C0000007229C3BF7F3FFF170300FF02FF
:00000001FF
