:0400000080EF00F09D
:1000080000C016F001C015F00E01CAAB0ED0060EE6
:10001800D46ED36ACA9B010E1724006E000E1820F6
:10002800016E00C017F001C018F00F011AA106D028
:100038000E01C2A903D00F011A9119860F011AA344
:1000480006D00E01C2A903D00F011A93198016C059
:0800580000F015C001F01100D9
:10006000300E0E01C26FCA6B900ED56E400ED66E6A
:10007000060ED46ED36A030E0F011B6F030E1C6FA6
:0C0080001A6B0E01CA9BC00EF26E12003B
:10008C0019A608D08FA003D01998198A02D0198804
:10009C00199A0CD019A008D08FA203D019921984E8
:0E00AC0002D01982199402D0199619901200F0
:1000BA000F0E0F01596F216B2E6B116B030E8A6E97
:1000CA008C6A800E886E8F6A916A100E8D6E856AB0
:1000DA00876A100E836E030E206F030E1D6F396B35
:0400EA00356B120060
:1000EE00818E0900F5CFE6FF0006FBE10106F9E17E
:0200FE001200EE
:10010000176A186ADADFACDFC1DF1EC01DF066D0E7
:1001100019A82BD020D01C90198E199C020E1B6E92
:10012000010E1E6E22D01C90199E198C030E1B6EA0
:10013000010E1E6E1AD01C80199E199C010E1B6E9A
:10014000010E1E6E12D01C80199E199C010E1B6E92
:10015000010E1E6E0AD01A50010ADDE01A50020A82
:10016000E2E01A50030AE7E0EED73FD024D01CA00B
:1001700009D0838A87808792199E199C010E1A6E76
:1001800019BA1E6A21D019AE09D0839A8780878256
:100190001C90199C020E1A6E19BA1E6A15D019AC61
:1001A00009D0838A879087821C90199E030E1A6E4D
:1001B00019BA1E6A09D01B50010AD9E01B50020A65
:1001C000E2E01B50030AEBE010D01E6A1D6A1C908F
:1001D000199E199C1B6A020E1A6E07D01D50000A48
:0E01E00097E01D50010AC2E0F0D78ED7FFD77E
:020000040030CA
:0C0000002729C3BF7F3FFF170300FF024A
:00000001FF
