:1000000049EF01F0FFFFFFFF00C016F001C015F03F
:100010000E01CAAB1CD0B10ED46EE00ED36ECA9BDB
:10002000010E1724006E000E1820016E00C017F09C
:1000300001C018F0800E1818006E800E005C02E1FE
:10004000640E175C04E319828398176A186A0F011B
:100050001AA106D00E01C2A903D00F011A91198A64
:100060000F011AA306D00E01C2A903D00F011A93E3
:100070001C8016C000F015C001F011000F0E0F011A
:10008000596F216B2E6B116B030E8A6E8C6A800E7A
:10009000886E8F6A916A100E8D6E856A876A100E5F
:1000A000836E030E206F030E1D6F396B356B1200CC
:1000B00019AA09D08FA003D01998198C02D01988D9
:1000C000199C199A0DD01CA009D08FA203D0199E9B
:1000D000198602D0198E19961C9002D0199A1C907C
:1000E00012009DD0839A87908792199019A805D005
:1000F00019A203D0060E1B6E00D0AAD0838A878077
:10010000879219841C921C9419AC04D019A202D0B5
:100110001B6A07D019AE05D019A203D0040E1B6EBE
:1001200000D096D0839A8780878219941C821C9471
:1001300019AC04D019A202D01B6A07D019AE05D0A1
:1001400019A203D0040E1B6E00D082D0838A879040
:10015000878219941C921C8419AC04D019A202D075
:100160001B6A07D019AE05D019A203D0040E1B6E6E
:1001700000D06ED0838A8780878219AC04D019A200
:1001800002D01B6A08D019A606D019A204D0050E09
:100190001B6E198000D05CD019A007D019A405D01F
:1001A00019A203D0020E1B6E12D019A007D01CA2F8
:1001B00005D019A203D0030E1B6E09D019A007D0D9
:1001C0001CA405D019A203D0010E1B6E00D040D094
:1001D00019A81BD019A407D019A205D0020E1B6EB6
:1001E0001C921C9412D01CA207D019A205D0030E99
:1001F0001B6E19941C9409D01CA407D019A205D019
:10020000010E1B6E19941C9200D022D019841C92EE
:100210001C94839A879087921A6A1B6A19D01A5085
:10022000000AD8B45FD71A50010AD8B467D71A5059
:10023000020AD8B477D71A50030A88E01A50040A81
:1002400099E01A50050AA8E01A50060AC1E0DED764
:100250001200818E0900F5CFE6FF0006FBE10106E2
:10026000F9E11200300E0E01C26FCA6B900ED56E0E
:10027000400ED66EB10ED46EE00ED36E030E0F019B
:100280001B6F030E1C6F1A6B0E01CA9BC00EF26E21
:100290001200176A186AE6DFF1DE0ADF19BAFDD725
:1002A0001CB0FBD71BC01AF01CDFFCD7FFD7FFFF29
:020000040030CA
:0C0000007229C3BF7F3FFF170300FF02FF
:00000001FF
