:1000000063EF01F0FFFFFFFF00C016F001C015F025
:100010000E01CAAB1BD0EC0ED46E780ED36ECA9B09
:10002000010E3724006E000E3820016E00C037F03C
:1000300001C038F0800E3818006E800E005C02E1BE
:10004000C80E375C03E38378376A386A0F011AA158
:1000500006D00E01C2A903D00F011A913A8E0F01EA
:100060001AA306D00E01C2A903D00F011A933C8433
:1000700016C000F015C001F01100700E0E01D86F0F
:10008000800EDC6F0F01216B2E6B116B266B0B0E3C
:100090008A6E8C6A800E886E030E8B6E8F6A916AF0
:1000A000100E8D6E906A856A876A100E836E866A5E
:1000B0000B0E206F0B0E1D6F030E256F030E226FAC
:1000C000396B356B12003AAE09D08FA003D03A9C41
:1000D0003A8A02D03A8C3A9A3A9E0DD03CA409D082
:1000E0008FA203D03C923C8002D03C823C903C9456
:1000F00002D03A9E3C941200AED0839A87908792A9
:100100003A923AAC05D03AA003D0060E396E01D02F
:10011000396ABBD0838A879087923A883A963A9414
:100120008FB602D03AB087843AAA04D03AA002D05F
:10013000396A09D03CA205D03AA003D0040E396E2A
:1001400002D0010E396EA1D0839A878087923A98A7
:100150003A863A943AAA04D03AA002D0396A09D031
:100160003CA205D03AA003D0040E396E02D0020E94
:10017000396E8BD0839A879087823A983A963A84E0
:100180003AAA04D03AA002D0396A09D03CA205D0DC
:100190003AA003D0040E396E02D0030E396E75D02A
:1001A000838A878087823AAA04D03AA002D0396A2B
:1001B0000AD03CA006D03AA004D0050E396E3A828F
:1001C00002D0040E396E61D03AA207D03AA805D009
:1001D0003AA003D0020E396E14D03AA207D03AA644
:1001E00005D03AA003D0030E396E0BD03AA207D047
:1001F0003AA405D03AA003D0010E396E02D0050E04
:10020000396E43D03AAC1DD03AA807D03AA005D0F9
:10021000020E396E3A963A9414D03AA607D03AA014
:1002200005D0030E396E3A983A940BD03AA407D011
:100230003AA005D0010E396E3A983A9602D0060ED1
:10024000396E23D03A983A963A84839A8790879267
:100250003B6A396A1AD03B50000AD8B44ED73B509B
:10026000010AD8B457D73B50020AD8B46DD73B50D7
:10027000030AD8B47FD73B50040A92E03B50050AEA
:10028000A3E03B50060ABEE0DDD712000900F5CF1F
:10029000E6FF0006FBE10106F9E11200300E0E0157
:1002A000C26FCA6B900ED56E400ED66EEC0ED46E39
:1002B000780ED36E030E0F011B6F030E1C6F1A6BAB
:1002C000C00EF26E120084EC01F0E8DFD6DEFBDE39
:1002D0000F011AB1FCD71AB3FAD73A8039C03BF0F4
:1002E0000BDFFBD7FFD73F003D003E0040003D0045
:1002F0003E0040003F0040003F003D003E003E0009
:1003000040003F003D00000010EE17F0220E006E8E
:10031000010E016EE60EF66E020EF76E000EF86E1E
:1003200046EC01F01200FFFFFFFFFFFFFFFFFFFFA2
:020000040030CA
:0C0000007229E3BF7F3FFF170300FF02DF
:00000001FF
