:100000001BEF00F00000000000EF00F00000000017
:0A0010000000000000000000F3D71C
:10001C008FA002D08FB015848FA015948FA202D020
:0A002C008FB215808FA2159012000C
:100036000F0E0F01596F216B2E6B116B030E8A6E1B
:100046008C6A886A8F6A916A100E8D6E856A876AD5
:10005600100E836E030E206F030E1D6F1594159000
:10006600166A176A1582D7DF16C018F017C019F07E
:10007600800E006E800E1718005C02E11650030811
:1000860003E28398166A176A15A407D015A203D04F
:10009600164A172A1592838A878015A004D0838A68
:0A00A600878087828784E0D7FFD7A8
:020000040030CA
:0C0000007729E3BF7F3FFF170300FF02DA
:00000001FF
