:1000000037EF1EF0FFFFFFFF0E01CAAB06D0060E52
:10001000D46ED36ACA9B154A162A0F011AA106D0BC
:100020000E01C2A903D00F011A9120880F011AA353
:1000300006D00E01C2A903D00F011A93208A110025
:100040000B820BAE2AEF00F00368026801680068BB
:100050000A360232FF0E1200026A016A006A086A5A
:10006000036A000E12000B840BAE3EEF00F0010E8F
:10007000036E026A016A006A0A360232FF0E12003B
:100080000AAE029E000E12000CB086EF00F00CA229
:100090002CEF01F00E6A000E02649DEF00F0F00EEE
:1000A0000214D8A468EF00F0023A01380F0B0226C0
:1000B0000138F00B016E00380F0B01260038F00BF1
:1000C000006E08380F0B00260838F00B086E0E84FF
:1000D000D89002BE81EF00F00836003601360236B5
:1000E0000E2A02BE81EF00F00836003601360236D5
:1000F0000E2A02BE81EF00F00836003601360236C5
:100100000E2A0E50036422EF01F0035E0BBC08AE12
:1001100027EF01F0D880800E08640030000E002226
:1001200001220222D8A027EF01F002320132003270
:10013000034A2CEF01F027EF01F001C002F000C0EC
:1001400001F008C000F0086A000E0E860264D4EFC9
:1001500000F0F00E0214D8A4BCEF00F0023A01380F
:100160000F0B02260138F00B016E00380F0B012631
:100170000038F00B006E0E84D89002BE81EF00F0C4
:100180000036013602360E2A02BE81EF00F000363C
:10019000013602360E2A02BE81EF00F0003601362B
:1001A00002360E2A81EF00F001C002F000C001F01B
:1001B000006A000E0E960E88026401EF01F0F00E48
:1001C0000214D8A4ECEF00F0023A01380F0B02261B
:1001D0000138F00B016E0E84D89002BE81EF00F062
:1001E000013602360E2A02BE81EF00F001360236D9
:1001F0000E2A02BE81EF00F0013602360E2A81EF90
:1002000000F001C002F0016A000E0E86026431EFB8
:1002100001F0F00E0214D8A410EF01F0023A0E849F
:10022000D89002BE81EF00F002360E2A02BE81EFA6
:1002300000F002360E2A02BE81EF00F002360E2ACE
:1002400081EF00F0010E0C6E0EDF34EF01F0020EB4
:100250000C6E16DF34EF01F0040E0C6EF1DE34EF9D
:1002600001F0080E0C6EF8DE120001340836093673
:100270000450085E0550D8A0053C095E00360136E2
:100280000F0E0C6E013408360936045000A006D05B
:10029000085E0550D8A0053C095E05D0082605502B
:1002A000D8B0053C0926003601360C2EEBD700B03D
:1002B00006D0045008260550D8B0053C0926000099
:1002C00012000B800BAE6DEF01F0026A0AAEFF0E5A
:1002D000026E016E006E0A360232FF0E12000B6AC9
:1002E0000B86FF0E1200086A096A000E076203649B
:1002F000F8EF01F0025006180A6E075003267E0E32
:10030000D8A089EF01F0035ED8B0FCEF01F08DEFCB
:1003100001F0035ED8A000EF02F0028E068E02C04C
:100320000EF001C00BF000C00DF000500402F4CF3D
:100330000CF001500502F4CF00F0F3CF08F00402F6
:10034000F3500C26F4500822000E00220D50050236
:10035000F3500C26F4500822000E00220250040232
:10036000F3500826F450002202500502016A000EE4
:100370000122F3500026F45001220D500602F350E2
:100380000826F4500022026A000E012202220B50BD
:100390000602F3500026F4500122000E02220E50F5
:1003A0000602F3500126F450022202BEE0EF01F0F3
:1003B00008360036013602360306D8B400EF02F0E4
:1003C000F3EF01F0D880800E08640030000E0022A8
:1003D00001220222D8A0F3EF01F0023201320032F2
:1003E000034AFCEF01F00AAE029E000E02EF02F09B
:1003F000010E32DE02EF02F0020E22DE02EF02F008
:10040000040E31DE12000D6A086A0050D8B4000CE8
:1004100004180A6E0ABE0D1E0B6A04AE02D0041E3A
:10042000042A00AE02D0001E002A005004100A6EFA
:100430000ABE1FD00450085E00360034083604504F
:1004400008260036060E0C6E00340836045000B044
:10045000085E00A0082600360C2EF6D700A008265D
:100460000BB015D00DAE000C001E002A081E082A85
:10047000000C04AE09D000BE04D00050086E006A23
:10048000F1D7006A002A000C001E0B2AD3D7082AD5
:100490000450085CD8A4E6D7086A002A00AEE2D768
:1004A000FF0C1200025006180E6E086A096A0B6AE9
:1004B0000350076445EF03F006500A6E068E028E65
:1004C00003500B6E0750036E000E0B6495EF02F0A5
:1004D0000B50075ED8B436EF03F0070E076404EF45
:1004E00003F0075E00C008F001C000F002C001F098
:1004F000026A074E36EF03F00764D9EF02F0075E99
:1005000000C008F001C000F0016A074E36EF03F0AA
:100510000764B7EF02F0075E00C008F0006A074EFC
:1005200036EF03F007649EEF02F00AC002F005C048
:1005300001F004C000F0086A62EF04F0030E0764E3
:10054000A9EF02F0075E08380F0B086E074E36EF72
:1005500003F0D8900832074E36EF03F0D8900832F7
:10056000074E36EF03F0D890083236EF03F0030E53
:100570000764C8EF02F0075E08380F0B086E0038FA
:10058000F00B082600380F0B006E074E36EF03F015
:10059000D89000320832074E36EF03F0D890003280
:1005A0000832074E36EF03F0D8900032083236EFAB
:1005B00003F0030E0764F0EF02F0075E08380F0B3C
:1005C000086E0038F00B082600380F0B006E01385B
:1005D000F00B002601380F0B016E074E36EF03F0CB
:1005E000D890013200320832074E36EF03F0D8902F
:1005F000013200320832074E36EF03F0D890013254
:100600000032083236EF03F0030E076421EF03F0E7
:10061000075E08380F0B086E0038F00B082600380C
:100620000F0B006E0138F00B002601380F0B016E26
:100630000238F00B012602380F0B026E074E36EF20
:1006400003F0D8900232013200320832074E36EF02
:1006500003F0D8900232013200320832074E36EFF2
:1006600003F0D8900232013200320832096A000EDB
:100670000EAE2AEF04F0081E001E011E021E082AFC
:100680000022012202222AEF04F00750D8A44BEFE7
:1006900003F062EF04F0096A02C00AF0028E068ECF
:1006A0000750035C076ED8B41DEF04F0070E076413
:1006B000EBEF03F0075E0450096E0550046E065020
:1006C000056E066A074E1DEF04F0070E0764C0EFC3
:1006D00003F0075E0450096E0550046E056A074E6C
:1006E0001DEF04F0070E07649EEF03F0075E045051
:1006F000096E046A074E1DEF04F0070E076485EFCC
:1007000003F00AC002F062EF04F0030E076490EFFA
:1007100003F0075E09380F0B096E074E1DEF04F05A
:10072000D8900932074E1DEF04F0D8900932074ED9
:100730001DEF04F0D89009321DEF04F0030E07649A
:10074000AFEF03F0075E09380F0B096E0438F00BAA
:10075000092604380F0B046E074E1DEF04F0D890E5
:1007600004320932074E1DEF04F0D89004320932EA
:10077000074E1DEF04F0D890043209321DEF04F04B
:10078000030E0764D7EF03F0075E09380F0B096EFD
:100790000438F00B092604380F0B046E0538F00BF3
:1007A000042605380F0B056E074E1DEF04F0D89098
:1007B000053204320932074E1DEF04F0D89005329D
:1007C00004320932074E1DEF04F0D890053204328E
:1007D00009321DEF04F0030E076408EF04F0075E12
:1007E00009380F0B096E0438F00B092604380F0B7B
:1007F000046E0538F00B042605380F0B056E06381D
:10080000F00B052606380F0B066E074E1DEF04F0A1
:10081000D8900632053204320932074E1DEF04F03B
:10082000D8900632053204320932074E1DEF04F02B
:10083000D8900632053204320932086A000E0EAE34
:100840002AEF04F0091E041E051E061E092A0422B2
:1008500005220622095008260450002205500122D4
:10086000065002220EBE41EF04F0D8A050EF04F073
:100870000232013200320832033E50EF04F05CEFE6
:1008800004F0D8B056EF04F0000E081E001E011E42
:10089000021E082A0022012202220A7E56EF04F0DC
:1008A000010E0C6E44EC00F064EF04F0020E0C6ECE
:1008B00044EC00F064EF04F0040E0C6E20EC00F049
:1008C00064EF04F0000E0C6E1200086A080E0C6E45
:1008D000003408360450085ED8B002D00826D890FC
:1008E00000360C2EF5D712000B6A0C6A0A6A086AE9
:1008F0000350D8B4FCEF04F0028E9E0E035E03BEDC
:1009000087EF04F0D8B487EF04F0ECEF04F0036C49
:10091000080E035CD8A0B9EF04F0036E083600C0DF
:1009200008F001C000F002C001F0026A080E035C8A
:10093000D8A0B9EF04F0036E083600C008F001C07B
:1009400000F0016A080E035CD8A0B9EF04F0036E52
:10095000083600C008F0006A080E035CD8A0B9EFA2
:1009600004F0036E0836086A0350D8A4D890C5EF87
:1009700004F00350D8B4C5EF04F0D890023201322D
:1009800000320832032EBDEF04F00BBC08A0D6EFF6
:1009900004F0D8A0D6EF04F0082AD8B4002AD8B4BE
:1009A000012AD8B4022A02BE00EF05F00AAEFCEF1D
:1009B00004F0021E011E001E081E082AD8B4002AD8
:1009C000D8B4012AD8B4022AFCEF04F0026A016A02
:1009D000006A086AFCEF04F00B800BAE05EF05F02F
:1009E000026A0AAE05EF05F0026E016E006E086E37
:1009F0000A36023205EF05F0000E0C6A06EF05F02C
:100A0000010E0C6E5EDC06EF05F0FF0E0250036E69
:100A10000150026E0050016E0850006E12000B6A09
:100A20000A6A096A086A0E6A033408360450085EC6
:100A30000550D8A0053C095E0650D8A0063C0A5EC9
:100A40000750D8A0073C0B5EE86AD8A0010E0E5EE6
:100A50000336070E0C6E0334083609360A360B3699
:100A60000E36045003A012D0085E0550D8A0053CF5
:100A7000095E0650D8A0063C0A5E0750D8A0073C85
:100A80000B5EE86AD8A0010E0E5E11D00826055054
:100A9000D8B0053C09260650D8B0063C0A260750B7
:100AA000D8B0073C0B26E86AD8B0010E0E260336F4
:100AB0000C2ED1D70234083609360A360B360E36DC
:100AC000045003A012D0085E0550D8A0053C095E72
:100AD0000650D8A0063C0A5E0750D8A0073C0B5E23
:100AE000E86AD8A0010E0E5E11D008260550D8B0D5
:100AF000053C09260650D8B0063C0A260750D8B057
:100B0000073C0B26E86AD8B0010E0E260236070E07
:100B10000C6E0234083609360A360B360E3604508F
:100B200002A012D0085E0550D8A0053C095E065010
:100B3000D8A0063C0A5E0750D8A0073C0B5EE86AC6
:100B4000D8A0010E0E5E11D008260550D8B0053C85
:100B500009260650D8B0063C0A260750D8B0073CF4
:100B60000B26E86AD8B0010E0E2602360C2ED1D71D
:100B70000134083609360A360B360E36045002A008
:100B800012D0085E0550D8A0053C095E0650D8A0DA
:100B9000063C0A5E0750D8A0073C0B5EE86AD8A066
:100BA000010E0E5E11D008260550D8B0053C09266E
:100BB0000650D8B0063C0A260750D8B0073C0B2692
:100BC000E86AD8B0010E0E260136070E0C6E01340D
:100BD000083609360A360B360E36045001A012D0FC
:100BE000085E0550D8A0053C095E0650D8A0063C1A
:100BF0000A5E0750D8A0073C0B5EE86AD8A0010E39
:100C00000E5E11D008260550D8B0053C09260650C6
:100C1000D8B0063C0A260750D8B0073C0B26E86A35
:100C2000D8B0010E0E2601360C2ED1D7003408366E
:100C300009360A360B360E36045001A012D0085E73
:100C40000550D8A0053C095E0650D8A0063C0A5EB7
:100C50000750D8A0073C0B5EE86AD8A0010E0E5ED4
:100C600011D008260550D8B0053C09260650D8B04A
:100C7000063C0A260750D8B0073C0B26E86AD8B0D5
:100C8000010E0E260036070E0C6E003408360936AB
:100C90000A360B360E36045000A012D0085E0550FE
:100CA000D8A0053C095E0650D8A0063C0A5E075055
:100CB000D8A0073C0B5EE86AD8A0010E0E5E11D0EA
:100CC00008260550D8B0053C09260650D8B0063C89
:100CD0000A260750D8B0073C0B26E86AD8B0010EA8
:100CE0000E2600360C2ED1D700B00ED004500826A8
:100CF0000550D8B0053C09260650D8B0063C0A2657
:100D00000750D8B0073C0B261200067E52EC02F0CA
:100D100012000050086E0150006E0250016E035028
:100D2000026E036A0B6A0C6A9E0E036E0A6A020E5A
:100D30000C6E44EC00F012000450000A12E1055061
:100D4000000A0FE10650000A0CE10750000A09E111
:100D5000FF0E006EFF0E016E7F0E026EFF0E036E21
:100D6000A8D0086A096A0750D8B447EF07F00350C3
:100D7000D8B44CEF07F0025006180A6E028E068EA9
:100D80000E6A02C008F001C00CF000C00DF0045063
:100D90000D5E0550D8A0053C0C5E0650D8A0063C60
:100DA000085E086A0C6A0D6AD8A0DEEF06F0D890DB
:100DB0000232013200320832010E0E6E0750035E1D
:100DC000D8A0EBEF06F07E0E0E240326D8B051EF2C
:100DD00007F0F1EF06F07E0E0E240326D8A056EFA2
:100DE00007F0180E0B6E0D360C360836003601363D
:100DF00002360E360450005E0550D8A0053C015E58
:100E00000650D8A0063C025E06340E120EA00CEF6F
:100E100007F00D8017EF07F0045000260550D8B0FA
:100E2000053C01260650D8B0062802260D900B2E50
:100E3000F3EF06F03DEF07F0D890003601360236AA
:100E40000E360450005E0550D8A0053C015E0650E9
:100E5000D8A0063C025E06340E10010B0D26D8B059
:100E60000C2AD8B4082AD8A43DEF07F008320C3277
:100E70000D32032AD8B451EF07F00AAE089E08508D
:100E8000026E0C50016E0D50006E59EF07F0010E0E
:100E90006FEC01F059EF07F0020E2CEC00F059EF67
:100EA00007F0040E20EC00F059EF07F0080E33ECC9
:100EB00000F012000A6A0350D8A40A800750D8A490
:100EC0000A820A50D8B4BDEF07F0030AD8B476EF0F
:100ED00007F00AB071EF07F006AEBBEF07F0B9EF0D
:100EE00007F002AEB9EF07F0BBEF07F00250800B3E
:100EF0000A6E029E0650800B069E0A18D8B487EF31
:100F000007F00A50D8B4B9EF07F0BBEF07F007506D
:100F1000035CD8B491EF07F0D8A0ADEF07F0B3EFC2
:100F200007F00650025CD8B49BEF07F0D8A0ADEFF5
:100F300007F0B3EF07F00550015CD8B4A5EF07F058
:100F4000D8A0ADEF07F0B3EF07F00450005CD8B4C1
:100F5000BDEF07F0D8B0B3EF07F00A52D8B4BBEF3B
:100F600007F0B9EF07F00A52D8B4B9EF07F0BBEFBA
:100F700007F0D8801200D8901200D880D8841200D0
:100F800012000450000A08E10550000A05E1FF0EB6
:100F9000006E7F0E016E58D00D6A096A086A015012
:100FA0000010D8B4000C015005180A6E0ABE0D1EC0
:100FB0000B6A05AE05D0041E051E042AD8B4052A06
:100FC00001AE05D0001E011E002AD8B4012A01502E
:100FD00005100A6E0ABE10D035EC01F00BB020D01F
:100FE0000DAE000C001E011E002AD8B4012A081EF6
:100FF000091E082AD8B4092A000C05AE0DD001BE7E
:1010000007D00150096E0050086E016A006AE8D7E7
:10101000016A006A002A000C011E001E0B2ADDD79F
:10102000082AD8B4092A0450085CD8A4D9D7055096
:10103000095CD8A4D5D7096A086A002AD8B4012A5D
:1010400001AECED70000FF0C12005F50390806E356
:10105000300E5F5C03E3010E006E01D0006A1200E7
:101060000B6A0A6A096A00500402F4CF09F0F3CF50
:1010700008F001500502F4CF0BF0F3CF0AF0005056
:101080000502F3500926F4500A22E86A0B220150A7
:101090000402F3500926F4500A22E86A0B2208C021
:1010A00000F009C001F00AC002F00BC003F012000A
:1010B000800E5F18006E800E000A005CD8B06DD103
:1010C0005F500008016E01C05FF0800E0118006ED5
:1010D000800E6E0A005CD8A0C0D0640E046E5FC0A3
:1010E00000F003EC02F0120E0024056E000E00BEAC
:1010F000FF0E066E000E062205C000F006C001F0CD
:10110000000E06BEFF0E026E036E00360090013622
:101110000236033600360090013602360336C60E1C
:101120000024F66E3D0E0120F76E000E0220F86ED0
:101130000900F5CF60F00900F5CF61F00900F5CFA7
:1011400062F00900F5CF63F0640E046E5FC000F03A
:1011500003EC02F008C000F00A0E046E03EC02F08B
:10116000090E0024056E000E00BEFF0E066E000E76
:10117000062205C000F006C001F0000E06BEFF0EFC
:10118000026E036E003600900136023603360036DA
:101190000090013602360336C60E0024F66E3D0E70
:1011A0000120F76E000E0220F86E0900F5CF00F066
:1011B0000900F5CF01F00900F5CF02F00900F5CFE5
:1011C00003F060C004F061C005F062C006F063C0C7
:1011D00007F073EC01F000C060F001C061F002C0E4
:1011E00062F003C063F00A0E046E5FC000F003EC0F
:1011F00002F008C000F000C001F0000E00BEFF0EBB
:10120000026E036E046E0136019002360336043618
:1012100001360190023603360436C60E0124F66EFE
:101220003D0E0220F76E000E0320F86E0900F5CF88
:1012300000F00900F5CF01F00900F5CF02F0090038
:10124000F5CF03F060C004F061C005F062C006F0A5
:1012500063C007F073EC01F007D2800E0A0A006E3B
:10126000800E5F18005C71E20A0E046E5FC000F031
:1012700003EC02F0090E0024056E000E00BEFF0E06
:10128000066E000E062205C000F006C001F0000E3A
:1012900006BEFF0E026E036E003600900136023667
:1012A000033600360090013602360336C60E00249F
:1012B000F66E3D0E0120F76E000E0220F86E09005A
:1012C000F5CF60F00900F5CF61F00900F5CF62F0CD
:1012D0000900F5CF63F00A0E046E5FC000F003EC66
:1012E00002F008C000F000C001F0000E00BEFF0ECA
:1012F000026E036E046E0136019002360336043628
:1013000001360190023603360436C60E0124F66E0D
:101310003D0E0220F76E000E0320F86E0900F5CF97
:1013200000F00900F5CF01F00900F5CF02F0090047
:10133000F5CF03F060C004F061C005F062C006F0B4
:1013400063C007F073EC01F08FD15FC000F0000EB6
:101350005FBEFF0E016E026E036E00360090013616
:101360000236033600360090013602360336C60ECA
:101370000024F66E3D0E0120F76E000E0220F86E7E
:101380000900F5CF00F00900F5CF01F00900F5CF15
:1013900002F00900F5CF03F067D1800E5F18006EF0
:1013A000800E6E0A005CD8A0C0D0640E046E5FC0D0
:1013B00000F003EC02F0120E0024056E000E00BED9
:1013C000FF0E066E000E062205C000F006C001F0FA
:1013D000000E06BEFF0E026E036E00360090013650
:1013E0000236033600360090013602360336920E7E
:1013F0000024F66E3D0E0120F76E000E0220F86EFE
:101400000900F5CF60F00900F5CF61F00900F5CFD4
:1014100062F00900F5CF63F0640E046E5FC000F067
:1014200003EC02F008C000F00A0E046E03EC02F0B8
:10143000090E0024056E000E00BEFF0E066E000EA3
:10144000062205C000F006C001F0000E06BEFF0E29
:10145000026E036E00360090013602360336003607
:101460000090013602360336920E0024F66E3D0ED1
:101470000120F76E000E0220F86E0900F5CF00F093
:101480000900F5CF01F00900F5CF02F00900F5CF12
:1014900003F060C004F061C005F062C006F063C0F4
:1014A00007F073EC01F000C060F001C061F002C011
:1014B00062F003C063F00A0E046E5FC000F003EC3C
:1014C00002F008C000F000C001F0000E00BEFF0EE8
:1014D000026E036E046E0136019002360336043646
:1014E00001360190023603360436920E0124F66E60
:1014F0003D0E0220F76E000E0320F86E0900F5CFB6
:1015000000F00900F5CF01F00900F5CF02F0090065
:10151000F5CF03F060C004F061C005F062C006F0D2
:1015200063C007F073EC01F09FD0800E0A0A006ED2
:10153000800E5F18005C71E20A0E046E5FC000F05E
:1015400003EC02F0090E0024056E000E00BEFF0E33
:10155000066E000E062205C000F006C001F0000E67
:1015600006BEFF0E026E036E003600900136023694
:10157000033600360090013602360336920E002400
:10158000F66E3D0E0120F76E000E0220F86E090087
:10159000F5CF60F00900F5CF61F00900F5CF62F0FA
:1015A0000900F5CF63F00A0E046E5FC000F003EC93
:1015B00002F008C000F000C001F0000E00BEFF0EF7
:1015C000026E036E046E0136019002360336043655
:1015D00001360190023603360436920E0124F66E6F
:1015E0003D0E0220F76E000E0320F86E0900F5CFC5
:1015F00000F00900F5CF01F00900F5CF02F0090075
:10160000F5CF03F060C004F061C005F062C006F0E1
:1016100063C007F073EC01F027D05FC000F0000E4C
:101620005FBEFF0E016E026E036E00360090013643
:101630000236033600360090013602360336920E2B
:101640000024F66E3D0E0120F76E000E0220F86EAB
:101650000900F5CF00F00900F5CF01F00900F5CF42
:1016600002F00900F5CF03F012006E0E5F5CD8A007
:10167000CAD0640E046E5FC000F065EC04F0120E78
:101680000024056E066A000E062205C000F006C0A2
:1016900001F0000E06BEFF0E026E036E00360090D3
:1016A0000136023603360036009001360236033624
:1016B000C60E0024F66E3D0E0120F76E000E0220CD
:1016C000F86E0900F5CF00F00900F5CF01F0090030
:1016D000F5CF02F00900F5CF03F0000E046E000E06
:1016E000056E000E066E7E0E076E73EC01F000C0F4
:1016F00060F001C061F002C062F003C063F0640EEC
:10170000046E5FC000F065EC04F008C000F00A0E43
:10171000046E65EC04F0090E0024056E066A000EE6
:10172000062205C000F006C001F0000E06BEFF0E46
:10173000026E036E00360090013602360336003624
:101740000090013602360336C60E0024F66E3D0EBA
:101750000120F76E000E0220F86E0900F5CF00F0B0
:101760000900F5CF01F00900F5CF02F00900F5CF2F
:1017700003F060C004F061C005F062C006F063C011
:1017800007F073EC01F000C060F001C061F002C02E
:1017900062F003C063F00A0E046E5FC000F065ECF7
:1017A00004F008C000F000C001F0000E026E036EED
:1017B000046E01360190023603360436013601907C
:1017C000023603360436C60E0124F66E3D0E0220A4
:1017D000F76E000E0320F86E0900F5CF00F0090047
:1017E000F5CF01F00900F5CF02F00900F5CF03F0C5
:1017F00060C004F061C005F062C006F063C007F08D
:1018000073EC01F0B1D05F500A08D8B07ED00A0E58
:10181000046E5FC000F065EC04F0090E0024056E54
:10182000066A000E062205C000F006C001F0000E98
:1018300006BEFF0E026E036E0036009001360236C1
:10184000033600360090013602360336C60E0024F9
:10185000F66E3D0E0120F76E000E0220F86E0900B4
:10186000F5CF00F00900F5CF01F00900F5CF02F047
:101870000900F5CF03F0000E046E000E056E000E99
:10188000066E7E0E076E73EC01F000C060F001C0C2
:1018900061F002C062F003C063F00A0E046E5FC024
:1018A00000F065EC04F008C000F000C001F0000E8C
:1018B000026E036E046E0136019002360336043662
:1018C00001360190023603360436C60E0124F66E48
:1018D0003D0E0220F76E000E0320F86E0900F5CFD2
:1018E00000F00900F5CF01F00900F5CF02F0090082
:1018F000F5CF03F060C004F061C005F062C006F0EF
:1019000063C007F073EC01F02FD05FC000F0000E51
:10191000016E026E036E0036009001360236033609
:1019200000360090013602360336C60E0024F66EED
:101930003D0E0120F76E000E0220F86E0900F5CF73
:1019400000F00900F5CF01F00900F5CF02F0090021
:10195000F5CF03F0000E046E000E056E000E066E4D
:101960007E0E076E73EC01F012000B6A0C6A086AB7
:101970000350D8B439EF0DF002C00AF0028E9E0E6B
:10198000035E03AE29EF0DF0036C080E035CD8A0D4
:10199000F6EF0CF0036E083600C008F001C000F04E
:1019A00002C001F0026A080E035CD8A0F6EF0CF04A
:1019B000036E083600C008F001C000F0016A080E8E
:1019C000035CD8A0F6EF0CF0036E083600C008F0F8
:1019D000006A080E035CD8A0F6EF0CF0036E083620
:1019E000086A0350D8A4D89002EF0DF00350D8B481
:1019F00002EF0DF0D8900232013200320832032E8D
:101A0000FAEF0CF00BBC08A013EF0DF0D8A013EF09
:101A10000DF0082AD8B4002AD8B4012AD8B4022A72
:101A200002BE3DEF0DF00AAE39EF0DF0021E011EB1
:101A3000001E081E082AD8B4002AD8B4012AD8B437
:101A4000022A39EF0DF0026A016A006A086A39EF6A
:101A50000DF00B800BAE44EF0DF0026A0AAE44EFBE
:101A60000DF0026E016E006E086E0A36023244EF0F
:101A70000DF00C6A000E45EF0DF0010E0C6E000E1D
:101A800061EC01F045EF0DF0FF0E0250036E0150C6
:101A9000026E0050016E0850006E120003500718CD
:101AA000D8A462EF0DF002500618D8A462EF0DF032
:101AB00001500518D8A462EF0DF000500418D8B4F6
:101AC000D8841200D89412001200576A586A4B6AE0
:101AD0004C6A39C000F03AC001F03BC002F0010E80
:101AE0003926000E3A223B2200C0F6FF01C0F7FF64
:101AF00002C0F8FF0900F5CF00F000C048F0005226
:101B0000D8B464EF1DF04850250A0BE037C0E1FF60
:101B100038C0E2FF48C0E6FF374A382A574A582AF9
:101B2000D8D7496A4A6A4B6A4C6A23D04B86010E61
:101B30003926000E3A223B2259D04B80010E39261D
:101B4000000E3A223B2252D04B82010E3926000E63
:101B50003A223B224BD04C86010E3926000E3A2207
:101B60003B2244D04B84010E3926000E3A223B2200
:101B70003DD039C0F6FF3AC0F7FF3BC0F8FF09007F
:101B8000F5CF01F001502D0AD1E039C0F6FF3AC07F
:101B9000F7FF3BC0F8FF0900F5CF01F00150200A24
:101BA000CCE039C0F6FF3AC0F7FF3BC0F8FF0900B0
:101BB000F5CF01F001502B0AC7E039C0F6FF3AC05B
:101BC000F7FF3BC0F8FF0900F5CF01F00150230AF1
:101BD000C2E039C0F6FF3AC0F7FF3BC0F8FF09008A
:101BE000F5CF01F00150300ABDE001D09ED74BB2D5
:101BF0004B904BB64B9439C0F6FF3AC0F7FF3BC051
:101C0000F8FF0900F5CF00F0000E016E00C05FF094
:101C100025EC08F0005236E0496A4A6A49C000F0F3
:101C20004AC001F00A0E046E000E056E30EC08F09A
:101C300039C0F6FF3AC0F7FF3BC0F8FF0900F5CF07
:101C400002F002500024496E000E01204A6E300E50
:101C5000495E000E4A5A010E3926000E3A223B22F6
:101C600039C0F6FF3AC0F7FF3BC0F8FF0900F5CFD7
:101C700000F0000E016E00C05FF025EC08F000528D
:101C8000CDE133D039C0F6FF3AC0F7FF3BC0F8FFD3
:101C90000900F5CF01F001502A0A27E13CC0E9FF15
:101CA0003DC0EAFFEECF00F0EECF01F000C0E9FF4B
:101CB00001C0EAFFEECF49F0EECF4AF03CC0E9FFA9
:101CC0003DC0EAFF020EEE24006E000EEE20016E13
:101CD0003CC0E1FF3DC0E2FF00C0E6FF01C0E6FFFF
:101CE000010E3926000E3A223B2239C0F6FF3AC0D7
:101CF000F7FF3BC0F8FF0900F5CF01F001502E0AB5
:101D000070E1010E3926000E3A223B2239C0F6FF5F
:101D10003AC0F7FF3BC0F8FF0900F5CF01F00150D2
:101D20002A0A28E13CC0E9FF3DC0EAFFEECF00F0FF
:101D3000EECF01F000C0E9FF01C0EAFFEECF46F0B0
:101D4000EECF47F03CC0E9FF3DC0EAFF020EEE24B3
:101D5000006E000EEE20016E3CC0E1FF3DC0E2FFD0
:101D600000C0E6FF01C0E6FF010E3926000E3A2250
:101D70003B2236D0466A476A39C0F6FF3AC0F7FFC1
:101D80003BC0F8FF0900F5CF00F0000E016E00C067
:101D90005FF025EC08F0005223E046C000F047C099
:101DA00001F00A0E046E000E056E30EC08F039C02A
:101DB000F6FF3AC0F7FF3BC0F8FF0900F5CF02F08D
:101DC00002500024466E000E0120476E300E465E23
:101DD000000E475A010E3926000E3A223B22CCD77C
:101DE00003D0466A476A4C8839C000F03AC001F017
:101DF0003BC002F0010E3926000E3A223B2200C001
:101E0000F6FF01C0F7FF02C0F8FF0900F5CF48F068
:101E1000F9D057C000F058C001F068EF1DF04B88B2
:101E2000E3D74C842ED14B8A4C802BD14C8229D1C4
:101E30004B8C27D126D14B8A4B8E23D13CC0E9FF56
:101E40003DC0EAFFEECF00F0EECF01F000C0E9FFA9
:101E500001C0EAFFEECF53F0EECF54F03CC0E9FFF3
:101E60003DC0EAFF020EEE24006E000EEE20016E71
:101E70003CC0E1FF3DC0E2FF00C0E6FF01C0E6FF5D
:101E8000000E541802E1000E531804E1170E536EB1
:101E9000000E546E556A566A55505324E96E5650DA
:101EA0005420EA6EEE520BE0010E5524006E000E37
:101EB0005620016E00C055F001C056F0EDD74650D7
:101EC00047100AE05650475C02E15550465C04E278
:101ED00046C055F047C056F04A50565C02E14950A2
:101EE000555C05E25550495E56504A5A02D0496A3F
:101EF0004A6A4BB616D049C000F04AC001F0010E44
:101F0000495E000E4A5A005001100BE037C0E1FF55
:101F100038C0E2FF200EE66E374A382A574A582A60
:101F2000EAD755C002F056C003F0010E555C006EB2
:101F3000000E5658016E00C055F001C056F0025018
:101F4000031019E053C0E9FF54C0EAFF37C0E1FFB6
:101F500038C0E2FFEECFE6FF374A382A010E53249D
:101F6000006E000E5420016E00C053F001C054F00A
:101F7000574A582AD6D74BA616D049C000F04AC0B7
:101F800001F0010E495E000E4A5A005001100BE0AC
:101F900037C0E1FF38C0E2FF200EE66E374A382A2C
:101FA000574A582AEAD795D53CC0E9FF3DC0EAFF19
:101FB000EECF00F0EECF01F000C0E9FF01C0EAFF74
:101FC000EECF48F03CC0E9FF3DC0EAFF020EEE2430
:101FD000006E000EEE20016E3CC0E1FF3DC0E2FF4E
:101FE00000C0E6FF01C0E6FF480E536E000E546EBF
:101FF000010E556E000E566E62D7C00E4B12000ECB
:102000004C123FD04850000AD8B403D748506C0A4D
:10201000D8B405D748504C0AD8B401D74850660AFE
:10202000D8B4FFD64850450AD8B4FDD64850650A02
:10203000D8B4FAD64850670AD8B4F8D648506F0AD0
:10204000D8B4F6D64850640AD8B4F4D64850690AD1
:10205000D8B4F0D64850700AD8B4EDD64850580AD3
:10206000D8B4E9D64850780AD8B4E6D64850730AAE
:10207000D8B4E4D64850630A97E04850750ABDE0EA
:10208000B3D7000E4B14006E4C50070B016E00507E
:102090000110D8B40BEF19F04CA804D0060E466E10
:1020A000000E476E3CC0E9FF3DC0EAFFEECF00F0F6
:1020B000EECF01F000C0E9FF01C0EAFFEECF4DF026
:1020C000EECF4EF0EECF4FF0EECF50F03CC0E9FF38
:1020D0003DC0EAFF040EEE24006E000EEE20016EFD
:1020E0003CC0E1FF3DC0E2FF00C0E6FF01C0E6FFEB
:1020F000046A056A066A076A4DC000F04EC001F026
:102100004FC002F050C003F05AEC07F0010ED8B0F7
:10211000000E006E005205E04F7E030E4B12000EC3
:102120004C12516A526A4DC000F04EC001F04FC0CF
:1021300002F050C003F0046A056A066A076AAEDC62
:10214000000ED8A4010E006E0052D8B488D050C042
:1021500000F0016A026A036AFF0E0016000E011603
:102160007E0E005E000E015A00C051F001C052F018
:10217000010E005E000E015A00C051F001C052F085
:10218000030E046E000E056E30EC08F000C051F036
:1021900001C052F00A0E046E000E056EC1EC07F08D
:1021A00000C051F001C052F0800E0118026E800E86
:1021B000025C02E1000E005C04E2010E515E000EC2
:1021C000525A515000085F6E58EC08F04DC004F0B0
:1021D0004EC005F04FC006F050C007F073EC01F0A0
:1021E00000C053F001C054F002C055F003C056F0D7
:1021F000000E046E000E056E000E066E7F0E076E5A
:1022000053C000F054C001F055C002F056C003F0B6
:102210005AEC07F0010ED8B0000E006E005205E037
:10222000010E515E000E525A1AD0000E046E000EBE
:10223000056E200E066E820E076E53C000F054C06D
:1022400001F055C002F056C003F05AEC07F0000E42
:10225000D8B0010E006E005202E0514A522A800EA0
:10226000006E800E5218005C02E15150000803E33A
:10227000010E486E02D051C048F04CB018D04CA2AC
:1022800015D0800E5218006E7F0E005C02E1FC0E2D
:10229000515C0BE3800E5218006E800E4718005CF4
:1022A00002E14650515C01E201D001D0E9D3465031
:1022B000471006E04CA204D0010E465E000E475ABD
:1022C000000E006E4750005C02E14650080803E231
:1022D000080E486E02D046C048F04DC000F04EC017
:1022E00001F04FC002F050C003F0046A056A066AAC
:1022F000076A4EEC0DF0000ED8A4010E006E0052DD
:10230000D8B447D151C05FF058EC08F000C004F0D9
:1023100001C005F002C006F003C007F04DC000F098
:102320004EC001F04FC002F050C003F09CEC06F02C
:1023300000C04DF001C04EF002C04FF003C050F09D
:10234000485000085F6E58EC08F000C004F001C06F
:1023500005F002C006F003C007F04DC000F04EC00B
:1023600001F04FC002F050C003F09CEC06F000C03A
:1023700059F001C05AF002C05BF003C05CF059C0D4
:102380004DF05AC04EF05BC04FF05CC050F059C0E9
:1023900000F05AC001F05BC002F05CC003F074ECC6
:1023A00004F089EC06F000C004F001C005F002C0A2
:1023B00006F003C007F059C000F05AC001F05BC03E
:1023C00002F05CC003F085EC06F0000E046E000E17
:1023D000056E000E066E7E0E076E5AEC07F0000EBC
:1023E000D8B0010E006E00521AE04DC000F04EC091
:1023F00001F04FC002F050C003F0000E046E000E5A
:10240000056E000E066E7E0E076E52EC02F000C0E6
:102410004DF001C04EF002C04FF003C050F04DC06F
:1024200000F04EC001F04FC002F050C003F074EC59
:1024300004F04850010F096E0A6A000E0A2209C012
:1024400004F00AC005F0000E0ABEFF0E066E076E0D
:1024500004360490053606360736043604900536F1
:10246000063607362A0E0424F66E3E0E0520F76E59
:10247000000E0620F86E0900F5CF05F00900F5CF33
:1024800006F00900F5CF07F00900F5CF08F0085075
:10249000035C08E10750025C05E10650015C02E1C3
:1024A0000550005C1DE34DC000F04EC001F04FC070
:1024B00002F050C003F0CD0E046ECC0E056E4C0E33
:1024C000066E7B0E076E73EC01F000C04DF001C08C
:1024D0004EF002C04FF003C050F0514A522A59D07A
:1024E0004DC000F04EC001F04FC002F050C003F0EC
:1024F00074EC04F048C004F0000E056E066E076E22
:102500000436049005360636073604360490053640
:10251000063607362A0E0424F66E3E0E0520F76EA8
:10252000000E0620F86E0900F5CF05F00900F5CF82
:1025300006F00900F5CF07F00900F5CF08F00850C4
:10254000035C08E10750025C05E10650015C02E112
:102550000550005C1EE24DC000F04EC001F04FC0BF
:1025600002F050C003F0000E046E000E056E200E47
:10257000066E820E076E73EC01F000C04DF001C0D4
:102580004EF002C04FF003C050F0010E515E000E3D
:10259000525A4CA293D04CB691D0800E000A006ED5
:1025A000800E4718005C02E146500A0804E20A0E59
:1025B000466E000E476E4DC000F04EC001F04FC099
:1025C00002F050C003F074EC04F000C053F001C0FE
:1025D00054F002C055F003C056F05350541055103B
:1025E000561042E00A0E046E000E056E066E076E6F
:1025F00053C000F054C001F055C002F056C003F0C3
:102600000FEC05F008C000F009C001F00AC002F0AC
:102610000BC003F0000E046E031808E1045002180A
:1026200005E10450011802E10050000A1DE1010E0D
:10263000465E000E475A0A0E046E000E056E066EC8
:10264000076E53C000F054C001F055C002F056C0F0
:1026500003F00FEC05F000C053F001C054F002C0CD
:1026600055F003C056F0B9D7800E4718006E800EA3
:10267000005C02E14850465C21E24650485C5F6ED7
:1026800058EC08F000C004F001C005F002C006F0EC
:1026900003C007F04DC000F04EC001F04FC002F083
:1026A00050C003F09CEC06F000C04DF001C04EF0AD
:1026B00002C04FF003C050F046C048F0050E46245B
:1026C000006E000E4720016E0050495E01504A5ACC
:1026D0004650471003E14CB601D004D0010E495ECC
:1026E000000E4A5A030E4B14006E4CC001F0000E4F
:1026F00001160050011004E0010E495E000E4A5A16
:102700004BA439D04BA212D04BA003D02D0E3E6E5D
:1027100002D02B0E3E6E37C0E1FF38C0E2FF3EC054
:10272000E6FF374A382A574A582A0CD04BA00AD01D
:1027300037C0E1FF38C0E2FF200EE66E374A382A84
:10274000574A582A800E006E800E4A18005C02E13B
:10275000495000080FE237C0E1FF38C0E2FF300EF9
:10276000E66E374A382A574A582A010E495E000E4B
:102770004A5AE8D73AD04BB618D0800E006E800E79
:102780004A18005C02E1495000080FE237C0E1FF3F
:1027900038C0E2FF200EE66E374A382A574A582AD8
:1027A000010E495E000E4A5AE8D74BA212D04BA048
:1027B00003D02D0E3F6E02D02B0E3F6E37C0E1FFCF
:1027C00038C0E2FF3FC0E6FF374A382A574A582A46
:1027D0000CD04BA00AD037C0E1FF38C0E2FF200E7A
:1027E000E66E374A382A574A582A4DC000F04EC084
:1027F00001F04FC002F050C003F074EC04F000C0D0
:1028000053F001C054F002C055F003C056F048C068
:1028100000F0000E016E026E036E0036009001366D
:1028200002360336003600900136023603362A0E91
:102830000024F66E3E0E0120F76E000E0220F86EA8
:102840000900F5CF04F00900F5CF05F00900F5CF38
:1028500006F00900F5CF07F053C000F054C001F0B6
:1028600055C002F056C003F00FEC05F0300E002604
:1028700037C0E1FF38C0E2FF00C0E6FF374A382A20
:10288000574A582A4650471003E14CB601D06FD042
:1028900037C0E1FF38C0E2FF2E0EE66E374A382A15
:1028A000574A582A4850465E000E475A48524DE053
:1028B000480648C000F0000E016E026E036E00363E
:1028C000009001360236033600360090013602369B
:1028D00003362A0E0024F66E3E0E0120F76E000E1F
:1028E0000220F86E0900F5CF04F00900F5CF05F0DD
:1028F0000900F5CF06F00900F5CF07F053C000F04E
:1029000054C001F055C002F056C003F00FEC05F0C2
:102910000A0E046E000E056E066E076E0FEC05F0D3
:1029200008C000F009C001F00AC002F00BC003F0BB
:10293000300E002637C0E1FF38C0E2FF00C0E6FFDE
:10294000374A382A574A582AB1D7465047100FE01D
:1029500037C0E1FF38C0E2FF300EE66E374A382A52
:10296000574A582A010E465E000E475AEED74BAA28
:102970000BD037C0E1FF38C0E2FF450EE66E374AA4
:10298000382A574A582A0AD037C0E1FF38C0E2FF38
:10299000650EE66E374A382A574A582A800E521872
:1029A000006E800E005C02E1000E515C11E251509D
:1029B0000008516E5250000E525637C0E1FF38C029
:1029C000E2FF2D0EE66E374A382A574A582A0AD0B7
:1029D00037C0E1FF38C0E2FF2B0EE66E374A382AD7
:1029E000574A582A0A0E046E000E056E51C000F0B8
:1029F00052C001F0C1EC07F0300E002637C0E1FFF5
:102A000038C0E2FF00C0E6FF374A382A574A582A42
:102A10000A0E046E000E056E51C000F052C001F0A7
:102A2000C1EC07F008C000F009C001F0300E00262C
:102A300037C0E1FF38C0E2FF00C0E6FF374A382A5E
:102A4000574A582A4BA61AD0800E006E800E4A189C
:102A5000005C02E14950000811E237C0E1FF38C0D4
:102A6000E2FF200EE66E374A382A574A582A010EEE
:102A7000495E000E4A5A49504A10EFE169EF0DF0E5
:102A80004CA2F3D0800E5218006E800E005C02E162
:102A9000000E515C0AE2010E515C006E000E5258AD
:102AA000016E0050465E0150475A4DC000F04EC0C6
:102AB00001F04FC002F050C003F074EC04F000C00D
:102AC00053F001C054F002C055F003C056F0010E9F
:102AD000486E48500A0A34E048C000F0000E016E0B
:102AE000026E036E00360090013602360336003661
:102AF00000900136023603362A0E0024F66E3E0E92
:102B00000120F76E000E0220F86E0900F5CF01F0EB
:102B10000900F5CF02F00900F5CF03F00900F5CF69
:102B200004F00450565C08E10350555C05E1025086
:102B3000545C02E10150535C01E202D0482AC9D73B
:102B40004850465C5D6E000E47585E6E5DC046F0B4
:102B50005EC047F053C000F054C001F055C002F011
:102B600056C003F089EC06F000C004F001C005F087
:102B700002C006F003C007F04DC000F04EC001F0E7
:102B80004FC002F050C003F085EC06F000C059F0D1
:102B900001C05AF002C05BF003C05CF05DC05FF0A2
:102BA00058EC08F059C004F05AC005F05BC006F0BC
:102BB0005CC007F073EC01F0000E046E000E056EB1
:102BC000000E066E7E0E076E52EC02F074EC04F0FE
:102BD00000C053F001C054F002C055F003C056F0DD
:102BE0004650471042E00A0E046E000E056E066E57
:102BF000076E53C000F054C001F055C002F056C03B
:102C000003F00FEC05F008C000F009C001F00AC0A5
:102C100002F00BC003F0000E046E031808E104502C
:102C2000021805E10450011802E10050000A1DE1FC
:102C30000A0E046E000E056E066E076E53C000F09D
:102C400054C001F055C002F056C003F00FEC05F07F
:102C500000C053F001C054F002C055F003C056F05C
:102C6000010E465E000E475ABBD7800E006E800EE6
:102C70004718005C02E146500C0816E346C05FF0BE
:102C800035EC0BF04DC004F04EC005F04FC006F01F
:102C900050C007F052EC02F000C04DF001C04EF001
:102CA00002C04FF003C050F04DC000F04EC001F024
:102CB0004FC002F050C003F0046A056A066A076A52
:102CC0004EEC0DF0000ED8A4010E006E0052D8B4E8
:102CD00074D04DC000F04EC001F04FC002F050C0A3
:102CE00003F074EC04F0000E046E031808E10450C5
:102CF000021805E10450011802E10050000A5DE1EC
:102D0000800E006E800E5218005C02E151500108E6
:102D100054E251C05FF058EC08F000C004F001C06C
:102D200005F002C006F003C007F04DC000F04EC031
:102D300001F04FC002F050C003F09CEC06F05F0EB3
:102D4000046E700E056E090E066E810E076E5AEC4B
:102D500007F0010ED8B0000E006E005205E0090E1B
:102D6000515E000E525A04D0080E515E000E525AA7
:102D700051C05FF058EC08F000C004F001C005F04D
:102D800002C006F003C007F04DC000F04EC001F0D5
:102D90004FC002F050C003F09CEC06F074EC04F05D
:102DA00000C053F001C054F002C055F003C056F00B
:102DB0004D6A4E6A4F6A506A38D04DC000F04EC01E
:102DC00001F04FC002F050C003F074EC04F000C0FA
:102DD00053F001C054F002C055F003C056F053C088
:102DE00000F054C001F055C002F056C003F089EC69
:102DF00006F000C004F001C005F002C006F003C0F8
:102E000007F04DC000F04EC001F04FC002F050C0BE
:102E100003F085EC06F000C04DF001C04EF002C09A
:102E20004FF003C050F0516A526A010E486E48508C
:102E30000A0A34E048C000F0000E016E026E036E14
:102E40000036009001360236033600360090013617
:102E5000023603362A0E0024F66E3E0E0120F76E6F
:102E6000000E0220F86E0900F5CF01F00900F5CF41
:102E700002F00900F5CF03F00900F5CF04F004508B
:102E8000565C08E10350555C05E10250545C02E1D8
:102E90000150535C01E202D0482AC9D74850462469
:102EA000006E000E4720016E515000265250012244
:102EB0000050495E01504A5A4CB604D04650471063
:102EC00001E104D0010E495E000E4A5A030E4B1474
:102ED000006E4CC001F0000E01160050011004E01D
:102EE000010E495E000E4A5A4BA439D04BA212D0B3
:102EF0004BA003D02D0E406E02D02B0E406E37C07B
:102F0000E1FF38C0E2FF40C0E6FF374A382A574A9F
:102F1000582A0CD04BA00AD037C0E1FF38C0E2FFDE
:102F2000200EE66E374A382A574A582A800E006E1D
:102F3000800E4A18005C02E1495000080FE237C0D9
:102F4000E1FF38C0E2FF300EE66E374A382A574AB2
:102F5000582A010E495E000E4A5AE8D73AD04BB6BD
:102F600018D0800E006E800E4A18005C02E14950B5
:102F700000080FE237C0E1FF38C0E2FF200EE66E26
:102F8000374A382A574A582A010E495E000E4A5AD3
:102F9000E8D74BA212D04BA003D02D0E416E02D029
:102FA0002B0E416E37C0E1FF38C0E2FF41C0E6FFA3
:102FB000374A382A574A582A0CD04BA00AD037C073
:102FC000E1FF38C0E2FF200EE66E374A382A574A42
:102FD000582A48C000F0480600524CE048C000F0B3
:102FE000000E016E026E036E00360090013602364E
:102FF0000336003600900136023603362A0E0024CE
:10300000F66E3E0E0120F76E000E0220F86E0900EB
:10301000F5CF04F00900F5CF05F00900F5CF06F073
:103020000900F5CF07F053C000F054C001F055C0BF
:1030300002F056C003F00FEC05F00A0E046E000E0D
:10304000056E066E076E0FEC05F008C000F009C0B3
:1030500001F00AC002F00BC003F0300E002637C0AA
:10306000E1FF38C0E2FF00C0E6FF374A382A574A7E
:10307000582AAFD7800E006E800E5218005C02E115
:10308000515000080FE237C0E1FF38C0E2FF300EB8
:10309000E66E374A382A574A582A010E515E000E0A
:1030A000525AE8D7800E000A006E800E4718005C66
:1030B00002E14650080803E2080E486E02D046C0FE
:1030C00048F04850465E000E475A485203E14CB65D
:1030D00001D00AD037C0E1FF38C0E2FF2E0EE66E05
:1030E000374A382A574A582A48C05FF058EC08F047
:1030F0004DC004F04EC005F04FC006F050C007F0C0
:1031000073EC01F0B5EC0CF000C053F001C054F0CA
:1031100002C055F003C056F048524DE0480648C082
:1031200000F0000E016E026E036E00360090013654
:1031300002360336003600900136023603362A0E78
:103140000024F66E3E0E0120F76E000E0220F86E8F
:103150000900F5CF04F00900F5CF05F00900F5CF1F
:1031600006F00900F5CF07F053C000F054C001F09D
:1031700055C002F056C003F00FEC05F00A0E046EC5
:10318000000E056E066E076E0FEC05F008C000F02D
:1031900009C001F00AC002F00BC003F0300E002697
:1031A00037C0E1FF38C0E2FF00C0E6FF374A382AE7
:1031B000574A582AB1D7465047100FE037C0E1FFB1
:1031C00038C0E2FF300EE66E374A382A574A582A8E
:1031D000010E465E000E475AEED74BA61AD0800E5F
:1031E000006E800E4A18005C02E14950000811E2AE
:1031F00037C0E1FF38C0E2FF200EE66E374A382ABA
:10320000574A582A010E495E000E4A5A49504A1040
:10321000EFE169EF0DF0C00E4B14016E4CC002F0EF
:10322000000E0216000E021802E1000E0118D8A4CA
:1032300080D04BA827D03CC0E9FF3DC0EAFFEECFCD
:1032400000F0EECF01F000C0E9FF01C0EAFFEECFD1
:1032500053F0EECF54F0EECF55F0EECF56F03CC029
:10326000E9FF3DC0EAFF040EEE24006E000EEE20E2
:10327000016E3CC0E1FF3DC0E2FF00C0E6FF01C0BF
:10328000E6FF2FD03CC0E9FF3DC0EAFFEECF00F0E3
:10329000EECF01F000C0E9FF01C0EAFFEECF00F081
:1032A000EECF01F0000E01BEFF0E026E036E00C0F5
:1032B00053F001C054F002C055F003C056F03CC0BA
:1032C000E9FF3DC0EAFF020EEE24006E000EEE2084
:1032D000016E3CC0E1FF3DC0E2FF00C0E6FF01C05F
:1032E000E6FF800E5618006E800E005C08E1000EAE
:1032F000555C05E1000E545C02E1000E535C18E2DF
:10330000030E4B12000E4C12006A016A026A036A35
:103310005350005E5450015A5550025A5650035AA9
:1033200000C053F001C054F002C055F003C056F085
:103330004ED04BA827D03CC0E9FF3DC0EAFFEECFFE
:1033400000F0EECF01F000C0E9FF01C0EAFFEECFD0
:1033500053F0EECF54F0EECF55F0EECF56F03CC028
:10336000E9FF3DC0EAFF040EEE24006E000EEE20E1
:10337000016E3CC0E1FF3DC0E2FF00C0E6FF01C0BE
:10338000E6FF25D03CC0E9FF3DC0EAFFEECF00F0EC
:10339000EECF01F000C0E9FF01C0EAFFEECF53F02D
:1033A000EECF54F0000E556E566E3CC0E9FF3DC0A6
:1033B000EAFF020EEE24006E000EEE20016E3CC00D
:1033C000E1FF3DC0E2FF00C0E6FF01C0E6FF000EE6
:1033D000471802E1000E46180FE1000E006E561865
:1033E00008E10050551805E10050541802E153500F
:1033F000000A02E1464A472AC00E4B14006E00C084
:1034000005F0AED0010E486E48500A0A34E048C0BC
:1034100000F0000E016E026E036E00360090013661
:1034200002360336003600900136023603362A0E85
:103430000024F66E3E0E0120F76E000E0220F86E9C
:103440000900F5CF01F00900F5CF02F00900F5CF32
:1034500003F00900F5CF04F00450565C08E1035076
:10346000555C05E10250545C02E10150535C01E2FD
:1034700002D0482AC9D782D0010E486E4850080AA7
:1034800034E048C000F0000E016E026E036E00369C
:1034900000900136023603360036009001360236BF
:1034A0000336520E0024F66E3E0E0120F76E000E1B
:1034B0000220F86E0900F5CF01F00900F5CF02F007
:1034C0000900F5CF03F00900F5CF04F00450565C75
:1034D00008E10350555C05E10250545C02E10150E3
:1034E000535C01E202D0482AC9D748D0010E486E89
:1034F00048500C0A34E048C000F0000E016E026E25
:10350000036E003600900136023603360036009016
:10351000013602360336FA0E0024F66E3D0E012007
:10352000F76E000E0220F86E0900F5CF01F00900D9
:10353000F5CF02F00900F5CF03F00900F5CF04F054
:103540000450565C08E10350555C05E10250545CA0
:1035500002E10150535C01E202D0482AC9D70ED0E3
:103560000550000AD8B44ED70550C00AD8B44AD77F
:103570000550800A81E00550400AB8E0800E006ED8
:10358000800E4718005C02E14650485C03E246C0EA
:1035900048F00DD0800E4718006E800E005C02E1EE
:1035A0004850465C04E248C046F0000E476E495061
:1035B0004A100EE0030E4B14006E4CC001F0000EDA
:1035C00001160050011004E0010E495E000E4A5A37
:1035D000800E4718006E800E4A18005C02E14950C8
:1035E000465C05E24650495E47504A5A02D0496A55
:1035F0004A6AC40E4B14016E4C50080B026E025006
:10360000080A02E1400E011808E149504A1004E09E
:10361000010E495E000E4A5A1CD0C00E4B14016EBA
:103620004C50080B026E0250080A02E1800E01188D
:1036300010E1800E006E800E4A18005C02E14950D5
:10364000020805E2020E495E000E4A5A02D0496A9B
:103650004A6A4BA45DD04BA212D04BA003D02D0ED2
:10366000426E02D02B0E426E37C0E1FF38C0E2FF3F
:1036700042C0E6FF374A382A574A582A34D04BA06E
:103680000BD037C0E1FF38C0E2FF200EE66E374AAC
:10369000382A574A582A27D0C00E4B14016E4C5076
:1036A000080B026E0250080A02E1800E01181BE1AD
:1036B00037C0E1FF38C0E2FF300EE66E374A382AE5
:1036C000574A582A4BAA03D0580E436E02D0780EA0
:1036D000436E37C0E1FF38C0E2FF43C0E6FF374A20
:1036E000382A574A582A49504A1011E037C0E1FF9A
:1036F00038C0E2FF300EE66E374A382A574A582A59
:10370000010E495E000E4A5A49504A10EFE174D04A
:1037100049504A1013E04BB611D037C0E1FF38C012
:10372000E2FF200EE66E374A382A574A582A010E21
:10373000495E000E4A5A49504A10EFE14BA212D09E
:103740004BA003D02D0E446E02D02B0E446E37C01A
:10375000E1FF38C0E2FF44C0E6FF374A382A574A43
:10376000582A0CD04BA00AD037C0E1FF38C0E2FF86
:10377000200EE66E374A382A574A582AC00E4B1494
:10378000016E4C50080B026E0250080A02E1400E16
:1037900001180BE137C0E1FF38C0E2FF300EE66EE2
:1037A000374A382A574A582A27D0C00E4B14016E80
:1037B0004C50080B026E0250080A02E1800E0118FC
:1037C0001BE137C0E1FF38C0E2FF300EE66E374A3A
:1037D000382A574A582A4BAA03D0580E456E02D0B1
:1037E000780E456E37C0E1FF38C0E2FF45C0E6FF06
:1037F000374A382A574A582A800E006E800E4718DA
:10380000005C02E14650485C0BE237C0E1FF38C083
:10381000E2FF300EE66E374A382A574A582AECD76C
:1038200046C000F047C001F0010E465E000E475A48
:1038300000500110D8B42AD1C00E4B14006E00C045
:1038400059F00AD146C000F047C001F0000E47BE53
:10385000FF0E026E036E003600900136023603360C
:10386000003600900136023603362A0E0024F66E2A
:103870003E0E0120F76E000E0220F86E0900F5CF13
:1038800004F00900F5CF05F00900F5CF06F00900B6
:10389000F5CF07F053C000F054C001F055C002F05E
:1038A00056C003F00FEC05F00A0E046E000E056E14
:1038B000066E076E0FEC05F008C000F009C001F0BD
:1038C0000AC002F00BC003F0300E0024486ED3D0C3
:1038D0004BAA45D046C000F047C001F0000E47BEDD
:1038E000FF0E026E036E003600900136023603367C
:1038F00000360090013602360336520E0024F66E72
:103900003E0E0120F76E000E0220F86E0900F5CF82
:1039100004F00900F5CF05F00900F5CF06F0090025
:10392000F5CF07F053C000F054C001F055C002F0CD
:1039300056C003F00FEC05F00F0E0016000E011636
:1039400002160316830E0024F66E3E0E0120F76E5B
:10395000000E0220F86E0900F5CF48F044D046C0B2
:1039600000F047C001F0000E47BEFF0E026E036E6E
:1039700000360090013602360336003600900136DC
:1039800002360336520E0024F66E3E0E0120F76E0C
:10399000000E0220F86E0900F5CF04F00900F5CF03
:1039A00005F00900F5CF06F00900F5CF07F053C088
:1039B00000F054C001F055C002F056C003F00FEC07
:1039C00005F00F0E0016000E011602160316720EF9
:1039D0000024F66E3E0E0120F76E000E0220F86EF7
:1039E0000900F5CF48F047D046C000F047C001F0CD
:1039F000000E47BEFF0E026E036E003600900136C9
:103A00000236033600360090013602360336FA0ECF
:103A10000024F66E3D0E0120F76E000E0220F86EB7
:103A20000900F5CF04F00900F5CF05F00900F5CF46
:103A300006F00900F5CF07F053C000F054C001F0C4
:103A400055C002F056C003F00FEC05F0070E00144D
:103A5000486E300E48260FD05950000AD8B4F2D61E
:103A60005950C00AD8B4EED65950800AD8B430D7CD
:103A70005950400AB9E037C0E1FF38C0E2FF48C002
:103A8000E6FF374A382A574A582ACAD64BA61AD0D0
:103A9000800E006E800E4A18005C02E1495000085A
:103AA00011E237C0E1FF38C0E2FF200EE66E374A70
:103AB000382A574A582A010E495E000E4A5A495080
:103AC0004A10EFE169EF0DF057C000F058C001F067
:103AD00012002F0E356E000E366E2AC037F02BC046
:103AE00038F02CC039F02DC03AF02EC03BF0350E26
:103AF0003C6E000E3D6E65EC0DF000C033F001C071
:103B000034F000502A24E16E01502B20E26EE66A68
:103B100033C000F034C001F01200300E0E01C26F4D
:103B2000CA6B900ED56E400ED66E060ED46ED36A5A
:103B3000030E0F011B6F030E1C6F1A6B0E01CA9B45
:103B4000C00EF26E1200818E0900F5CFE6FF00066E
:103B5000FBE10106F9E112000F0E0F01596F216B15
:103B60002E6B116B030E8A6E8C6A800E886E8F6AC4
:103B7000916A100E8D6E856A876A100E836E030E31
:103B8000206F030E1D6F396B356B120029C000F0DA
:103B90000032009E005029181E6E1F6A000E1F1A68
:103BA000000E1F6E210E2A6E000E2B6E9D0E2C6EC7
:103BB0003E0E2D6E000E2E6E1EC02FF01FC030F078
:103BC00030322F32309E30BC308E010E2F16000E58
:103BD00030161EC031F01FC032F0010E3116000E3B
:103BE000321677DF25D008D020A203D0010E006E58
:103BF00026D0630E006E23D02250310AF5E01ED08D
:103C000010D020A203D0020E006E19D0630E006EF9
:103C100016D020A203D0030E006E11D0630E006EEA
:103C20000ED02250310AEDE02250300AF2E006D0E8
:103C30002150300AD8E02150310AE2E0006A120037
:103C400020A808D08FA003D02096208C02D02086F8
:103C5000209C0CD020AA08D08FA203D020942080D2
:103C600002D02084209002D02098209A120051EC9B
:103C70001FF053DF71DFE4DF26C027F080D0839888
:103C800020A62BD020D025922580209E020E246EC7
:103C9000010E266E22D025922590208E030E246ED2
:103CA000010E266E1AD025822590209E010E246ECC
:103CB000010E266E12D025822590209E010E246EC4
:103CC000010E266E0AD02850010ADDE02850020AB3
:103CD000E2E02850030AE7E0EED759D020823CD03A
:103CE00025A211D024C029F051DF0050010A03E1C0
:103CF000838A87808792010E286E20AC03D0266AC3
:103D0000259201D0258231D025A011D024C029F0E0
:103D10003DDF0050020A03E1839A87808782020E0A
:103D2000286E20AC03D0266A259001D025801DD0B6
:103D300020AE11D024C029F029DF0050030A03E18E
:103D4000838A87908782030E286E20AC03D0266A70
:103D5000209E01D0208E09D02450010AC1E02450B9
:103D6000020AD2E02450030AE3E011D0266A276A4F
:103D700025922590209E246A020E286E08D0275096
:103D8000000AD8B47CD72750010AA8E0EFD773D730
:103D9000FFD70000007F000020820000488500005F
:103DA0007A8800401C8C0050438F002474928096C7
:103DB000189620BC3E99286B6E9CF90215A0EC78F1
:103DC0002DC1CAF249E20000007FCDCC4C7B0AD75E
:103DD00023786F12037517B75171ACC5276EBD37C5
:103DE000066B95BF566777CC2B645F700961FFE661
:103DF0005B5D08E53C3C6042221B010000000800BE
:103E000000004000000000020000001000000080E0
:103E1000000000000400000020000000000100007D
:103E200000080000004000000000010000000A003F
:103E3000000064000000E803000010270000A086D6
:103E4000010040420F008096980000E1F50500CA8D
:103E50009A3B01000000100000000001000000106B
:103E60000000000001000000100000000001000040
:103E7000001030313233343536373839616263649B
:103E80006566003031323334353637383941424394
:103E9000444546000000286E756C6C290025752588
:103EA000750010EE15F0090E006E010E016E940EF5
:103EB000F66E3E0EF76E000EF86EA3EC1DF01200CB
:020000040030CA
:0C0000007229C3BF7F3FFF170300FF02FF
:00000001FF
