:1000000070EF00F0FFFFFFFF0E01CAAB06D0060E37
:10001000D46ED36ACA9B154A162A0F011AA106D0BC
:100020000E01C2A903D00F011A91178A0F011AA35A
:1000300006D00E01C2A903D00F011A931780110038
:100040000F0E0F01596F216B2E6B116B030E8A6E11
:100050008C6A800E886E8F6A916A100E8D6E856A2A
:10006000876A100E836E030E206F030E1D6F396BAF
:10007000356B120017AA08D08FA003D01794178EE3
:1000800002D01784179E0CD017A008D08FA203D0DF
:100090001792178602D01782179602D0179A1790D8
:1000A0001200300E0E01C26FCA6B900ED56E400E5C
:1000B000D66E060ED46ED36A030E0F011B6F030EAD
:1000C0001C6F1A6B0E01CA9BC00EF26E1200818E5D
:1000D0000900F5CFE6FF0006FBE10106F9E1120099
:1000E000156A166ADEDFACDFC5DF18C01AF080D0F3
:1000F000839817A433D028D017981B821B90020E28
:100100001C6E000E1D6E010E186E28D017981B92E3
:100110001B80030E1C6E000E1D6E010E186E1ED08D
:1001200017881B921B90010E1C6E000E1D6E010E97
:10013000186E14D017881B921B90010E1C6E000EB7
:100140001D6E010E186E0AD01950010AD5E0195023
:10015000020ADCE01950030AE3E0ECD751D0178C17
:100160002AD017A80BD0838A87808792010E196E38
:1001700017AE03D0186A179801D017882ED01BA28B
:100180000BD0839A87808782020E196E17AE03D038
:10019000186A1B9201D01B8220D01BA00BD0838A2F
:1001A00087908782030E196E17AE03D0186A1B90D2
:1001B00001D01B8012D0000E1D1802E1010E1C1888
:1001C000D0E0000E1D1802E1020E1C18D8E0000E4F
:1001D0001D1802E1030E1C18E0E012D0186A1A6A1A
:1001E00017981B921B901C6A1D6A020E196E08D08C
:1001F0001A50000AD8B47CD71A50010AB0E0EED7E2
:1002000073D7FFD7FFFFFFFFFFFFFFFFFFFFFFFFDA
:020000040030CA
:0C0000007229C3BF7F3FFF170300FF02FF
:00000001FF
