:040000004EEF1EF0B1
:1000080000C016F001C015F00E01CAAB0ED0060EE6
:10001800D46ED36ACA9B010E1E24006E000E1F20E8
:10002800016E00C01EF001C01FF00F011AA106D01A
:100038000E01C2A903D00F011A9120860F011AA33D
:1000480006D00E01C2A903D00F011A93208416C04E
:0800580000F015C001F01100D9
:100060000B820BAE3AEF00F003680268016800688B
:080070000A360232FF0E1200F5
:0E007800026A016A006A086A036A000E12003A
:100086000B840BAE4EEF00F0010E036E026A016A9E
:0A009600006A0A360232FF0E120063
:0800A0000AAE029E000E1200E0
:1000A8000CB096EF00F00CA23CEF01F00E6A000EC7
:1000B8000264ADEF00F0F00E0214D8A478EF00F05F
:1000C800023A01380F0B02260138F00B016E003896
:1000D8000F0B01260038F00B006E08380F0B0026B6
:1000E8000838F00B086E0E84D89002BE91EF00F02D
:1000F80008360036013602360E2A02BE91EF00F0AD
:1001080008360036013602360E2A02BE91EF00F09C
:1001180008360036013602360E2A0E50036432EFD6
:1001280001F0035E0BBC08AE37EF01F0D880800EFB
:1001380008640030000E002201220222D8A037EF06
:1001480001F0023201320032034A3CEF01F037EF8E
:1001580001F001C002F000C001F008C000F0086A18
:10016800000E0E860264E4EF00F0F00E0214D8A42C
:10017800CCEF00F0023A01380F0B02260138F00BE1
:10018800016E00380F0B01260038F00B006E0E844C
:10019800D89002BE91EF00F00036013602360E2AE2
:1001A80002BE91EF00F00036013602360E2A02BE7A
:1001B80091EF00F00036013602360E2A91EF00F07A
:1001C80001C002F000C001F0006A000E0E960E8811
:1001D800026411EF01F0F00E0214D8A4FCEF00F055
:1001E800023A01380F0B02260138F00B016E0E841B
:1001F800D89002BE91EF00F0013602360E2A02BEF8
:1002080091EF00F0013602360E2A02BE91EF00F09F
:10021800013602360E2A91EF00F001C002F0016AA1
:10022800000E0E86026441EF01F0F00E0214D8A40D
:1002380020EF01F0023A0E84D89002BE91EF00F050
:1002480002360E2A02BE91EF00F002360E2A02BED6
:1002580091EF00F002360E2A91EF00F0010E0C6EBD
:100268000EDF44EF01F0020E0C6E16DF44EF01F0D2
:10027800040E0C6EF1DE44EF01F0080E0C6EF8DE91
:02028800120062
:10028A000134083609360450085E0550D8A0053CEA
:10029A00095E003601360F0E0C6E01340836093637
:1002AA00045000A006D0085E0550D8A0053C095E9F
:1002BA0005D008260550D8B0053C09260036013677
:1002CA000C2EEBD700B006D0045008260550D8B043
:0802DA00053C0926000012009A
:1002E2000B800BAE7DEF01F0026A0AAEFF0E026ECA
:0C02F200016E006E0A360232FF0E120090
:0802FE000B6A0B86FF0E1200D3
:10030600086A096A000E0762036408EF02F00250E9
:1003160006180A6E075003267E0ED8A099EF01F044
:10032600035ED8B00CEF02F09DEF01F0035ED8A09B
:1003360010EF02F0028E068E02C00EF001C00BF026
:1003460000C00DF000500402F4CF0CF0015005027D
:10035600F4CF00F0F3CF08F00402F3500C26F4506B
:100366000822000E00220D500502F3500C26F45010
:100376000822000E002202500402F3500826F45010
:10038600002202500502016A000E0122F3500026E7
:10039600F45001220D500602F3500826F4500022B4
:1003A600026A000E012202220B500602F3500026BA
:1003B600F4500122000E02220E500602F3500126CE
:1003C600F450022202BEF0EF01F008360036013684
:1003D60002360306D8B410EF02F003EF02F0D8801D
:1003E600800E08640030000E002201220222D8A0EE
:1003F60003EF02F0023201320032034A0CEF02F040
:100406000AAE029E000E12EF02F0010E32DE12EF6D
:1004160002F0020E22DE12EF02F0040E31DE1200AE
:100426000D6A086A0050D8B4000C04180A6E0ABE99
:100436000D1E0B6A04AE02D0041E042A00AE02D0C2
:10044600001E002A005004100A6E0ABE1FD0045077
:10045600085E003600340836045008260036060EBC
:100466000C6E00340836045000B0085E00A0082662
:1004760000360C2EF6D700A008260BB015D00DAE10
:10048600000C001E002A081E082A000C04AE09D023
:1004960000BE04D00050086E006AF1D7006A002A38
:1004A600000C001E0B2AD3D7082A0450085CD8A4D7
:0E04B600E6D7086A002A00AEE2D7FF0C12005B
:1004C400025006180E6E086A096A0B6A0350076424
:1004D40055EF03F006500A6E068E028E03500B6E23
:1004E4000750036E000E0B64A5EF02F00B50075E7D
:1004F400D8B446EF03F0070E076414EF03F0075E69
:1005040000C008F001C000F002C001F0026A074E0A
:1005140046EF03F00764E9EF02F0075E00C008F05D
:1005240001C000F0016A074E46EF03F00764C7EF0D
:1005340002F0075E00C008F0006A074E46EF03F0C1
:100544000764AEEF02F00AC002F005C001F004C077
:1005540000F0086A72EF04F0030E0764B9EF02F0CA
:10056400075E08380F0B086E074E46EF03F0D8906D
:100574000832074E46EF03F0D8900832074E46EF94
:1005840003F0D890083246EF03F0030E0764D8EF67
:1005940002F0075E08380F0B086E0038F00B0826CF
:1005A40000380F0B006E074E46EF03F0D890003270
:1005B4000832074E46EF03F0D89000320832074E57
:1005C40046EF03F0D8900032083246EF03F0030EF2
:1005D400076400EF03F0075E08380F0B086E00385D
:1005E400F00B082600380F0B006E0138F00B0026C4
:1005F40001380F0B016E074E46EF03F0D89001321D
:1006040000320832074E46EF03F0D8900132003230
:100614000832074E46EF03F0D89001320032083218
:1006240046EF03F0030E076431EF03F0075E08386A
:100634000F0B086E0038F00B082600380F0B006E05
:100644000138F00B002601380F0B016E0238F00B55
:10065400012602380F0B026E074E46EF03F0D890C6
:100664000232013200320832074E46EF03F0D890CE
:100674000232013200320832074E46EF03F0D890BE
:100684000232013200320832096A000E0EAE3AEF2D
:1006940004F0081E001E011E021E082A0022012268
:1006A40002223AEF04F00750D8A45BEF03F072EF94
:1006B40004F0096A02C00AF0028E068E0750035C39
:1006C400076ED8B42DEF04F0070E0764FBEF03F0B8
:1006D400075E0450096E0550046E0650056E066AE6
:1006E400074E2DEF04F0070E0764D0EF03F0075E0A
:1006F4000450096E0550046E056A074E2DEF04F090
:10070400070E0764AEEF03F0075E0450096E046A37
:10071400074E2DEF04F0070E076495EF03F00AC0AF
:1007240002F072EF04F0030E0764A0EF03F0075E1B
:1007340009380F0B096E074E2DEF04F0D8900932DB
:10074400074E2DEF04F0D8900932074E2DEF04F038
:10075400D89009322DEF04F0030E0764BFEF03F0C5
:10076400075E09380F0B096E0438F00B09260438AC
:100774000F0B046E074E2DEF04F0D89004320932AB
:10078400074E2DEF04F0D89004320932074E2DEFB6
:1007940004F0D890043209322DEF04F0030E0764FC
:1007A400E7EF03F0075E09380F0B096E0438F00B0E
:1007B400092604380F0B046E0538F00B042605389F
:1007C4000F0B056E074E2DEF04F0D890053204325E
:1007D4000932074E2DEF04F0D89005320432093265
:1007E400074E2DEF04F0D8900532043209322DEF74
:1007F40004F0030E076418EF04F0075E09380F0BCA
:10080400096E0438F00B092604380F0B046E053802
:10081400F00B042605380F0B056E0638F00B052681
:1008240006380F0B066E074E2DEF04F0D8900632F3
:10083400053204320932074E2DEF04F0D890063207
:10084400053204320932074E2DEF04F0D8900632F7
:10085400053204320932086A000E0EAE3AEF04F093
:10086400091E041E051E061E092A0422052206224C
:100874000950082604500022055001220650022285
:100884000EBE51EF04F0D8A060EF04F00232013242
:1008940000320832033E60EF04F06CEF04F0D8B08D
:1008A40066EF04F0000E081E001E011E021E082A38
:1008B4000022012202220A7E66EF04F0010E0C6E71
:1008C40054EC00F074EF04F0020E0C6E54EC00F0E3
:1008D40074EF04F0040E0C6E30EC00F074EF04F0CE
:0608E400000E0C6E120074
:1008EA00086A080E0C6E003408360450085ED8B048
:0E08FA0002D00826D89000360C2EF5D712003A
:100908000B6A0C6A0A6A086A0350D8B40CEF05F03F
:10091800028E9E0E035E03BE97EF04F0D8B497EFE5
:1009280004F0FCEF04F0036C080E035CD8A0C9EFD8
:1009380004F0036E083600C008F001C000F002C0E1
:1009480001F0026A080E035CD8A0C9EF04F0036E38
:10095800083600C008F001C000F0016A080E035C08
:10096800D8A0C9EF04F0036E083600C008F0006A8A
:10097800080E035CD8A0C9EF04F0036E0836086AB5
:100988000350D8A4D890D5EF04F00350D8B4D5EFCD
:1009980004F0D8900232013200320832032ECDEF33
:1009A80004F00BBC08A0E6EF04F0D8A0E6EF04F0D2
:1009B800082AD8B4002AD8B4012AD8B4022A02BE18
:1009C80010EF05F00AAE0CEF05F0021E011E001E26
:1009D800081E082AD8B4002AD8B4012AD8B4022A92
:1009E8000CEF05F0026A016A006A086A0CEF05F06C
:1009F8000B800BAE15EF05F0026A0AAE15EF05F095
:100A0800026E016E006E086E0A36023215EF05F0AE
:100A1800000E0C6A16EF05F0010E0C6E5EDC16EF88
:100A280005F0FF0E0250036E0150026E0050016E79
:060A38000850006E1200E0
:100A3E000B6A0A6A096A086A0E6A03340836045099
:100A4E00085E0550D8A0053C095E0650D8A0063CAD
:100A5E000A5E0750D8A0073C0B5EE86AD8A0010ECC
:100A6E000E5E0336070E0C6E0334083609360A3650
:100A7E000B360E36045003A012D0085E0550D8A0D7
:100A8E00053C095E0650D8A0063C0A5E0750D8A069
:100A9E00073C0B5EE86AD8A0010E0E5E11D0082648
:100AAE000550D8B0053C09260650D8B0063C0A269B
:100ABE000750D8B0073C0B26E86AD8B0010E0E26B8
:100ACE0003360C2ED1D70234083609360A360B36C9
:100ADE000E36045003A012D0085E0550D8A0053C77
:100AEE00095E0650D8A0063C0A5E0750D8A0073C07
:100AFE000B5EE86AD8A0010E0E5E11D008260550D6
:100B0E00D8B0053C09260650D8B0063C0A26075038
:100B1E00D8B0073C0B26E86AD8B0010E0E26023676
:100B2E00070E0C6E0234083609360A360B360E36B0
:100B3E00045002A012D0085E0550D8A0053C095EF4
:100B4E000650D8A0063C0A5E0750D8A0073C0B5EA4
:100B5E00E86AD8A0010E0E5E11D008260550D8B056
:100B6E00053C09260650D8B0063C0A260750D8B0D8
:100B7E00073C0B26E86AD8B0010E0E2602360C2E64
:100B8E00D1D70134083609360A360B360E360450E4
:100B9E0002A012D0085E0550D8A0053C095E065092
:100BAE00D8A0063C0A5E0750D8A0073C0B5EE86A48
:100BBE00D8A0010E0E5E11D008260550D8B0053C07
:100BCE0009260650D8B0063C0A260750D8B0073C76
:100BDE000B26E86AD8B0010E0E260136070E0C6EF3
:100BEE000134083609360A360B360E36045001A08B
:100BFE0012D0085E0550D8A0053C095E0650D8A05C
:100C0E00063C0A5E0750D8A0073C0B5EE86AD8A0E7
:100C1E00010E0E5E11D008260550D8B0053C0926EF
:100C2E000650D8B0063C0A260750D8B0073C0B2613
:100C3E00E86AD8B0010E0E2601360C2ED1D700343C
:100C4E00083609360A360B360E36045001A012D07D
:100C5E00085E0550D8A0053C095E0650D8A0063C9B
:100C6E000A5E0750D8A0073C0B5EE86AD8A0010EBA
:100C7E000E5E11D008260550D8B0053C0926065048
:100C8E00D8B0063C0A260750D8B0073C0B26E86AB7
:100C9E00D8B0010E0E260036070E0C6E0034083644
:100CAE0009360A360B360E36045000A012D0085EF6
:100CBE000550D8A0053C095E0650D8A0063C0A5E39
:100CCE000750D8A0073C0B5EE86AD8A0010E0E5E56
:100CDE0011D008260550D8B0053C09260650D8B0CC
:100CEE00063C0A260750D8B0073C0B26E86AD8B057
:100CFE00010E0E2600360C2ED1D700B00ED00450A9
:100D0E0008260550D8B0053C09260650D8B0063C3A
:0C0D1E000A260750D8B0073C0B26120034
:080D2A00067E62EC02F01200EB
:100D32000050086E0150006E0250016E0350026EA8
:100D4200036A0B6A0C6A9E0E036E0A6A020E0C6E2E
:060D520054EC00F0120059
:100D58000450000A12E10550000A0FE10650000A8B
:100D68000CE10750000A09E1FF0E006EFF0E016E4C
:100D78007F0E026EFF0E036EA8D0086A096A07503C
:100D8800D8B457EF07F00350D8B45CEF07F002501F
:100D980006180A6E028E068E0E6A02C008F001C09E
:100DA8000CF000C00DF004500D5E0550D8A0053CB5
:100DB8000C5E0650D8A0063C085E086A0C6A0D6AEC
:100DC800D8A0EEEF06F0D890023201320032083295
:100DD800010E0E6E0750035ED8A0FBEF06F07E0EE4
:100DE8000E240326D8B061EF07F001EF07F07E0E5E
:100DF8000E240326D8A066EF07F0180E0B6E0D36EA
:100E08000C3608360036013602360E360450005EBF
:100E18000550D8A0053C015E0650D8A0063C025EED
:100E280006340E120EA01CEF07F00D8027EF07F016
:100E3800045000260550D8B0053C01260650D8B00D
:100E4800062802260D900B2E03EF07F04DEF07F052
:100E5800D8900036013602360E360450005E055032
:100E6800D8A0053C015E0650D8A0063C025E0634B8
:100E78000E10010B0D26D8B00C2AD8B4082AD8A415
:100E88004DEF07F008320C320D32032AD8B461EF67
:100E980007F00AAE089E0850026E0C50016E0D5005
:100EA800006E69EF07F0010E7FEC01F069EF07F0C3
:100EB800020E3CEC00F069EF07F0040E30EC00F095
:0C0EC80069EF07F0080E43EC00F0120088
:100ED4000A6A0350D8A40A800750D8A40A820A5088
:100EE400D8B4CDEF07F0030AD8B486EF07F00AB000
:100EF40081EF07F006AECBEF07F0C9EF07F002AEC3
:100F0400C9EF07F0CBEF07F00250800B0A6E029E88
:100F14000650800B069E0A18D8B497EF07F00A50C3
:100F2400D8B4C9EF07F0CBEF07F00750035CD8B48F
:100F3400A1EF07F0D8A0BDEF07F0C3EF07F006500C
:100F4400025CD8B4ABEF07F0D8A0BDEF07F0C3EF55
:100F540007F00550015CD8B4B5EF07F0D8A0BDEF99
:100F640007F0C3EF07F00450005CD8B4CDEF07F0EE
:100F7400D8B0C3EF07F00A52D8B4CBEF07F0C9EFEB
:100F840007F00A52D8B4C9EF07F0CBEF07F0D880C6
:0E0F94001200D8901200D880D88412001200EB
:100FA2000450000A08E10550000A05E1FF0E006E38
:100FB2007F0E016E58D00D6A096A086A015000104E
:100FC200D8B4000C015005180A6E0ABE0D1E0B6A39
:100FD20005AE05D0041E051E042AD8B4052A01AEAA
:100FE20005D0001E011E002AD8B4012A01500510A6
:100FF2000A6E0ABE10D045EC01F00BB020D00DAE47
:10100200000C001E011E002AD8B4012A081E091E67
:10101200082AD8B4092A000C05AE0DD001BE07D0AB
:101022000150096E0050086E016A006AE8D7016A31
:10103200006A002A000C011E001E0B2ADDD7082AB6
:10104200D8B4092A0450085CD8A4D9D70550095C41
:10105200D8A4D5D7096A086A002AD8B4012A01AEF1
:08106200CED70000FF0C1200C4
:10106A0000016251390806E3300E625D03E3010EA6
:08107A00006E01D0006A1200B3
:101082000B6A0A6A096A00500402F4CF09F0F3CF2E
:1010920008F001500502F4CF0BF0F3CF0AF0005034
:1010A2000502F3500926F4500A22E86A0B22015085
:1010B2000402F3500926F4500A22E86A0B2208C0FF
:1010C20000F009C001F00AC002F00BC003F01200E8
:1010D200800E00016219006E800E000A005CD8B01A
:1010E2006DD162510008016E01C062F0800E0118DC
:1010F200006E800E6E0A005CD8A0C0D0640E046E32
:1011020062C000F013EC02F0120E0024056E000E15
:1011120000BEFF0E066E000E062205C000F006C0DD
:1011220001F0000E06BEFF0E026E036E0036009046
:101132000136023603360036009001360236033697
:10114200000E0024F66E3E0E0120F76E000E022005
:10115200F86E0900F5CF63F00900F5CF64F00900DD
:10116200F5CF65F00900F5CF66F0640E046E62C03B
:1011720000F013EC02F008C000F00A0E046E13EC4B
:1011820002F0090E0024056E000E00BEFF0E066E70
:10119200000E062205C000F006C001F0000E06BED9
:1011A200FF0E026E036E00360090013602360336E1
:1011B20000360090013602360336000E0024F66E29
:1011C2003E0E0120F76E000E0220F86E0900F5CFE8
:1011D20000F00900F5CF01F00900F5CF02F0090097
:1011E200F5CF03F063C004F064C005F065C006F0FB
:1011F20066C007F083EC01F000C063F001C064F048
:1012020002C065F003C066F00A0E046E62C000F010
:1012120013EC02F008C000F000C001F0000E00BEA6
:10122200FF0E026E036E046E013601900236033623
:10123200043601360190023603360436000E0124CC
:10124200F66E3E0E0220F76E000E0320F86E0900C5
:10125200F5CF00F00900F5CF01F00900F5CF02F05B
:101262000900F5CF03F063C004F064C005F065C067
:1012720006F066C007F083EC01F007D2800E0A0A7E
:10128200006E800E6219005C71E20A0E046E62C08A
:1012920000F013EC02F0090E0024056E000E00BEF1
:1012A200FF0E066E000E062205C000F006C001F019
:1012B200000E06BEFF0E026E036E0036009001366F
:1012C2000236033600360090013602360336000E2F
:1012D2000024F66E3E0E0120F76E000E0220F86E1C
:1012E2000900F5CF63F00900F5CF64F00900F5CFEE
:1012F20065F00900F5CF66F00A0E046E62C000F0D8
:1013020013EC02F008C000F000C001F0000E00BEB5
:10131200FF0E026E036E046E013601900236033632
:10132200043601360190023603360436000E0124DB
:10133200F66E3E0E0220F76E000E0320F86E0900D4
:10134200F5CF00F00900F5CF01F00900F5CF02F06A
:101352000900F5CF03F063C004F064C005F065C076
:1013620006F066C007F083EC01F08FD162C000F096
:10137200000E62BFFF0E016E026E036E0036009019
:101382000136023603360036009001360236033645
:10139200000E0024F66E3E0E0120F76E000E0220B3
:1013A200F86E0900F5CF00F00900F5CF01F0090051
:1013B200F5CF02F00900F5CF03F067D1800E621974
:1013C200006E800E6E0A005CD8A0C0D0640E046E5F
:1013D20062C000F013EC02F0120E0024056E000E43
:1013E20000BEFF0E066E000E062205C000F006C00B
:1013F20001F0000E06BEFF0E026E036E0036009074
:1014020001360236033600360090013602360336C4
:10141200CC0E0024F66E3D0E0120F76E000E022067
:10142200F86E0900F5CF63F00900F5CF64F009000A
:10143200F5CF65F00900F5CF66F0640E046E62C068
:1014420000F013EC02F008C000F00A0E046E13EC78
:1014520002F0090E0024056E000E00BEFF0E066E9D
:10146200000E062205C000F006C001F0000E06BE06
:10147200FF0E026E036E003600900136023603360E
:1014820000360090013602360336CC0E0024F66E8A
:101492003D0E0120F76E000E0220F86E0900F5CF16
:1014A20000F00900F5CF01F00900F5CF02F00900C4
:1014B200F5CF03F063C004F064C005F065C006F028
:1014C20066C007F083EC01F000C063F001C064F075
:1014D20002C065F003C066F00A0E046E62C000F03E
:1014E20013EC02F008C000F000C001F0000E00BED4
:1014F200FF0E026E036E046E013601900236033651
:10150200043601360190023603360436CC0E01242D
:10151200F66E3D0E0220F76E000E0320F86E0900F3
:10152200F5CF00F00900F5CF01F00900F5CF02F088
:101532000900F5CF03F063C004F064C005F065C094
:1015420006F066C007F083EC01F09FD0800E0A0A15
:10155200006E800E6219005C71E20A0E046E62C0B7
:1015620000F013EC02F0090E0024056E000E00BE1E
:10157200FF0E066E000E062205C000F006C001F046
:10158200000E06BEFF0E026E036E0036009001369C
:101592000236033600360090013602360336CC0E90
:1015A2000024F66E3D0E0120F76E000E0220F86E4A
:1015B2000900F5CF63F00900F5CF64F00900F5CF1B
:1015C20065F00900F5CF66F00A0E046E62C000F005
:1015D20013EC02F008C000F000C001F0000E00BEE3
:1015E200FF0E026E036E046E013601900236033660
:1015F200043601360190023603360436CC0E01243D
:10160200F66E3D0E0220F76E000E0320F86E090002
:10161200F5CF00F00900F5CF01F00900F5CF02F097
:101622000900F5CF03F063C004F064C005F065C0A3
:1016320006F066C007F083EC01F027D062C000F02C
:10164200000E62BFFF0E016E026E036E0036009046
:101652000136023603360036009001360236033672
:10166200CC0E0024F66E3D0E0120F76E000E022015
:10167200F86E0900F5CF00F00900F5CF01F009007E
:0C168200F5CF02F00900F5CF03F01200D4
:10168E006E0E0001625DD8A0CAD0640E046E62C0F8
:10169E0000F075EC04F0120E0024056E066A000EC2
:1016AE00062205C000F006C001F0000E06BEFF0EB9
:1016BE00026E036E00360090013602360336003697
:1016CE000090013602360336000E0024F66E3E0EF2
:1016DE000120F76E000E0220F86E0900F5CF00F023
:1016EE000900F5CF01F00900F5CF02F00900F5CFA2
:1016FE0003F0000E046E000E056E000E066E7E0EDA
:10170E00076E83EC01F000C063F001C064F002C00C
:10171E0065F003C066F0640E046E62C000F075ECF6
:10172E0004F008C000F00A0E046E75EC04F0090E09
:10173E000024056E066A000E062205C000F006C0E3
:10174E0001F0000E06BEFF0E026E036E0036009014
:10175E000136023603360036009001360236033665
:10176E00000E0024F66E3E0E0120F76E000E0220D3
:10177E00F86E0900F5CF00F00900F5CF01F0090071
:10178E00F5CF02F00900F5CF03F063C004F064C09A
:10179E0005F065C006F066C007F083EC01F000C0EE
:1017AE0063F001C064F002C065F003C066F00A0E7B
:1017BE00046E62C000F075EC04F008C000F000C0CA
:1017CE0001F0000E026E036E046E013601900236B9
:1017DE000336043601360190023603360436000E07
:1017EE000124F66E3E0E0220F76E000E0320F86EF8
:1017FE000900F5CF00F00900F5CF01F00900F5CF93
:10180E0002F00900F5CF03F063C004F064C005F0E8
:10181E0065C006F066C007F083EC01F0B1D06251EE
:10182E000A08D8B07ED00A0E046E62C000F075ECC5
:10183E0004F0090E0024056E066A000E062205C08D
:10184E0000F006C001F0000E06BEFF0E026E036E23
:10185E00003600900136023603360036009001360F
:10186E0002360336000E0024F66E3E0E0120F76E91
:10187E00000E0220F86E0900F5CF00F00900F5CF3A
:10188E0001F00900F5CF02F00900F5CF03F0000ECC
:10189E00046E000E056E000E066E7E0E076E83EC55
:1018AE0001F000C063F001C064F002C065F003C037
:1018BE0066F00A0E046E62C000F075EC04F008C00B
:1018CE0000F000C001F0000E026E036E046E0136D1
:1018DE000190023603360436013601900236033685
:1018EE000436000E0124F66E3E0E0220F76E000E38
:1018FE000320F86E0900F5CF00F00900F5CF01F0D6
:10190E000900F5CF02F00900F5CF03F063C004F033
:10191E0064C005F065C006F066C007F083EC01F008
:10192E002FD062C000F0000E016E026E036E003604
:10193E00009001360236033600360090013602362C
:10194E000336000E0024F66E3E0E0120F76E000EDA
:10195E000220F86E0900F5CF00F00900F5CF01F076
:10196E000900F5CF02F00900F5CF03F0000E046E6A
:10197E00000E056E000E066E7E0E076E83EC01F0F5
:02198E00120045
:101990000B6A0C6A086A0350D8B44CEF0DF002C011
:1019A0000AF0028E9E0E035E03AE3CEF0DF0036C58
:1019B000080E035CD8A009EF0DF0036E083600C0D6
:1019C00008F001C000F002C001F0026A080E035CDA
:1019D000D8A009EF0DF0036E083600C008F001C072
:1019E00000F0016A080E035CD8A009EF0DF0036E49
:1019F000083600C008F0006A080E035CD8A009EFA2
:101A00000DF0036E0836086A0350D8A4D89015EF7D
:101A10000DF00350D8B415EF0DF0D890023201321A
:101A200000320832032E0DEF0DF00BBC08A026EF9C
:101A30000DF0D8A026EF0DF0082AD8B4002AD8B4AB
:101A4000012AD8B4022A02BE50EF0DF00AAE4CEFC4
:101A50000DF0021E011E001E081E082AD8B4002A1E
:101A6000D8B4012AD8B4022A4CEF0DF0026A016AF8
:101A7000006A086A4CEF0DF00B800BAE57EF0DF0CB
:101A8000026A0AAE57EF0DF0026E016E006E086E2C
:101A90000A36023257EF0DF00C6A000E58EF0DF0C7
:101AA000010E0C6E000E71EC01F058EF0DF0FF0E00
:101AB0000250036E0150026E0050016E0850006E1D
:021AC000120012
:101AC20003500718D8A475EF0DF002500618D8A4D9
:101AD20075EF0DF001500518D8A475EF0DF0005008
:0E1AE2000418D8B4D8841200D8941200120050
:101AF0005A6A5B6A4E6A4F6A3CC000F03DC001F012
:101B00003EC002F0010E3C26000E3D223E2200C0E7
:101B1000F6FF01C0F7FF02C0F8FF0900F5CF00F0A3
:101B200000C04BF00052D8B47BEF1DF04B50250A9B
:101B30000BE03AC0E1FF3BC0E2FF4BC0E6FF3A4A90
:101B40003B2A5A4A5B2AD8D74C6A4D6A4E6A4F6A7A
:101B500023D04E86010E3C26000E3D223E2259D057
:101B60004E80010E3C26000E3D223E2252D04E8277
:101B7000010E3C26000E3D223E224BD04F86010E28
:101B80003C26000E3D223E2244D04E84010E3C26CF
:101B9000000E3D223E223DD03CC0F6FF3DC0F7FF87
:101BA0003EC0F8FF0900F5CF01F001502D0AD1E049
:101BB0003CC0F6FF3DC0F7FF3EC0F8FF0900F5CF7F
:101BC00001F00150200ACCE03CC0F6FF3DC0F7FF19
:101BD0003EC0F8FF0900F5CF01F001502B0AC7E025
:101BE0003CC0F6FF3DC0F7FF3EC0F8FF0900F5CF4F
:101BF00001F00150230AC2E03CC0F6FF3DC0F7FFF0
:101C00003EC0F8FF0900F5CF01F00150300ABDE0F9
:101C100001D09ED74EB24E904EB64E943CC0F6FFC9
:101C20003DC0F7FF3EC0F8FF0900F5CF00F0000E01
:101C3000016E00C062F035EC08F0005236E04C6AEC
:101C40004D6A4CC000F04DC001F00A0E046E000E4B
:101C5000056E41EC08F03CC0F6FF3DC0F7FF3EC00A
:101C6000F8FF0900F5CF02F0025000244C6E000E80
:101C700001204D6E300E4C5E000E4D5A010E3C267A
:101C8000000E3D223E223CC0F6FF3DC0F7FF3EC0A5
:101C9000F8FF0900F5CF00F0000E016E00C062F001
:101CA00035EC08F00052CDE133D03CC0F6FF3DC02A
:101CB000F7FF3EC0F8FF0900F5CF01F001502A0AF6
:101CC00027E13FC0E9FF40C0EAFFEECF00F0EECFD2
:101CD00001F000C0E9FF01C0EAFFEECF4CF0EECF0B
:101CE0004DF03FC0E9FF40C0EAFF020EEE24006E57
:101CF000000EEE20016E3FC0E1FF40C0E2FF00C0D9
:101D0000E6FF01C0E6FF010E3C26000E3D223E220A
:101D10003CC0F6FF3DC0F7FF3EC0F8FF0900F5CF1D
:101D200001F001502E0A70E1010E3C26000E3D220A
:101D30003E223CC0F6FF3DC0F7FF3EC0F8FF090061
:101D4000F5CF01F001502A0A28E13FC0E9FF40C069
:101D5000EAFFEECF00F0EECF01F000C0E9FF01C0D6
:101D6000EAFFEECF49F0EECF4AF03FC0E9FF40C0B6
:101D7000EAFF020EEE24006E000EEE20016E3FC060
:101D8000E1FF40C0E2FF00C0E6FF01C0E6FF010E38
:101D90003C26000E3D223E2236D0496A4A6A3CC0AB
:101DA000F6FF3DC0F7FF3EC0F8FF0900F5CF00F099
:101DB000000E016E00C062F035EC08F0005223E026
:101DC00049C000F04AC001F00A0E046E000E056E14
:101DD00041EC08F03CC0F6FF3DC0F7FF3EC0F8FF05
:101DE0000900F5CF02F002500024496E000E0120D8
:101DF0004A6E300E495E000E4A5A010E3C26000E15
:101E00003D223E22CCD703D0496A4A6A4F883CC063
:101E100000F03DC001F03EC002F0010E3C26000E75
:101E20003D223E2200C0F6FF01C0F7FF02C0F8FFCE
:101E30000900F5CF4BF0F9D05AC000F05BC001F0BB
:101E40007FEF1DF04E88E3D74F842ED14E8A4F800E
:101E50002BD14F8229D14E8C27D126D14E8A4E8E3E
:101E600023D13FC0E9FF40C0EAFFEECF00F0EECF44
:101E700001F000C0E9FF01C0EAFFEECF56F0EECF5F
:101E800057F03FC0E9FF40C0EAFF020EEE24006EAB
:101E9000000EEE20016E3FC0E1FF40C0E2FF00C037
:101EA000E6FF01C0E6FF000E571802E1000E5618CB
:101EB00004E1170E566E000E576E586A596A585054
:101EC0005624E96E59505720EA6EEE520BE0010E8F
:101ED0005824006E000E5920016E00C058F001C059
:101EE00059F0EDD749504A100AE059504A5C02E1D6
:101EF0005850495C04E249C058F04AC059F04D506E
:101F0000595C02E14C50585C05E258504C5E595007
:101F10004D5A02D04C6A4D6A4EB616D04CC000F0F5
:101F20004DC001F0010E4C5E000E4D5A00500110E4
:101F30000BE03AC0E1FF3BC0E2FF200EE66E3A4AFA
:101F40003B2A5A4A5B2AEAD758C002F059C003F02C
:101F5000010E585C006E000E5958016E00C058F01A
:101F600001C059F00250031019E056C0E9FF57C0F4
:101F7000EAFF3AC0E1FF3BC0E2FFEECFE6FF3A4A9C
:101F80003B2A010E5624006E000E5720016E00C041
:101F900056F001C057F05A4A5B2AD6D74EA616D043
:101FA0004CC000F04DC001F0010E4C5E000E4D5AC9
:101FB000005001100BE03AC0E1FF3BC0E2FF200EF1
:101FC000E66E3A4A3B2A5A4A5B2AEAD795D53FC081
:101FD000E9FF40C0EAFFEECF00F0EECF01F000C015
:101FE000E9FF01C0EAFFEECF4BF03FC0E9FF40C080
:101FF000EAFF020EEE24006E000EEE20016E3FC0DE
:10200000E1FF40C0E2FF00C0E6FF01C0E6FF4B0E6B
:10201000566E000E576E010E586E000E596E62D746
:10202000C00E4E12000E4F123FD04B50000AD8B4D3
:1020300003D74B506C0AD8B405D74B504C0AD8B4D0
:1020400001D74B50660AD8B4FFD64B50450AD8B4D6
:10205000FDD64B50650AD8B4FAD64B50670AD8B4AF
:10206000F8D64B506F0AD8B4F6D64B50640AD8B4A1
:10207000F4D64B50690AD8B4F0D64B50700AD8B495
:10208000EDD64B50580AD8B4E9D64B50780AD8B49C
:10209000E6D64B50730AD8B4E4D64B50630A97E0A7
:1020A0004B50750ABDE0B3D7000E4E14006E4F5072
:1020B000070B016E00500110D8B422EF19F04FA8A1
:1020C00004D0060E496E000E4A6E3FC0E9FF40C0C4
:1020D000EAFFEECF00F0EECF01F000C0E9FF01C053
:1020E000EAFFEECF50F0EECF51F0EECF52F0EECF50
:1020F00053F03FC0E9FF40C0EAFF040EEE24006E3B
:10210000000EEE20016E3FC0E1FF40C0E2FF00C0C4
:10211000E6FF01C0E6FF046A056A066A076A50C066
:1021200000F051C001F052C002F053C003F06AEC5D
:1021300007F0010ED8B0000E006E005205E0527E8E
:10214000030E4E12000E4F12546A556A50C000F032
:1021500051C001F052C002F053C003F0046A056A96
:10216000066A076AAEDC000ED8A4010E006E0052AB
:10217000D8B489D053C000F0016A026A036AFF0E26
:102180000016000E01167E0E005E000E015A00C001
:1021900054F001C055F0010E005E000E015A00C05F
:1021A00054F001C055F0030E046E000E056E41ECB4
:1021B00008F000C054F001C055F00A0E046E000E85
:1021C000056ED1EC07F000C054F001C055F0800E50
:1021D0000118026E800E025C02E1000E005C04E257
:1021E000010E545E000E555A545000080001626FF3
:1021F00069EC08F050C004F051C005F052C006F080
:1022000053C007F083EC01F000C056F001C057F056
:1022100002C058F003C059F0000E046E000E056EA7
:10222000000E066E7F0E076E56C000F057C001F01C
:1022300058C002F059C003F06AEC07F0010ED8B0A4
:10224000000E006E005205E0010E545E000E555A5D
:102250001AD0000E046E000E056E200E066E820E61
:10226000076E56C000F057C001F058C002F059C0C8
:1022700003F06AEC07F0000ED8B0010E006E0052B9
:1022800002E0544A552A800E006E800E5518005CFC
:1022900002E15450000803E3010E4B6E02D054C01B
:1022A0004BF04FB018D04FA215D0800E5518006ECD
:1022B0007F0E005C02E1FC0E545C0BE3800E5518AF
:1022C000006E800E4A18005C02E14950545C01E245
:1022D00001D001D0EBD349504A1006E04FA204D000
:1022E000010E495E000E4A5A000E006E4A50005C14
:1022F00002E14950080803E2080E4B6E02D049C0C3
:102300004BF050C000F051C001F052C002F053C079
:1023100003F0046A056A066A076A61EC0DF0000EB4
:10232000D8A4010E006E0052D8B448D154C062F057
:1023300069EC08F000C004F001C005F002C006F02E
:1023400003C007F050C000F051C001F052C002F0CD
:1023500053C003F0ACEC06F000C050F001C051F0E7
:1023600002C052F003C053F04B5000080001626FEE
:1023700069EC08F000C004F001C005F002C006F0EE
:1023800003C007F050C000F051C001F052C002F08D
:1023900053C003F0ACEC06F000C05CF001C05DF08F
:1023A00002C05EF003C05FF05CC050F05DC051F051
:1023B0005EC052F05FC053F05CC000F05DC001F041
:1023C0005EC002F05FC003F084EC04F099EC06F00C
:1023D00000C004F001C005F002C006F003C007F021
:1023E0005CC000F05DC001F05EC002F05FC003F0B1
:1023F00095EC06F0000E046E000E056E000E066EE3
:102400007E0E076E6AEC07F0000ED8B0010E006E6B
:1024100000521AE050C000F051C001F052C002F06A
:1024200053C003F0000E046E000E056E000E066E23
:102430007E0E076E62EC02F000C050F001C051F059
:1024400002C052F003C053F050C000F051C001F080
:1024500052C002F053C003F084EC04F04B50010F63
:10246000096E0A6A000E0A2209C004F00AC005F0CB
:10247000000E0ABEFF0E066E076E04360490053687
:102480000636073604360490053606360736640EDF
:102490000424F66E3E0E0520F76E000E0620F86E40
:1024A0000900F5CF05F00900F5CF06F00900F5CFDA
:1024B00007F00900F5CF08F00850035C08E1075069
:1024C000025C05E10650015C02E10550005C1DE381
:1024D00050C000F051C001F052C002F053C003F0F0
:1024E000CD0E046ECC0E056E4C0E066E7B0E076E86
:1024F00083EC01F000C050F001C051F002C052F076
:1025000003C053F0544A552A59D050C000F051C06E
:1025100001F052C002F053C003F084EC04F04BC051
:1025200004F0000E056E066E076E04360490053644
:102530000636073604360490053606360736640E2E
:102540000424F66E3E0E0520F76E000E0620F86E8F
:102550000900F5CF05F00900F5CF06F00900F5CF29
:1025600007F00900F5CF08F00850035C08E10750B8
:10257000025C05E10650015C02E10550005C1EE2D0
:1025800050C000F051C001F052C002F053C003F03F
:10259000000E046E000E056E200E066E820E076E93
:1025A00083EC01F000C050F001C051F002C052F0C5
:1025B00003C053F0010E545E000E555A4FA294D042
:1025C0004FB692D0800E000A006E800E4A18005C52
:1025D00002E149500A0804E20A0E496E000E4A6EF2
:1025E00050C000F051C001F052C002F053C003F0DF
:1025F00084EC04F000C056F001C057F002C058F05F
:1026000003C059F0565057105810591042E00A0EA6
:10261000046E000E056E066E076E56C000F057C0C1
:1026200001F058C002F059C003F01FEC05F008C0DB
:1026300000F009C001F00AC002F00BC003F0000E68
:10264000046E031808E10450021805E10450011853
:1026500002E10050000A1DE1010E495E000E4A5AD7
:102660000A0E046E000E056E066E076E56C000F070
:1026700057C001F058C002F059C003F01FEC05F03C
:1026800000C056F001C057F002C058F003C059F026
:10269000B9D7800E4A18006E800E005C02E14B50E4
:1026A000495C22E249504B5C0001626F69EC08F022
:1026B00000C004F001C005F002C006F003C007F03E
:1026C00050C000F051C001F052C002F053C003F0FE
:1026D000ACEC06F000C050F001C051F002C052F066
:1026E00003C053F049C04BF0050E4924006E000EA4
:1026F0004A20016E00504C5E01504D5A49504A101C
:1027000003E14FB601D004D0010E4C5E000E4D5ACD
:10271000030E4E14006E4FC001F0000E0116005063
:10272000011004E0010E4C5E000E4D5A4EA439D04B
:102730004EA212D04EA003D02D0E416E02D02B0E11
:10274000416E3AC0E1FF3BC0E2FF41C0E6FF3A4ABA
:102750003B2A5A4A5B2A0CD04EA00AD03AC0E1FF6D
:102760003BC0E2FF200EE66E3A4A3B2A5A4A5B2AF9
:10277000800E006E800E4D18005C02E14C50000887
:102780000FE23AC0E1FF3BC0E2FF300EE66E3A4A8C
:102790003B2A5A4A5B2A010E4C5E000E4D5AE8D77E
:1027A0003AD04EB618D0800E006E800E4D18005CE8
:1027B00002E14C5000080FE23AC0E1FF3BC0E2FFEB
:1027C000200EE66E3A4A3B2A5A4A5B2A010E4C5EBC
:1027D000000E4D5AE8D74EA212D04EA003D02D0EB7
:1027E000426E02D02B0E426E3AC0E1FF3BC0E2FFC8
:1027F00042C0E6FF3A4A3B2A5A4A5B2A0CD04EA016
:102800000AD03AC0E1FF3BC0E2FF200EE66E3A4A32
:102810003B2A5A4A5B2A50C000F051C001F052C016
:1028200002F053C003F084EC04F000C056F001C085
:1028300057F002C058F003C059F04BC000F0000E32
:10284000016E026E036E00360090013602360336CA
:1028500000360090013602360336640E0024F66E10
:102860003E0E0120F76E000E0220F86E0900F5CF33
:1028700004F00900F5CF05F00900F5CF06F00900D6
:10288000F5CF07F056C000F057C001F058C002F075
:1028900059C003F01FEC05F0300E00263AC0E1FFEE
:1028A0003BC0E2FF00C0E6FF3A4A3B2A5A4A5B2A95
:1028B00049504A1003E14FB601D06FD03AC0E1FF52
:1028C0003BC0E2FF2E0EE66E3A4A3B2A5A4A5B2A8A
:1028D0004B50495E000E4A5A4B524DE04B064BC0DE
:1028E00000F0000E016E026E036E0036009001369D
:1028F0000236033600360090013602360336640E87
:102900000024F66E3E0E0120F76E000E0220F86ED7
:102910000900F5CF04F00900F5CF05F00900F5CF67
:1029200006F00900F5CF07F056C000F057C001F0DF
:1029300058C002F059C003F01FEC05F00A0E046EF7
:10294000000E056E066E076E1FEC05F008C000F065
:1029500009C001F00AC002F00BC003F0300E0026DF
:102960003AC0E1FF3BC0E2FF00C0E6FF3A4A3B2A23
:102970005A4A5B2AB1D749504A100FE03AC0E1FFEA
:102980003BC0E2FF300EE66E3A4A3B2A5A4A5B2AC7
:10299000010E495E000E4A5AEED74EAA0BD03AC03D
:1029A000E1FF3BC0E2FF450EE66E3A4A3B2A5A4A37
:1029B0005B2A0AD03AC0E1FF3BC0E2FF650EE66E3B
:1029C0003A4A3B2A5A4A5B2A800E5518006E800EFE
:1029D000005C02E1000E545C11E254500008546E99
:1029E0005550000E55563AC0E1FF3BC0E2FF2D0E98
:1029F000E66E3A4A3B2A5A4A5B2A0AD03AC0E1FFBD
:102A00003BC0E2FF2B0EE66E3A4A3B2A5A4A5B2A4B
:102A10000A0E046E000E056E54C000F055C001F0A1
:102A2000D1EC07F0300E00263AC0E1FF3BC0E2FFD8
:102A300000C0E6FF3A4A3B2A5A4A5B2A0A0E046E55
:102A4000000E056E54C000F055C001F0D1EC07F047
:102A500008C000F009C001F0300E00263AC0E1FFC6
:102A60003BC0E2FF00C0E6FF3A4A3B2A5A4A5B2AD3
:102A70004EA61AD0800E006E800E4D18005C02E14A
:102A80004C50000811E23AC0E1FF3BC0E2FF200ECB
:102A9000E66E3A4A3B2A5A4A5B2A010E4C5E000E09
:102AA0004D5A4C504D10EFE17CEF0DF04FA2F4D099
:102AB000800E5518006E800E005C02E1000E545C22
:102AC0000AE2010E545C006E000E5558016E005073
:102AD000495E01504A5A50C000F051C001F052C046
:102AE00002F053C003F084EC04F000C056F001C0C3
:102AF00057F002C058F003C059F0010E4B6E4B5016
:102B00000A0A34E04BC000F0000E016E026E036E44
:102B1000003600900136023603360036009001364A
:102B200002360336640E0024F66E3E0E0120F76E68
:102B3000000E0220F86E0900F5CF01F00900F5CF74
:102B400002F00900F5CF03F00900F5CF04F00450BE
:102B5000595C08E10350585C05E10250575C02E102
:102B60000150565C01E202D04B2AC9D74B50495C58
:102B70000001606F000E4A58616F60C049F061C08B
:102B80004AF056C000F057C001F058C002F059C0DA
:102B900003F099EC06F000C004F001C005F002C09B
:102BA00006F003C007F050C000F051C001F052C061
:102BB00002F053C003F095EC06F000C05CF001C0D9
:102BC0005DF002C05EF003C05FF060C062F069ECCF
:102BD00008F05CC004F05DC005F05EC006F05FC0A8
:102BE00007F083EC01F0000E046E000E056E000E7F
:102BF000066E7E0E076E62EC02F084EC04F000C0FC
:102C000056F001C057F002C058F003C059F04950C7
:102C10004A1042E00A0E046E000E056E066E076E44
:102C200056C000F057C001F058C002F059C003F080
:102C30001FEC05F008C000F009C001F00AC002F066
:102C40000BC003F0000E046E031808E104500218D4
:102C500005E10450011802E10050000A1DE10A0ECE
:102C6000046E000E056E066E076E56C000F057C06B
:102C700001F058C002F059C003F01FEC05F000C08D
:102C800056F001C057F002C058F003C059F0010ED1
:102C9000495E000E4A5ABBD7800E006E800E4A185D
:102CA000005C02E149500C0816E349C062F047ECB1
:102CB0000BF050C004F051C005F052C006F053C0F4
:102CC00007F062EC02F000C050F001C051F002C009
:102CD00052F003C053F050C000F051C001F052C098
:102CE00002F053C003F0046A056A066A076A61ECE1
:102CF0000DF0000ED8A4010E006E0052D8B474D0AE
:102D000050C000F051C001F052C002F053C003F0B7
:102D100084EC04F0000E046E031808E1045002185D
:102D200005E10450011802E10050000A5DE1800E47
:102D3000006E800E5518005C02E15450010854E208
:102D400054C062F069EC08F000C004F001C005F066
:102D500002C006F003C007F050C000F051C001F0FF
:102D600052C002F053C003F0ACEC06F05F0E046EEC
:102D7000700E056E090E066E810E076E6AEC07F086
:102D8000010ED8B0000E006E005205E0090E545E30
:102D9000000E555A04D0080E545E000E555A54C009
:102DA00062F069EC08F000C004F001C005F002C058
:102DB00006F003C007F050C000F051C001F052C04F
:102DC00002F053C003F0ACEC06F084EC04F000C059
:102DD00056F001C057F002C058F003C059F0506AD5
:102DE000516A526A536A38D050C000F051C001F0A5
:102DF00052C002F053C003F084EC04F000C056F05F
:102E000001C057F002C058F003C059F056C000F09E
:102E100057C001F058C002F059C003F099EC06F019
:102E200000C004F001C005F002C006F003C007F0C6
:102E300050C000F051C001F052C002F053C003F086
:102E400095EC06F000C050F001C051F002C052F005
:102E500003C053F0546A556A010E4B6E4B500A0A78
:102E600034E04BC000F0000E016E026E036E0036BF
:102E700000900136023603360036009001360236E5
:102E80000336640E0024F66E3E0E0120F76E000E2F
:102E90000220F86E0900F5CF01F00900F5CF02F02D
:102EA0000900F5CF03F00900F5CF04F00450595C98
:102EB00008E10350585C05E10250575C02E1015003
:102EC000565C01E202D04B2AC9D74B504924006E10
:102ED000000E4A20016E5450002655500122005029
:102EE0004C5E01504D5A4FB604D049504A1001E192
:102EF00004D0010E4C5E000E4D5A030E4E14006EAF
:102F00004FC001F0000E01160050011004E0010E48
:102F10004C5E000E4D5A4EA439D04EA212D04EA097
:102F200003D02D0E436E02D02B0E436E3AC0E1FF4C
:102F30003BC0E2FF43C0E6FF3A4A3B2A5A4A5B2ABB
:102F40000CD04EA00AD03AC0E1FF3BC0E2FF200EF9
:102F5000E66E3A4A3B2A5A4A5B2A800E006E800E81
:102F60004D18005C02E14C5000080FE23AC0E1FF4E
:102F70003BC0E2FF300EE66E3A4A3B2A5A4A5B2AD1
:102F8000010E4C5E000E4D5AE8D73AD04EB618D01E
:102F9000800E006E800E4D18005C02E14C5000085F
:102FA0000FE23AC0E1FF3BC0E2FF200EE66E3A4A74
:102FB0003B2A5A4A5B2A010E4C5E000E4D5AE8D756
:102FC0004EA212D04EA003D02D0E446E02D02B0E76
:102FD000446E3AC0E1FF3BC0E2FF44C0E6FF3A4A1C
:102FE0003B2A5A4A5B2A0CD04EA00AD03AC0E1FFD5
:102FF0003BC0E2FF200EE66E3A4A3B2A5A4A5B2A61
:103000004BC000F04B0600524CE04BC000F0000EED
:10301000016E026E036E00360090013602360336F2
:1030200000360090013602360336640E0024F66E38
:103030003E0E0120F76E000E0220F86E0900F5CF5B
:1030400004F00900F5CF05F00900F5CF06F00900FE
:10305000F5CF07F056C000F057C001F058C002F09D
:1030600059C003F01FEC05F00A0E046E000E056E49
:10307000066E076E1FEC05F008C000F009C001F0F5
:103080000AC002F00BC003F0300E00263AC0E1FF88
:103090003BC0E2FF00C0E6FF3A4A3B2A5A4A5B2A9D
:1030A000AFD7800E006E800E5518005C02E15450C0
:1030B00000080FE23AC0E1FF3BC0E2FF300EE66ECF
:1030C0003A4A3B2A5A4A5B2A010E545E000E555A70
:1030D000E8D7800E000A006E800E4A18005C02E1FC
:1030E0004950080803E2080E4B6E02D049C04BF06D
:1030F0004B50495E000E4A5A4B5203E14FB601D085
:103100000AD03AC0E1FF3BC0E2FF2E0EE66E3A4A1B
:103110003B2A5A4A5B2A4BC062F069EC08F050C067
:1031200004F051C005F052C006F053C007F083EC24
:1031300001F0C8EC0CF000C056F001C057F002C01E
:1031400058F003C059F04B524DE04B064BC000F015
:10315000000E016E026E036E0036009001360236DC
:10316000033600360090013602360336640E002422
:10317000F66E3E0E0120F76E000E0220F86E09007A
:10318000F5CF04F00900F5CF05F00900F5CF06F002
:103190000900F5CF07F056C000F057C001F058C045
:1031A00002F059C003F01FEC05F00A0E046E000E89
:1031B000056E066E076E1FEC05F008C000F009C032
:1031C00001F00AC002F00BC003F0300E00263AC036
:1031D000E1FF3BC0E2FF00C0E6FF3A4A3B2A5A4A01
:1031E0005B2AB1D749504A100FE03AC0E1FF3BC01B
:1031F000E2FF300EE66E3A4A3B2A5A4A5B2A010E3B
:10320000495E000E4A5AEED74EA61AD0800E006EC6
:10321000800E4D18005C02E14C50000811E23AC0EB
:10322000E1FF3BC0E2FF200EE66E3A4A3B2A5A4AD3
:103230005B2A010E4C5E000E4D5A4C504D10EFE1D2
:103240007CEF0DF0C00E4E14016E4FC002F0000E68
:103250000216000E021802E1000E0118D8A480D058
:103260004EA827D03FC0E9FF40C0EAFFEECF00F0F4
:10327000EECF01F000C0E9FF01C0EAFFEECF56F04B
:10328000EECF57F0EECF58F0EECF59F03FC0E9FF48
:1032900040C0EAFF040EEE24006E000EEE20016E28
:1032A0003FC0E1FF40C0E2FF00C0E6FF01C0E6FF13
:1032B0002FD03FC0E9FF40C0EAFFEECF00F0EECFD5
:1032C00001F000C0E9FF01C0EAFFEECF00F0EECF51
:1032D00001F0000E01BEFF0E026E036E00C056F03C
:1032E00001C057F002C058F003C059F03FC0E9FFD9
:1032F00040C0EAFF020EEE24006E000EEE20016ECA
:103300003FC0E1FF40C0E2FF00C0E6FF01C0E6FFB2
:10331000800E5918006E800E005C08E1000E585CAB
:1033200005E1000E575C02E1000E565C18E2030E48
:103330004E12000E4F12006A016A026A036A56506A
:10334000005E5750015A5850025A5950035A00C053
:1033500056F001C057F002C058F003C059F04ED0EB
:103360004EA827D03FC0E9FF40C0EAFFEECF00F0F3
:10337000EECF01F000C0E9FF01C0EAFFEECF56F04A
:10338000EECF57F0EECF58F0EECF59F03FC0E9FF47
:1033900040C0EAFF040EEE24006E000EEE20016E27
:1033A0003FC0E1FF40C0E2FF00C0E6FF01C0E6FF12
:1033B00025D03FC0E9FF40C0EAFFEECF00F0EECFDE
:1033C00001F000C0E9FF01C0EAFFEECF56F0EECFFA
:1033D00057F0000E586E596E3FC0E9FF40C0EAFF3B
:1033E000020EEE24006E000EEE20016E3FC0E1FFE3
:1033F00040C0E2FF00C0E6FF01C0E6FF000E4A1831
:1034000002E1000E49180FE1000E006E591808E1A4
:103410000050581805E10050571802E15650000AB4
:1034200002E1494A4A2AC00E4E14006E00C005F05F
:10343000AED0010E4B6E4B500A0A34E04BC000F088
:10344000000E016E026E036E0036009001360236E9
:10345000033600360090013602360336640E00242F
:10346000F66E3E0E0120F76E000E0220F86E090087
:10347000F5CF01F00900F5CF02F00900F5CF03F018
:103480000900F5CF04F00450595C08E10350585C82
:1034900005E10250575C02E10150565C01E202D0A6
:1034A0004B2AC9D782D0010E4B6E4B50080A34E02C
:1034B0004BC000F0000E016E026E036E00360090ED
:1034C00001360236033600360090013602360336E6
:1034D0008C0E0024F66E3E0E0120F76E000E0220C8
:1034E000F86E0900F5CF01F00900F5CF02F00900F0
:1034F000F5CF03F00900F5CF04F00450595C08E162
:103500000350585C05E10250575C02E10150565CE3
:1035100001E202D04B2AC9D748D0010E4B6E4B5066
:103520000C0A34E04BC000F0000E016E026E036E18
:103530000036009001360236033600360090013620
:1035400002360336340E0024F66E3E0E0120F76E6E
:10355000000E0220F86E0900F5CF01F00900F5CF4A
:1035600002F00900F5CF03F00900F5CF04F0045094
:10357000595C08E10350585C05E10250575C02E1D8
:103580000150565C01E202D04B2AC9D70ED005503B
:10359000000AD8B44ED70550C00AD8B44AD705504F
:1035A000800A81E00550400AB8E0800E006E800E6F
:1035B0004A18005C02E149504B5C03E249C04BF001
:1035C0000DD0800E4A18006E800E005C02E14B5058
:1035D000495C04E24BC049F0000E4A6E4C504D105D
:1035E0000EE0030E4E14006E4FC001F0000E0116E7
:1035F0000050011004E0010E4C5E000E4D5A800E8A
:103600004A18006E800E4D18005C02E14C50495C77
:1036100005E249504C5E4A504D5A02D04C6A4D6A00
:10362000C40E4E14016E4F50080B026E0250080A71
:1036300002E1400E011808E14C504D1004E0010E6B
:103640004C5E000E4D5A1CD0C00E4E14016E4F50F1
:10365000080B026E0250080A02E1800E011810E108
:10366000800E006E800E4D18005C02E14C50020886
:1036700005E2020E4C5E000E4D5A02D04C6A4D6AB5
:103680004EA45DD04EA212D04EA003D02D0E456E9A
:1036900002D02B0E456E3AC0E1FF3BC0E2FF45C0B1
:1036A000E6FF3A4A3B2A5A4A5B2A34D04EA00BD056
:1036B0003AC0E1FF3BC0E2FF200EE66E3A4A3B2AE9
:1036C0005A4A5B2A27D0C00E4E14016E4F50080B89
:1036D000026E0250080A02E1800E01181BE13AC096
:1036E000E1FF3BC0E2FF300EE66E3A4A3B2A5A4AFF
:1036F0005B2A4EAA03D0580E466E02D0780E466E54
:103700003AC0E1FF3BC0E2FF46C0E6FF3A4A3B2A2F
:103710005A4A5B2A4C504D1011E03AC0E1FF3BC0C1
:10372000E2FF300EE66E3A4A3B2A5A4A5B2A010E05
:103730004C5E000E4D5A4C504D10EFE174D04C5081
:103740004D1013E04EB611D03AC0E1FF3BC0E2FF8E
:10375000200EE66E3A4A3B2A5A4A5B2A010E4C5E1C
:10376000000E4D5A4C504D10EFE14EA212D04EA01B
:1037700003D02D0E476E02D02B0E476E3AC0E1FFEC
:103780003BC0E2FF47C0E6FF3A4A3B2A5A4A5B2A5F
:103790000CD04EA00AD03AC0E1FF3BC0E2FF200EA1
:1037A000E66E3A4A3B2A5A4A5B2AC00E4E14016E14
:1037B0004F50080B026E0250080A02E1400E011839
:1037C0000BE13AC0E1FF3BC0E2FF300EE66E3A4A41
:1037D0003B2A5A4A5B2A27D0C00E4E14016E4F5026
:1037E000080B026E0250080A02E1800E01181BE16C
:1037F0003AC0E1FF3BC0E2FF300EE66E3A4A3B2A98
:103800005A4A5B2A4EAA03D0580E486E02D0780E50
:10381000486E3AC0E1FF3BC0E2FF48C0E6FF3A4ACB
:103820003B2A5A4A5B2A800E006E800E4A18005CC2
:1038300002E149504B5C0BE23AC0E1FF3BC0E2FFC2
:10384000300EE66E3A4A3B2A5A4A5B2AECD749C008
:1038500000F04AC001F0010E495E000E4A5A0050C5
:103860000110D8B42AD1C00E4E14006E00C05CF016
:103870000AD149C000F04AC001F0000E4ABEFF0E56
:10388000026E036E003600900136023603360036B3
:103890000090013602360336640E0024F66E3E0EAA
:1038A0000120F76E000E0220F86E0900F5CF04F03B
:1038B0000900F5CF05F00900F5CF06F00900F5CFB6
:1038C00007F056C000F057C001F058C002F059C0D0
:1038D00003F01FEC05F00A0E046E000E056E066E76
:1038E000076E1FEC05F008C000F009C001F00AC027
:1038F00002F00BC003F0300E00244B6ED3D04EAA62
:1039000045D049C000F04AC001F0000E4ABEFF0E8B
:10391000026E036E00360090013602360336003622
:1039200000900136023603368C0E0024F66E3E0EF1
:103930000120F76E000E0220F86E0900F5CF04F0AA
:103940000900F5CF05F00900F5CF06F00900F5CF25
:1039500007F056C000F057C001F058C002F059C03F
:1039600003F01FEC05F00F0E0016000E01160216F4
:103970000316BD0E0024F66E3E0E0120F76E000EFB
:103980000220F86E0900F5CF4BF044D049C000F09A
:103990004AC001F0000E4ABEFF0E026E036E0036F2
:1039A00000900136023603360036009001360236AA
:1039B00003368C0E0024F66E3E0E0120F76E000ECC
:1039C0000220F86E0900F5CF04F00900F5CF05F0EC
:1039D0000900F5CF06F00900F5CF07F056C000F05A
:1039E00057C001F058C002F059C003F01FEC05F0B9
:1039F0000F0E0016000E011602160316AC0E002460
:103A0000F66E3E0E0120F76E000E0220F86E0900E1
:103A1000F5CF4BF047D049C000F04AC001F0000E8E
:103A20004ABEFF0E026E036E00360090013602366B
:103A3000033600360090013602360336340E002479
:103A4000F66E3E0E0120F76E000E0220F86E0900A1
:103A5000F5CF04F00900F5CF05F00900F5CF06F029
:103A60000900F5CF07F056C000F057C001F058C06C
:103A700002F059C003F01FEC05F0070E00144B6E66
:103A8000300E4B260FD05C50000AD8B4F2D65C50F2
:103A9000C00AD8B4EED65C50800AD8B430D75C5097
:103AA000400AB9E03AC0E1FF3BC0E2FF4BC0E6FF8D
:103AB0003A4A3B2A5A4A5B2ACAD64EA61AD0800EE8
:103AC000006E800E4D18005C02E14C50000811E2BF
:103AD0003AC0E1FF3BC0E2FF200EE66E3A4A3B2AC5
:103AE0005A4A5B2A010E4C5E000E4D5A4C504D1046
:103AF000EFE17CEF0DF05AC000F05BC001F0120066
:103B0000320E386E000E396E2DC03AF02EC03BF0EA
:103B10002FC03CF030C03DF031C03EF0380E3F6E5B
:103B2000000E406E78EC0DF000C036F001C037F0AA
:103B300000502D24E16E01502E20E26EE66A36C060
:083B400000F037C001F0120093
:103B48000F0E0F01596F216B2E6B116B030E8A6ECE
:103B58008C6A800E886E8F6A916A100E8D6E856AE7
:103B6800876A100E836E030E206F030E1D6F396B6C
:043B7800356B120097
:103B7C00818E0900F5CFE6FF0006FBE10106F9E1B5
:023B8C00120025
:103B8E00300E0E01C26FCA6B900ED56E400ED66E01
:103B9E00060ED46ED36A030E0F011B6F030E1C6F3D
:0C3BAE001A6B0E01CA9BC00EF26E1200D2
:103BBA0021C000F00032009E00502118286E296AA8
:103BCA00000E291A000E296E2A0E2D6E000E2E6E78
:103BDA00D70E2F6E3E0E306E000E316E28C032F0B8
:103BEA0029C033F033323232339E33BC338E010E66
:103BFA003216000E331628C034F029C035F0010EF3
:103C0A003416000E351677DF25D008D022A003D04F
:103C1A00010E006E26D0630E006E23D02B50310A9F
:103C2A00F5E01ED010D022A003D0020E006E19D0EB
:103C3A00630E006E16D022A003D0030E006E11D0C0
:103C4A00630E006E0ED02B50310AEDE02B50300A75
:103C5A00F2E006D02A50300AD8E02A50310AE2E0CF
:043C6A00006A1200DA
:103C6E0020A608D08FA003D02098208A02D02088CA
:103C7E00209A0CD020A408D08FA203D020902082AE
:0E3C8E0002D02080209202D0209620941200B6
:103C9C006EEC1FF053DF75DFE4DF25C024F086D017
:103CAC00839820A82BD020D02292208E209C020E0C
:103CBC00216E010E256E22D02292209E208C030EA6
:103CCC00216E010E256E1AD02282209E209C010EA0
:103CDC00216E010E256E12D02282209E209C010E98
:103CEC00216E010E256E0AD02350010ADDE023500F
:103CFC00020AE2E02350030AE7E0EED75FD022800D
:103D0C0042D022A213D021C026F0000E276E4FDF26
:103D1C000050010A03E1838A87808792010E236E8B
:103D2C0020AA03D0256A229201D0228235D020AE5F
:103D3C0013D021C026F0000E276E39DF0050020A86
:103D4C0003E1839A87808782020E236E20AA03D018
:103D5C00256A209E01D0208E1FD020AC13D021C00C
:103D6C0026F0000E276E23DF0050030A03E1838A3E
:103D7C0087908782030E236E20AA03D0256A209C8D
:103D8C0001D0208C09D02150010ABBE02150020A3D
:103D9C00CEE02150030AE1E011D0256A246A229278
:103DAC00209E209C216A020E236E08D02450000A0B
:103DBC00D8B476D72450010AA2E0EFD76DD7FFD73D
:103EDC0010EE17F0090E006E010E016ECE0EF66E8E
:0E3EEC003E0EF76E000EF86EBEEC1DF01200DA
:103DCC000000007F000020820000488500007A88F7
:103DDC0000401C8C0050438F0024749280961896DF
:103DEC0020BC3E99286B6E9CF90215A0EC782DC175
:043DFC00CAF249E2DC
:103E00000000007FCDCC4C7B0AD723786F1203755E
:103E100017B75171ACC5276EBD37066B95BF566796
:103E200077CC2B645F700961FFE65B5D08E53C3C85
:043E30006042221BAF
:103E34000100000008000000400000000002000033
:103E440000100000008000000000040000002000BA
:103E54000000000100000008000000400000000015
:103E6400010000000A00000064000000E8030000F4
:103E740010270000A086010040420F0080969800A1
:083E840000E1F50500CA9A3BBC
:103E8C000100000010000000000100000010000004
:103E9C0000000100000010000000000100000010F4
:103EAC0030313233343536373839616263646566A4
:013EBC000005
:103EBD003031323334353637383941424344454653
:013ECD0000F4
:073ECE00286E756C6C2900E1
:023ED5000000EB
:053ED7002575257500B2
:020000040030CA
:0C0000007229C3AF7F3FFF170300FF020F
:00000001FF
