:100000000DEF01F0FFFFFFFF00C016F001C015F07B
:100010000E01CAAB05D0CA9B0B0ED46EDC0ED36E9C
:10002000CDAB06D08378F7D80050010A01E1D0D8D3
:1000300016C000F015C001F011009E8A900E9D6E52
:100040000E01CDAB03D099CF00F0FAD7120045C016
:1000500017F046C018F047C019F048C01AF049C060
:1000600039F04AC03AF04BC03BF04CC03CF04DC0B8
:1000700041F04EC042F04FC043F050C044F051C078
:100080003DF052C03EF053C03FF054C040F012006B
:1000900099CF01F09DA202D09D989D8801C000F0EB
:1000A0001200000E456E010E466E000E476E000EE9
:1000B000486EFF0E496EFF0E4A6EFF0E4B6EFF0E2E
:1000C0004C6EFF0E4D6EFF0E4E6E000E4F6E000E0C
:1000D000506EFF0E516EFF0E526E000E536E000EEC
:1000E000546EB5DFAADF1200700E0E01D86F800EBD
:1000F000DC6F1200000E0E01CDBB010E006E12006F
:10010000C7DF1200C00EF26E900ED56E430ED66E93
:100110000B0ED46EDC0ED36E010EBF6EBE6AC06ACB
:100120004D0EBC6EBB6AE00EBD6E0E01CA6B200E9A
:10013000C56FCD6BCE6B1200100E836E846A856A1C
:10014000866A876ACF0E886EC80E896EFF0E8A6E29
:10015000FF0E8B6E8C6ACF0E0F01116FC00E196FE0
:10016000216B266B2E6B106B186B206B256B2D6B28
:10017000FF0E0E6FFF0E166FFF0E1E6FFF0E236F2A
:10018000070E2B6FFF0E0D6FFF0E156FFF0E1D6F0D
:10019000FF0E226F070E2A6F090E0E01F36F0B0E72
:1001A000B56F12009F86030E9B6E010E9C6E9E849F
:1001B00078DF1200A7DFC0DF97DFF4DF1200818E47
:1001C0000900F5CFE6FF0006FBE10106F9E11200A8
:1001D0001B0E556E000E566E34505526D8B0562A5A
:1001E0008FDF55C0E1FF56C0E2FF00C0E6FF34508C
:1001F000010F006E00C034F0010E366E180E345C34
:1002000006E3346A010E356E366A376A386A1200C0
:100210000E01C28B12006EDF1200CCDFF9DF346AF0
:10022000CEA319D0BB6A365216E0010E3724006EF9
:10023000000E3820016E00C037F001C038F0800E8B
:100240003818006E800E005C02E1640E375C03E338
:10025000376A386A346A3552D8A4356AE1D7FFD78D
:020000040030CA
:0C0000007229E3B77F3FFF170300FF02E7
:00000001FF
